{
	"contracts/examples/ExampleFlashSwap.sol": {
		"ExampleFlashSwap": {
			"abi": [
				{
					"inputs": [
						{
							"internalType": "address",
							"name": "_factory",
							"type": "address"
						},
						{
							"internalType": "address",
							"name": "_factoryV1",
							"type": "address"
						},
						{
							"internalType": "address",
							"name": "router",
							"type": "address"
						}
					],
					"stateMutability": "nonpayable",
					"type": "constructor"
				},
				{
					"inputs": [
						{
							"internalType": "address",
							"name": "sender",
							"type": "address"
						},
						{
							"internalType": "uint256",
							"name": "amount0",
							"type": "uint256"
						},
						{
							"internalType": "uint256",
							"name": "amount1",
							"type": "uint256"
						},
						{
							"internalType": "bytes",
							"name": "data",
							"type": "bytes"
						}
					],
					"name": "FiveswapV2Call",
					"outputs": [],
					"stateMutability": "nonpayable",
					"type": "function"
				},
				{
					"stateMutability": "payable",
					"type": "receive"
				}
			],
			"devdoc": {
				"methods": {}
			},
			"evm": {
				"assembly": "    /* \"contracts/examples/ExampleFlashSwap.sol\":389:3782  contract ExampleFlashSwap is IFiveswapV2Callee {... */\n  mstore(0x40, 0xe0)\n    /* \"contracts/examples/ExampleFlashSwap.sol\":544:762  constructor(address _factory, address _factoryV1, address router) public {... */\n  callvalue\n    /* \"--CODEGEN--\":5:14   */\n  dup1\n    /* \"--CODEGEN--\":2:4   */\n  iszero\n  tag_1\n  jumpi\n    /* \"--CODEGEN--\":27:28   */\n  0x00\n    /* \"--CODEGEN--\":24:25   */\n  dup1\n    /* \"--CODEGEN--\":17:29   */\n  revert\n    /* \"--CODEGEN--\":2:4   */\ntag_1:\n    /* \"contracts/examples/ExampleFlashSwap.sol\":544:762  constructor(address _factory, address _factoryV1, address router) public {... */\n  pop\n  mload(0x40)\n  sub(codesize, bytecodeSize)\n  dup1\n  bytecodeSize\n  dup4\n  codecopy\n  dup2\n  dup2\n  add\n  0x40\n  mstore\n    /* \"--CODEGEN--\":15:17   */\n  0x60\n    /* \"--CODEGEN--\":10:13   */\n  dup2\n    /* \"--CODEGEN--\":7:18   */\n  lt\n    /* \"--CODEGEN--\":4:6   */\n  iszero\n  tag_2\n  jumpi\n    /* \"--CODEGEN--\":31:32   */\n  0x00\n    /* \"--CODEGEN--\":28:29   */\n  dup1\n    /* \"--CODEGEN--\":21:33   */\n  revert\n    /* \"--CODEGEN--\":4:6   */\ntag_2:\n    /* \"contracts/examples/ExampleFlashSwap.sol\":544:762  constructor(address _factory, address _factoryV1, address router) public {... */\n  dup2\n  add\n  swap1\n  dup1\n  dup1\n  mload\n  swap1\n  0x20\n  add\n  swap1\n  swap3\n  swap2\n  swap1\n  dup1\n  mload\n  swap1\n  0x20\n  add\n  swap1\n  swap3\n  swap2\n  swap1\n  dup1\n  mload\n  swap1\n  0x20\n  add\n  swap1\n  swap3\n  swap2\n  swap1\n  pop\n  pop\n  pop\n    /* \"contracts/examples/ExampleFlashSwap.sol\":658:668  _factoryV1 */\n  dup2\n    /* \"contracts/examples/ExampleFlashSwap.sol\":627:669  factoryV1 = IFiveswapV1Factory(_factoryV1) */\n  0xffffffffffffffffffffffffffffffffffffffff\n  and\n  0x80\n  dup2\n  0xffffffffffffffffffffffffffffffffffffffff\n  and\n  0x60\n  shl\n  dup2\n  mstore\n  pop\n  pop\n    /* \"contracts/examples/ExampleFlashSwap.sol\":689:697  _factory */\n  dup3\n    /* \"contracts/examples/ExampleFlashSwap.sol\":679:697  factory = _factory */\n  0xffffffffffffffffffffffffffffffffffffffff\n  and\n  0xa0\n  dup2\n  0xffffffffffffffffffffffffffffffffffffffff\n  and\n  0x60\n  shl\n  dup2\n  mstore\n  pop\n  pop\n    /* \"contracts/examples/ExampleFlashSwap.sol\":740:746  router */\n  dup1\n    /* \"contracts/examples/ExampleFlashSwap.sol\":720:752  IFiveswapV2Router01(router).WETH */\n  0xffffffffffffffffffffffffffffffffffffffff\n  and\n  0xad5c4648\n    /* \"contracts/examples/ExampleFlashSwap.sol\":720:754  IFiveswapV2Router01(router).WETH() */\n  mload(0x40)\n  dup2\n  0xffffffff\n  and\n  0xe0\n  shl\n  dup2\n  mstore\n  0x04\n  add\n  0x20\n  mload(0x40)\n  dup1\n  dup4\n  sub\n  dup2\n  dup7\n  dup1\n  extcodesize\n  iszero\n    /* \"--CODEGEN--\":5:14   */\n  dup1\n    /* \"--CODEGEN--\":2:4   */\n  iszero\n  tag_5\n  jumpi\n    /* \"--CODEGEN--\":27:28   */\n  0x00\n    /* \"--CODEGEN--\":24:25   */\n  dup1\n    /* \"--CODEGEN--\":17:29   */\n  revert\n    /* \"--CODEGEN--\":2:4   */\ntag_5:\n    /* \"contracts/examples/ExampleFlashSwap.sol\":720:754  IFiveswapV2Router01(router).WETH() */\n  pop\n  gas\n  staticcall\n  iszero\n    /* \"--CODEGEN--\":8:17   */\n  dup1\n    /* \"--CODEGEN--\":5:7   */\n  iszero\n  tag_7\n  jumpi\n    /* \"--CODEGEN--\":45:61   */\n  returndatasize\n    /* \"--CODEGEN--\":42:43   */\n  0x00\n    /* \"--CODEGEN--\":39:40   */\n  dup1\n    /* \"--CODEGEN--\":24:62   */\n  returndatacopy\n    /* \"--CODEGEN--\":77:93   */\n  returndatasize\n    /* \"--CODEGEN--\":74:75   */\n  0x00\n    /* \"--CODEGEN--\":67:94   */\n  revert\n    /* \"--CODEGEN--\":5:7   */\ntag_7:\n    /* \"contracts/examples/ExampleFlashSwap.sol\":720:754  IFiveswapV2Router01(router).WETH() */\n  pop\n  pop\n  pop\n  pop\n  mload(0x40)\n  returndatasize\n    /* \"--CODEGEN--\":15:17   */\n  0x20\n    /* \"--CODEGEN--\":10:13   */\n  dup2\n    /* \"--CODEGEN--\":7:18   */\n  lt\n    /* \"--CODEGEN--\":4:6   */\n  iszero\n  tag_8\n  jumpi\n    /* \"--CODEGEN--\":31:32   */\n  0x00\n    /* \"--CODEGEN--\":28:29   */\n  dup1\n    /* \"--CODEGEN--\":21:33   */\n  revert\n    /* \"--CODEGEN--\":4:6   */\ntag_8:\n    /* \"contracts/examples/ExampleFlashSwap.sol\":720:754  IFiveswapV2Router01(router).WETH() */\n  dup2\n  add\n  swap1\n  dup1\n  dup1\n  mload\n  swap1\n  0x20\n  add\n  swap1\n  swap3\n  swap2\n  swap1\n  pop\n  pop\n  pop\n    /* \"contracts/examples/ExampleFlashSwap.sol\":707:755  WETH = IWETH(IFiveswapV2Router01(router).WETH()) */\n  0xffffffffffffffffffffffffffffffffffffffff\n  and\n  0xc0\n  dup2\n  0xffffffffffffffffffffffffffffffffffffffff\n  and\n  0x60\n  shl\n  dup2\n  mstore\n  pop\n  pop\n    /* \"contracts/examples/ExampleFlashSwap.sol\":544:762  constructor(address _factory, address _factoryV1, address router) public {... */\n  pop\n  pop\n  pop\n    /* \"contracts/examples/ExampleFlashSwap.sol\":389:3782  contract ExampleFlashSwap is IFiveswapV2Callee {... */\n  shr(0x60, mload(0x80))\n  shr(0x60, mload(0xa0))\n  shr(0x60, mload(0xc0))\n  codecopy(0x00, dataOffset(sub_0), dataSize(sub_0))\n  assignImmutable(\"0x277ab82e5a4641341820a4a2933a62c1de997e42e92548657ae21b3728d580fe\")\n  assignImmutable(\"0x5c4c6aa067b6f8e6cb38e6ab843832a94d1712d661a04d73c517d6a1931a9e5d\")\n  assignImmutable(\"0x7f8b6b088b6d74c2852fc86c796dca07b44eed6fb3daf5e6b59f7c364db14528\")\n  return(0x00, dataSize(sub_0))\nstop\n\nsub_0: assembly {\n        /* \"contracts/examples/ExampleFlashSwap.sol\":389:3782  contract ExampleFlashSwap is IFiveswapV2Callee {... */\n      mstore(0x40, 0x80)\n      jumpi(tag_1, lt(calldatasize, 0x04))\n      shr(0xe0, calldataload(0x00))\n      dup1\n      0xee322c80\n      eq\n      tag_3\n      jumpi\n      jump(tag_2)\n    tag_1:\n      jumpi(tag_2, calldatasize)\n      stop\n    tag_2:\n        /* \"--CODEGEN--\":12:13   */\n      0x00\n        /* \"--CODEGEN--\":9:10   */\n      dup1\n        /* \"--CODEGEN--\":2:14   */\n      revert\n        /* \"contracts/examples/ExampleFlashSwap.sol\":1119:3780  function FiveswapV2Call(address sender, uint amount0, uint amount1, bytes calldata data) external override {... */\n    tag_3:\n      callvalue\n        /* \"--CODEGEN--\":5:14   */\n      dup1\n        /* \"--CODEGEN--\":2:4   */\n      iszero\n      tag_6\n      jumpi\n        /* \"--CODEGEN--\":27:28   */\n      0x00\n        /* \"--CODEGEN--\":24:25   */\n      dup1\n        /* \"--CODEGEN--\":17:29   */\n      revert\n        /* \"--CODEGEN--\":2:4   */\n    tag_6:\n        /* \"contracts/examples/ExampleFlashSwap.sol\":1119:3780  function FiveswapV2Call(address sender, uint amount0, uint amount1, bytes calldata data) external override {... */\n      pop\n      tag_7\n      0x04\n      dup1\n      calldatasize\n      sub\n        /* \"--CODEGEN--\":15:18   */\n      0x80\n        /* \"--CODEGEN--\":10:13   */\n      dup2\n        /* \"--CODEGEN--\":7:19   */\n      lt\n        /* \"--CODEGEN--\":4:6   */\n      iszero\n      tag_8\n      jumpi\n        /* \"--CODEGEN--\":32:33   */\n      0x00\n        /* \"--CODEGEN--\":29:30   */\n      dup1\n        /* \"--CODEGEN--\":22:34   */\n      revert\n        /* \"--CODEGEN--\":4:6   */\n    tag_8:\n        /* \"contracts/examples/ExampleFlashSwap.sol\":1119:3780  function FiveswapV2Call(address sender, uint amount0, uint amount1, bytes calldata data) external override {... */\n      dup2\n      add\n      swap1\n      dup1\n      dup1\n      calldataload\n      0xffffffffffffffffffffffffffffffffffffffff\n      and\n      swap1\n      0x20\n      add\n      swap1\n      swap3\n      swap2\n      swap1\n      dup1\n      calldataload\n      swap1\n      0x20\n      add\n      swap1\n      swap3\n      swap2\n      swap1\n      dup1\n      calldataload\n      swap1\n      0x20\n      add\n      swap1\n      swap3\n      swap2\n      swap1\n      dup1\n      calldataload\n      swap1\n      0x20\n      add\n      swap1\n        /* \"--CODEGEN--\":27:38   */\n      0x0100000000\n        /* \"--CODEGEN--\":14:25   */\n      dup2\n        /* \"--CODEGEN--\":11:39   */\n      gt\n        /* \"--CODEGEN--\":8:10   */\n      iszero\n      tag_9\n      jumpi\n        /* \"--CODEGEN--\":52:53   */\n      0x00\n        /* \"--CODEGEN--\":49:50   */\n      dup1\n        /* \"--CODEGEN--\":42:54   */\n      revert\n        /* \"--CODEGEN--\":8:10   */\n    tag_9:\n        /* \"contracts/examples/ExampleFlashSwap.sol\":1119:3780  function FiveswapV2Call(address sender, uint amount0, uint amount1, bytes calldata data) external override {... */\n      dup3\n      add\n        /* \"--CODEGEN--\":41:50   */\n      dup4\n        /* \"--CODEGEN--\":34:38   */\n      0x20\n        /* \"--CODEGEN--\":18:32   */\n      dup3\n        /* \"--CODEGEN--\":14:39   */\n      add\n        /* \"--CODEGEN--\":11:51   */\n      gt\n        /* \"--CODEGEN--\":8:10   */\n      iszero\n      tag_10\n      jumpi\n        /* \"--CODEGEN--\":64:65   */\n      0x00\n        /* \"--CODEGEN--\":61:62   */\n      dup1\n        /* \"--CODEGEN--\":54:66   */\n      revert\n        /* \"--CODEGEN--\":8:10   */\n    tag_10:\n        /* \"contracts/examples/ExampleFlashSwap.sol\":1119:3780  function FiveswapV2Call(address sender, uint amount0, uint amount1, bytes calldata data) external override {... */\n      dup1\n      calldataload\n      swap1\n      0x20\n      add\n      swap2\n        /* \"--CODEGEN--\":100:109   */\n      dup5\n        /* \"--CODEGEN--\":95:96   */\n      0x01\n        /* \"--CODEGEN--\":81:93   */\n      dup4\n        /* \"--CODEGEN--\":77:97   */\n      mul\n        /* \"--CODEGEN--\":67:75   */\n      dup5\n        /* \"--CODEGEN--\":63:98   */\n      add\n        /* \"--CODEGEN--\":60:110   */\n      gt\n        /* \"--CODEGEN--\":39:50   */\n      0x0100000000\n        /* \"--CODEGEN--\":25:37   */\n      dup4\n        /* \"--CODEGEN--\":22:51   */\n      gt\n        /* \"--CODEGEN--\":11:118   */\n      or\n        /* \"--CODEGEN--\":8:10   */\n      iszero\n      tag_11\n      jumpi\n        /* \"--CODEGEN--\":131:132   */\n      0x00\n        /* \"--CODEGEN--\":128:129   */\n      dup1\n        /* \"--CODEGEN--\":121:133   */\n      revert\n        /* \"--CODEGEN--\":8:10   */\n    tag_11:\n        /* \"contracts/examples/ExampleFlashSwap.sol\":1119:3780  function FiveswapV2Call(address sender, uint amount0, uint amount1, bytes calldata data) external override {... */\n      swap1\n      swap2\n      swap3\n      swap4\n      swap2\n      swap3\n      swap4\n      swap1\n      pop\n      pop\n      pop\n      tag_12\n      jump\t// in\n    tag_7:\n      stop\n    tag_12:\n        /* \"contracts/examples/ExampleFlashSwap.sol\":1236:1257  address[] memory path */\n      0x60\n        /* \"contracts/examples/ExampleFlashSwap.sol\":1274:1275  2 */\n      0x02\n        /* \"contracts/examples/ExampleFlashSwap.sol\":1260:1276  new address[](2) */\n      0xffffffffffffffff\n      dup2\n      gt\n        /* \"--CODEGEN--\":5:14   */\n      dup1\n        /* \"--CODEGEN--\":2:4   */\n      iszero\n      tag_14\n      jumpi\n        /* \"--CODEGEN--\":27:28   */\n      0x00\n        /* \"--CODEGEN--\":24:25   */\n      dup1\n        /* \"--CODEGEN--\":17:29   */\n      revert\n        /* \"--CODEGEN--\":2:4   */\n    tag_14:\n        /* \"contracts/examples/ExampleFlashSwap.sol\":1260:1276  new address[](2) */\n      pop\n      mload(0x40)\n      swap1\n      dup1\n      dup3\n      mstore\n      dup1\n      0x20\n      mul\n      0x20\n      add\n      dup3\n      add\n      0x40\n      mstore\n      dup1\n      iszero\n      tag_15\n      jumpi\n      dup2\n      0x20\n      add\n        /* \"--CODEGEN--\":29:31   */\n      0x20\n        /* \"--CODEGEN--\":21:27   */\n      dup3\n        /* \"--CODEGEN--\":17:32   */\n      mul\n        /* \"--CODEGEN--\":125:129   */\n      dup1\n        /* \"--CODEGEN--\":109:123   */\n      calldatasize\n        /* \"--CODEGEN--\":101:107   */\n      dup4\n        /* \"--CODEGEN--\":88:130   */\n      calldatacopy\n        /* \"--CODEGEN--\":156:160   */\n      dup1\n        /* \"--CODEGEN--\":148:154   */\n      dup3\n        /* \"--CODEGEN--\":144:161   */\n      add\n        /* \"--CODEGEN--\":134:161   */\n      swap2\n      pop\n        /* \"--CODEGEN--\":0:165   */\n      pop\n        /* \"contracts/examples/ExampleFlashSwap.sol\":1260:1276  new address[](2) */\n      swap1\n      pop\n    tag_15:\n      pop\n        /* \"contracts/examples/ExampleFlashSwap.sol\":1236:1276  address[] memory path = new address[](2) */\n      swap1\n      pop\n        /* \"contracts/examples/ExampleFlashSwap.sol\":1286:1302  uint amountToken */\n      0x00\n        /* \"contracts/examples/ExampleFlashSwap.sol\":1312:1326  uint amountETH */\n      dup1\n        /* \"contracts/examples/ExampleFlashSwap.sol\":1400:1414  address token0 */\n      0x00\n        /* \"contracts/examples/ExampleFlashSwap.sol\":1433:1443  msg.sender */\n      caller\n        /* \"contracts/examples/ExampleFlashSwap.sol\":1417:1451  IFiveswapV2Pair(msg.sender).token0 */\n      0xffffffffffffffffffffffffffffffffffffffff\n      and\n      0x0dfe1681\n        /* \"contracts/examples/ExampleFlashSwap.sol\":1417:1453  IFiveswapV2Pair(msg.sender).token0() */\n      mload(0x40)\n      dup2\n      0xffffffff\n      and\n      0xe0\n      shl\n      dup2\n      mstore\n      0x04\n      add\n      0x20\n      mload(0x40)\n      dup1\n      dup4\n      sub\n      dup2\n      dup7\n      dup1\n      extcodesize\n      iszero\n        /* \"--CODEGEN--\":5:14   */\n      dup1\n        /* \"--CODEGEN--\":2:4   */\n      iszero\n      tag_16\n      jumpi\n        /* \"--CODEGEN--\":27:28   */\n      0x00\n        /* \"--CODEGEN--\":24:25   */\n      dup1\n        /* \"--CODEGEN--\":17:29   */\n      revert\n        /* \"--CODEGEN--\":2:4   */\n    tag_16:\n        /* \"contracts/examples/ExampleFlashSwap.sol\":1417:1453  IFiveswapV2Pair(msg.sender).token0() */\n      pop\n      gas\n      staticcall\n      iszero\n        /* \"--CODEGEN--\":8:17   */\n      dup1\n        /* \"--CODEGEN--\":5:7   */\n      iszero\n      tag_18\n      jumpi\n        /* \"--CODEGEN--\":45:61   */\n      returndatasize\n        /* \"--CODEGEN--\":42:43   */\n      0x00\n        /* \"--CODEGEN--\":39:40   */\n      dup1\n        /* \"--CODEGEN--\":24:62   */\n      returndatacopy\n        /* \"--CODEGEN--\":77:93   */\n      returndatasize\n        /* \"--CODEGEN--\":74:75   */\n      0x00\n        /* \"--CODEGEN--\":67:94   */\n      revert\n        /* \"--CODEGEN--\":5:7   */\n    tag_18:\n        /* \"contracts/examples/ExampleFlashSwap.sol\":1417:1453  IFiveswapV2Pair(msg.sender).token0() */\n      pop\n      pop\n      pop\n      pop\n      mload(0x40)\n      returndatasize\n        /* \"--CODEGEN--\":15:17   */\n      0x20\n        /* \"--CODEGEN--\":10:13   */\n      dup2\n        /* \"--CODEGEN--\":7:18   */\n      lt\n        /* \"--CODEGEN--\":4:6   */\n      iszero\n      tag_19\n      jumpi\n        /* \"--CODEGEN--\":31:32   */\n      0x00\n        /* \"--CODEGEN--\":28:29   */\n      dup1\n        /* \"--CODEGEN--\":21:33   */\n      revert\n        /* \"--CODEGEN--\":4:6   */\n    tag_19:\n        /* \"contracts/examples/ExampleFlashSwap.sol\":1417:1453  IFiveswapV2Pair(msg.sender).token0() */\n      dup2\n      add\n      swap1\n      dup1\n      dup1\n      mload\n      swap1\n      0x20\n      add\n      swap1\n      swap3\n      swap2\n      swap1\n      pop\n      pop\n      pop\n        /* \"contracts/examples/ExampleFlashSwap.sol\":1400:1453  address token0 = IFiveswapV2Pair(msg.sender).token0() */\n      swap1\n      pop\n        /* \"contracts/examples/ExampleFlashSwap.sol\":1463:1477  address token1 */\n      0x00\n        /* \"contracts/examples/ExampleFlashSwap.sol\":1496:1506  msg.sender */\n      caller\n        /* \"contracts/examples/ExampleFlashSwap.sol\":1480:1514  IFiveswapV2Pair(msg.sender).token1 */\n      0xffffffffffffffffffffffffffffffffffffffff\n      and\n      0xd21220a7\n        /* \"contracts/examples/ExampleFlashSwap.sol\":1480:1516  IFiveswapV2Pair(msg.sender).token1() */\n      mload(0x40)\n      dup2\n      0xffffffff\n      and\n      0xe0\n      shl\n      dup2\n      mstore\n      0x04\n      add\n      0x20\n      mload(0x40)\n      dup1\n      dup4\n      sub\n      dup2\n      dup7\n      dup1\n      extcodesize\n      iszero\n        /* \"--CODEGEN--\":5:14   */\n      dup1\n        /* \"--CODEGEN--\":2:4   */\n      iszero\n      tag_20\n      jumpi\n        /* \"--CODEGEN--\":27:28   */\n      0x00\n        /* \"--CODEGEN--\":24:25   */\n      dup1\n        /* \"--CODEGEN--\":17:29   */\n      revert\n        /* \"--CODEGEN--\":2:4   */\n    tag_20:\n        /* \"contracts/examples/ExampleFlashSwap.sol\":1480:1516  IFiveswapV2Pair(msg.sender).token1() */\n      pop\n      gas\n      staticcall\n      iszero\n        /* \"--CODEGEN--\":8:17   */\n      dup1\n        /* \"--CODEGEN--\":5:7   */\n      iszero\n      tag_22\n      jumpi\n        /* \"--CODEGEN--\":45:61   */\n      returndatasize\n        /* \"--CODEGEN--\":42:43   */\n      0x00\n        /* \"--CODEGEN--\":39:40   */\n      dup1\n        /* \"--CODEGEN--\":24:62   */\n      returndatacopy\n        /* \"--CODEGEN--\":77:93   */\n      returndatasize\n        /* \"--CODEGEN--\":74:75   */\n      0x00\n        /* \"--CODEGEN--\":67:94   */\n      revert\n        /* \"--CODEGEN--\":5:7   */\n    tag_22:\n        /* \"contracts/examples/ExampleFlashSwap.sol\":1480:1516  IFiveswapV2Pair(msg.sender).token1() */\n      pop\n      pop\n      pop\n      pop\n      mload(0x40)\n      returndatasize\n        /* \"--CODEGEN--\":15:17   */\n      0x20\n        /* \"--CODEGEN--\":10:13   */\n      dup2\n        /* \"--CODEGEN--\":7:18   */\n      lt\n        /* \"--CODEGEN--\":4:6   */\n      iszero\n      tag_23\n      jumpi\n        /* \"--CODEGEN--\":31:32   */\n      0x00\n        /* \"--CODEGEN--\":28:29   */\n      dup1\n        /* \"--CODEGEN--\":21:33   */\n      revert\n        /* \"--CODEGEN--\":4:6   */\n    tag_23:\n        /* \"contracts/examples/ExampleFlashSwap.sol\":1480:1516  IFiveswapV2Pair(msg.sender).token1() */\n      dup2\n      add\n      swap1\n      dup1\n      dup1\n      mload\n      swap1\n      0x20\n      add\n      swap1\n      swap3\n      swap2\n      swap1\n      pop\n      pop\n      pop\n        /* \"contracts/examples/ExampleFlashSwap.sol\":1463:1516  address token1 = IFiveswapV2Pair(msg.sender).token1() */\n      swap1\n      pop\n        /* \"contracts/examples/ExampleFlashSwap.sol\":1547:1597  FiveswapV2Library.pairFor(factory, token0, token1) */\n      tag_24\n        /* \"contracts/examples/ExampleFlashSwap.sol\":1573:1580  factory */\n      immutable(\"0x5c4c6aa067b6f8e6cb38e6ab843832a94d1712d661a04d73c517d6a1931a9e5d\")\n        /* \"contracts/examples/ExampleFlashSwap.sol\":1582:1588  token0 */\n      dup4\n        /* \"contracts/examples/ExampleFlashSwap.sol\":1590:1596  token1 */\n      dup4\n        /* \"contracts/examples/ExampleFlashSwap.sol\":1547:1572  FiveswapV2Library.pairFor */\n      tag_25\n        /* \"contracts/examples/ExampleFlashSwap.sol\":1547:1597  FiveswapV2Library.pairFor(factory, token0, token1) */\n      jump\t// in\n    tag_24:\n        /* \"contracts/examples/ExampleFlashSwap.sol\":1533:1597  msg.sender == FiveswapV2Library.pairFor(factory, token0, token1) */\n      0xffffffffffffffffffffffffffffffffffffffff\n      and\n        /* \"contracts/examples/ExampleFlashSwap.sol\":1533:1543  msg.sender */\n      caller\n        /* \"contracts/examples/ExampleFlashSwap.sol\":1533:1597  msg.sender == FiveswapV2Library.pairFor(factory, token0, token1) */\n      0xffffffffffffffffffffffffffffffffffffffff\n      and\n      eq\n        /* \"contracts/examples/ExampleFlashSwap.sol\":1526:1598  assert(msg.sender == FiveswapV2Library.pairFor(factory, token0, token1)) */\n      tag_26\n      jumpi\n      invalid\n    tag_26:\n        /* \"contracts/examples/ExampleFlashSwap.sol\":1674:1675  0 */\n      0x00\n        /* \"contracts/examples/ExampleFlashSwap.sol\":1663:1670  amount0 */\n      dup10\n        /* \"contracts/examples/ExampleFlashSwap.sol\":1663:1675  amount0 == 0 */\n      eq\n        /* \"contracts/examples/ExampleFlashSwap.sol\":1663:1691  amount0 == 0 || amount1 == 0 */\n      dup1\n      tag_27\n      jumpi\n      pop\n        /* \"contracts/examples/ExampleFlashSwap.sol\":1690:1691  0 */\n      0x00\n        /* \"contracts/examples/ExampleFlashSwap.sol\":1679:1686  amount1 */\n      dup9\n        /* \"contracts/examples/ExampleFlashSwap.sol\":1679:1691  amount1 == 0 */\n      eq\n        /* \"contracts/examples/ExampleFlashSwap.sol\":1663:1691  amount0 == 0 || amount1 == 0 */\n    tag_27:\n        /* \"contracts/examples/ExampleFlashSwap.sol\":1656:1692  assert(amount0 == 0 || amount1 == 0) */\n      tag_28\n      jumpi\n      invalid\n    tag_28:\n        /* \"contracts/examples/ExampleFlashSwap.sol\":1758:1759  0 */\n      0x00\n        /* \"contracts/examples/ExampleFlashSwap.sol\":1747:1754  amount0 */\n      dup10\n        /* \"contracts/examples/ExampleFlashSwap.sol\":1747:1759  amount0 == 0 */\n      eq\n        /* \"contracts/examples/ExampleFlashSwap.sol\":1747:1777  amount0 == 0 ? token0 : token1 */\n      tag_29\n      jumpi\n        /* \"contracts/examples/ExampleFlashSwap.sol\":1771:1777  token1 */\n      dup1\n        /* \"contracts/examples/ExampleFlashSwap.sol\":1747:1777  amount0 == 0 ? token0 : token1 */\n      jump(tag_30)\n    tag_29:\n        /* \"contracts/examples/ExampleFlashSwap.sol\":1762:1768  token0 */\n      dup2\n        /* \"contracts/examples/ExampleFlashSwap.sol\":1747:1777  amount0 == 0 ? token0 : token1 */\n    tag_30:\n        /* \"contracts/examples/ExampleFlashSwap.sol\":1737:1741  path */\n      dup6\n        /* \"contracts/examples/ExampleFlashSwap.sol\":1742:1743  0 */\n      0x00\n        /* \"contracts/examples/ExampleFlashSwap.sol\":1737:1744  path[0] */\n      dup2\n      mload\n      dup2\n      lt\n      tag_31\n      jumpi\n      invalid\n    tag_31:\n      0x20\n      mul\n      0x20\n      add\n      add\n        /* \"contracts/examples/ExampleFlashSwap.sol\":1737:1777  path[0] = amount0 == 0 ? token0 : token1 */\n      swap1\n      0xffffffffffffffffffffffffffffffffffffffff\n      and\n      swap1\n      dup2\n      0xffffffffffffffffffffffffffffffffffffffff\n      and\n      dup2\n      mstore\n      pop\n      pop\n        /* \"contracts/examples/ExampleFlashSwap.sol\":1808:1809  0 */\n      0x00\n        /* \"contracts/examples/ExampleFlashSwap.sol\":1797:1804  amount0 */\n      dup10\n        /* \"contracts/examples/ExampleFlashSwap.sol\":1797:1809  amount0 == 0 */\n      eq\n        /* \"contracts/examples/ExampleFlashSwap.sol\":1797:1827  amount0 == 0 ? token1 : token0 */\n      tag_32\n      jumpi\n        /* \"contracts/examples/ExampleFlashSwap.sol\":1821:1827  token0 */\n      dup2\n        /* \"contracts/examples/ExampleFlashSwap.sol\":1797:1827  amount0 == 0 ? token1 : token0 */\n      jump(tag_33)\n    tag_32:\n        /* \"contracts/examples/ExampleFlashSwap.sol\":1812:1818  token1 */\n      dup1\n        /* \"contracts/examples/ExampleFlashSwap.sol\":1797:1827  amount0 == 0 ? token1 : token0 */\n    tag_33:\n        /* \"contracts/examples/ExampleFlashSwap.sol\":1787:1791  path */\n      dup6\n        /* \"contracts/examples/ExampleFlashSwap.sol\":1792:1793  1 */\n      0x01\n        /* \"contracts/examples/ExampleFlashSwap.sol\":1787:1794  path[1] */\n      dup2\n      mload\n      dup2\n      lt\n      tag_34\n      jumpi\n      invalid\n    tag_34:\n      0x20\n      mul\n      0x20\n      add\n      add\n        /* \"contracts/examples/ExampleFlashSwap.sol\":1787:1827  path[1] = amount0 == 0 ? token1 : token0 */\n      swap1\n      0xffffffffffffffffffffffffffffffffffffffff\n      and\n      swap1\n      dup2\n      0xffffffffffffffffffffffffffffffffffffffff\n      and\n      dup2\n      mstore\n      pop\n      pop\n        /* \"contracts/examples/ExampleFlashSwap.sol\":1869:1873  WETH */\n      immutable(\"0x277ab82e5a4641341820a4a2933a62c1de997e42e92548657ae21b3728d580fe\")\n        /* \"contracts/examples/ExampleFlashSwap.sol\":1851:1874  token0 == address(WETH) */\n      0xffffffffffffffffffffffffffffffffffffffff\n      and\n        /* \"contracts/examples/ExampleFlashSwap.sol\":1851:1857  token0 */\n      dup3\n        /* \"contracts/examples/ExampleFlashSwap.sol\":1851:1874  token0 == address(WETH) */\n      0xffffffffffffffffffffffffffffffffffffffff\n      and\n      eq\n        /* \"contracts/examples/ExampleFlashSwap.sol\":1851:1894  token0 == address(WETH) ? amount1 : amount0 */\n      tag_35\n      jumpi\n        /* \"contracts/examples/ExampleFlashSwap.sol\":1887:1894  amount0 */\n      dup9\n        /* \"contracts/examples/ExampleFlashSwap.sol\":1851:1894  token0 == address(WETH) ? amount1 : amount0 */\n      jump(tag_36)\n    tag_35:\n        /* \"contracts/examples/ExampleFlashSwap.sol\":1877:1884  amount1 */\n      dup8\n        /* \"contracts/examples/ExampleFlashSwap.sol\":1851:1894  token0 == address(WETH) ? amount1 : amount0 */\n    tag_36:\n        /* \"contracts/examples/ExampleFlashSwap.sol\":1837:1894  amountToken = token0 == address(WETH) ? amount1 : amount0 */\n      swap4\n      pop\n        /* \"contracts/examples/ExampleFlashSwap.sol\":1934:1938  WETH */\n      immutable(\"0x277ab82e5a4641341820a4a2933a62c1de997e42e92548657ae21b3728d580fe\")\n        /* \"contracts/examples/ExampleFlashSwap.sol\":1916:1939  token0 == address(WETH) */\n      0xffffffffffffffffffffffffffffffffffffffff\n      and\n        /* \"contracts/examples/ExampleFlashSwap.sol\":1916:1922  token0 */\n      dup3\n        /* \"contracts/examples/ExampleFlashSwap.sol\":1916:1939  token0 == address(WETH) */\n      0xffffffffffffffffffffffffffffffffffffffff\n      and\n      eq\n        /* \"contracts/examples/ExampleFlashSwap.sol\":1916:1959  token0 == address(WETH) ? amount0 : amount1 */\n      tag_37\n      jumpi\n        /* \"contracts/examples/ExampleFlashSwap.sol\":1952:1959  amount1 */\n      dup8\n        /* \"contracts/examples/ExampleFlashSwap.sol\":1916:1959  token0 == address(WETH) ? amount0 : amount1 */\n      jump(tag_38)\n    tag_37:\n        /* \"contracts/examples/ExampleFlashSwap.sol\":1942:1949  amount0 */\n      dup9\n        /* \"contracts/examples/ExampleFlashSwap.sol\":1916:1959  token0 == address(WETH) ? amount0 : amount1 */\n    tag_38:\n        /* \"contracts/examples/ExampleFlashSwap.sol\":1904:1959  amountETH = token0 == address(WETH) ? amount0 : amount1 */\n      swap3\n      pop\n        /* \"contracts/examples/ExampleFlashSwap.sol\":1119:3780  function FiveswapV2Call(address sender, uint amount0, uint amount1, bytes calldata data) external override {... */\n      pop\n      pop\n        /* \"contracts/examples/ExampleFlashSwap.sol\":2006:2010  WETH */\n      immutable(\"0x277ab82e5a4641341820a4a2933a62c1de997e42e92548657ae21b3728d580fe\")\n        /* \"contracts/examples/ExampleFlashSwap.sol\":1987:2011  path[0] == address(WETH) */\n      0xffffffffffffffffffffffffffffffffffffffff\n      and\n        /* \"contracts/examples/ExampleFlashSwap.sol\":1987:1991  path */\n      dup4\n        /* \"contracts/examples/ExampleFlashSwap.sol\":1992:1993  0 */\n      0x00\n        /* \"contracts/examples/ExampleFlashSwap.sol\":1987:1994  path[0] */\n      dup2\n      mload\n      dup2\n      lt\n      tag_39\n      jumpi\n      invalid\n    tag_39:\n      0x20\n      mul\n      0x20\n      add\n      add\n      mload\n        /* \"contracts/examples/ExampleFlashSwap.sol\":1987:2011  path[0] == address(WETH) */\n      0xffffffffffffffffffffffffffffffffffffffff\n      and\n      eq\n        /* \"contracts/examples/ExampleFlashSwap.sol\":1987:2039  path[0] == address(WETH) || path[1] == address(WETH) */\n      dup1\n      tag_40\n      jumpi\n      pop\n        /* \"contracts/examples/ExampleFlashSwap.sol\":2034:2038  WETH */\n      immutable(\"0x277ab82e5a4641341820a4a2933a62c1de997e42e92548657ae21b3728d580fe\")\n        /* \"contracts/examples/ExampleFlashSwap.sol\":2015:2039  path[1] == address(WETH) */\n      0xffffffffffffffffffffffffffffffffffffffff\n      and\n        /* \"contracts/examples/ExampleFlashSwap.sol\":2015:2019  path */\n      dup4\n        /* \"contracts/examples/ExampleFlashSwap.sol\":2020:2021  1 */\n      0x01\n        /* \"contracts/examples/ExampleFlashSwap.sol\":2015:2022  path[1] */\n      dup2\n      mload\n      dup2\n      lt\n      tag_41\n      jumpi\n      invalid\n    tag_41:\n      0x20\n      mul\n      0x20\n      add\n      add\n      mload\n        /* \"contracts/examples/ExampleFlashSwap.sol\":2015:2039  path[1] == address(WETH) */\n      0xffffffffffffffffffffffffffffffffffffffff\n      and\n      eq\n        /* \"contracts/examples/ExampleFlashSwap.sol\":1987:2039  path[0] == address(WETH) || path[1] == address(WETH) */\n    tag_40:\n        /* \"contracts/examples/ExampleFlashSwap.sol\":1980:2040  assert(path[0] == address(WETH) || path[1] == address(WETH)) */\n      tag_42\n      jumpi\n      invalid\n    tag_42:\n        /* \"contracts/examples/ExampleFlashSwap.sol\":2098:2110  IERC20 token */\n      0x00\n        /* \"contracts/examples/ExampleFlashSwap.sol\":2139:2143  WETH */\n      immutable(\"0x277ab82e5a4641341820a4a2933a62c1de997e42e92548657ae21b3728d580fe\")\n        /* \"contracts/examples/ExampleFlashSwap.sol\":2120:2144  path[0] == address(WETH) */\n      0xffffffffffffffffffffffffffffffffffffffff\n      and\n        /* \"contracts/examples/ExampleFlashSwap.sol\":2120:2124  path */\n      dup5\n        /* \"contracts/examples/ExampleFlashSwap.sol\":2125:2126  0 */\n      0x00\n        /* \"contracts/examples/ExampleFlashSwap.sol\":2120:2127  path[0] */\n      dup2\n      mload\n      dup2\n      lt\n      tag_43\n      jumpi\n      invalid\n    tag_43:\n      0x20\n      mul\n      0x20\n      add\n      add\n      mload\n        /* \"contracts/examples/ExampleFlashSwap.sol\":2120:2144  path[0] == address(WETH) */\n      0xffffffffffffffffffffffffffffffffffffffff\n      and\n      eq\n        /* \"contracts/examples/ExampleFlashSwap.sol\":2120:2164  path[0] == address(WETH) ? path[1] : path[0] */\n      tag_44\n      jumpi\n        /* \"contracts/examples/ExampleFlashSwap.sol\":2157:2161  path */\n      dup4\n        /* \"contracts/examples/ExampleFlashSwap.sol\":2162:2163  0 */\n      0x00\n        /* \"contracts/examples/ExampleFlashSwap.sol\":2157:2164  path[0] */\n      dup2\n      mload\n      dup2\n      lt\n      tag_45\n      jumpi\n      invalid\n    tag_45:\n      0x20\n      mul\n      0x20\n      add\n      add\n      mload\n        /* \"contracts/examples/ExampleFlashSwap.sol\":2120:2164  path[0] == address(WETH) ? path[1] : path[0] */\n      jump(tag_46)\n    tag_44:\n        /* \"contracts/examples/ExampleFlashSwap.sol\":2147:2151  path */\n      dup4\n        /* \"contracts/examples/ExampleFlashSwap.sol\":2152:2153  1 */\n      0x01\n        /* \"contracts/examples/ExampleFlashSwap.sol\":2147:2154  path[1] */\n      dup2\n      mload\n      dup2\n      lt\n      tag_47\n      jumpi\n      invalid\n    tag_47:\n      0x20\n      mul\n      0x20\n      add\n      add\n      mload\n        /* \"contracts/examples/ExampleFlashSwap.sol\":2120:2164  path[0] == address(WETH) ? path[1] : path[0] */\n    tag_46:\n        /* \"contracts/examples/ExampleFlashSwap.sol\":2098:2165  IERC20 token = IERC20(path[0] == address(WETH) ? path[1] : path[0]) */\n      swap1\n      pop\n        /* \"contracts/examples/ExampleFlashSwap.sol\":2175:2205  IFiveswapV1Exchange exchangeV1 */\n      0x00\n        /* \"contracts/examples/ExampleFlashSwap.sol\":2228:2237  factoryV1 */\n      immutable(\"0x7f8b6b088b6d74c2852fc86c796dca07b44eed6fb3daf5e6b59f7c364db14528\")\n        /* \"contracts/examples/ExampleFlashSwap.sol\":2228:2249  factoryV1.getExchange */\n      0xffffffffffffffffffffffffffffffffffffffff\n      and\n      0x06f2bf62\n        /* \"contracts/examples/ExampleFlashSwap.sol\":2258:2263  token */\n      dup4\n        /* \"contracts/examples/ExampleFlashSwap.sol\":2228:2265  factoryV1.getExchange(address(token)) */\n      mload(0x40)\n      dup3\n      0xffffffff\n      and\n      0xe0\n      shl\n      dup2\n      mstore\n      0x04\n      add\n      dup1\n      dup3\n      0xffffffffffffffffffffffffffffffffffffffff\n      and\n      0xffffffffffffffffffffffffffffffffffffffff\n      and\n      dup2\n      mstore\n      0x20\n      add\n      swap2\n      pop\n      pop\n      0x20\n      mload(0x40)\n      dup1\n      dup4\n      sub\n      dup2\n      dup7\n      dup1\n      extcodesize\n      iszero\n        /* \"--CODEGEN--\":5:14   */\n      dup1\n        /* \"--CODEGEN--\":2:4   */\n      iszero\n      tag_48\n      jumpi\n        /* \"--CODEGEN--\":27:28   */\n      0x00\n        /* \"--CODEGEN--\":24:25   */\n      dup1\n        /* \"--CODEGEN--\":17:29   */\n      revert\n        /* \"--CODEGEN--\":2:4   */\n    tag_48:\n        /* \"contracts/examples/ExampleFlashSwap.sol\":2228:2265  factoryV1.getExchange(address(token)) */\n      pop\n      gas\n      staticcall\n      iszero\n        /* \"--CODEGEN--\":8:17   */\n      dup1\n        /* \"--CODEGEN--\":5:7   */\n      iszero\n      tag_50\n      jumpi\n        /* \"--CODEGEN--\":45:61   */\n      returndatasize\n        /* \"--CODEGEN--\":42:43   */\n      0x00\n        /* \"--CODEGEN--\":39:40   */\n      dup1\n        /* \"--CODEGEN--\":24:62   */\n      returndatacopy\n        /* \"--CODEGEN--\":77:93   */\n      returndatasize\n        /* \"--CODEGEN--\":74:75   */\n      0x00\n        /* \"--CODEGEN--\":67:94   */\n      revert\n        /* \"--CODEGEN--\":5:7   */\n    tag_50:\n        /* \"contracts/examples/ExampleFlashSwap.sol\":2228:2265  factoryV1.getExchange(address(token)) */\n      pop\n      pop\n      pop\n      pop\n      mload(0x40)\n      returndatasize\n        /* \"--CODEGEN--\":15:17   */\n      0x20\n        /* \"--CODEGEN--\":10:13   */\n      dup2\n        /* \"--CODEGEN--\":7:18   */\n      lt\n        /* \"--CODEGEN--\":4:6   */\n      iszero\n      tag_51\n      jumpi\n        /* \"--CODEGEN--\":31:32   */\n      0x00\n        /* \"--CODEGEN--\":28:29   */\n      dup1\n        /* \"--CODEGEN--\":21:33   */\n      revert\n        /* \"--CODEGEN--\":4:6   */\n    tag_51:\n        /* \"contracts/examples/ExampleFlashSwap.sol\":2228:2265  factoryV1.getExchange(address(token)) */\n      dup2\n      add\n      swap1\n      dup1\n      dup1\n      mload\n      swap1\n      0x20\n      add\n      swap1\n      swap3\n      swap2\n      swap1\n      pop\n      pop\n      pop\n        /* \"contracts/examples/ExampleFlashSwap.sol\":2175:2266  IFiveswapV1Exchange exchangeV1 = IFiveswapV1Exchange(factoryV1.getExchange(address(token))) */\n      swap1\n      pop\n        /* \"contracts/examples/ExampleFlashSwap.sol\":2314:2315  0 */\n      0x00\n        /* \"contracts/examples/ExampleFlashSwap.sol\":2300:2311  amountToken */\n      dup5\n        /* \"contracts/examples/ExampleFlashSwap.sol\":2300:2315  amountToken > 0 */\n      gt\n        /* \"contracts/examples/ExampleFlashSwap.sol\":2296:3774  if (amountToken > 0) {... */\n      iszero\n      tag_52\n      jumpi\n        /* \"contracts/examples/ExampleFlashSwap.sol\":2332:2343  uint minETH */\n      0x00\n        /* \"contracts/examples/ExampleFlashSwap.sol\":2358:2362  data */\n      dup8\n      dup8\n        /* \"--CODEGEN--\":15:17   */\n      0x20\n        /* \"--CODEGEN--\":10:13   */\n      dup2\n        /* \"--CODEGEN--\":7:18   */\n      lt\n        /* \"--CODEGEN--\":4:6   */\n      iszero\n      tag_53\n      jumpi\n        /* \"--CODEGEN--\":31:32   */\n      0x00\n        /* \"--CODEGEN--\":28:29   */\n      dup1\n        /* \"--CODEGEN--\":21:33   */\n      revert\n        /* \"--CODEGEN--\":4:6   */\n    tag_53:\n        /* \"contracts/examples/ExampleFlashSwap.sol\":2347:2371  abi.decode(data, (uint)) */\n      dup2\n      add\n      swap1\n      dup1\n      dup1\n      calldataload\n      swap1\n      0x20\n      add\n      swap1\n      swap3\n      swap2\n      swap1\n      pop\n      pop\n      pop\n        /* \"contracts/examples/ExampleFlashSwap.sol\":2331:2371  (uint minETH) = abi.decode(data, (uint)) */\n      swap1\n      pop\n        /* \"contracts/examples/ExampleFlashSwap.sol\":2435:2440  token */\n      dup3\n        /* \"contracts/examples/ExampleFlashSwap.sol\":2435:2448  token.approve */\n      0xffffffffffffffffffffffffffffffffffffffff\n      and\n      0x095ea7b3\n        /* \"contracts/examples/ExampleFlashSwap.sol\":2457:2467  exchangeV1 */\n      dup4\n        /* \"contracts/examples/ExampleFlashSwap.sol\":2470:2481  amountToken */\n      dup8\n        /* \"contracts/examples/ExampleFlashSwap.sol\":2435:2482  token.approve(address(exchangeV1), amountToken) */\n      mload(0x40)\n      dup4\n      0xffffffff\n      and\n      0xe0\n      shl\n      dup2\n      mstore\n      0x04\n      add\n      dup1\n      dup4\n      0xffffffffffffffffffffffffffffffffffffffff\n      and\n      0xffffffffffffffffffffffffffffffffffffffff\n      and\n      dup2\n      mstore\n      0x20\n      add\n      dup3\n      dup2\n      mstore\n      0x20\n      add\n      swap3\n      pop\n      pop\n      pop\n      0x20\n      mload(0x40)\n      dup1\n      dup4\n      sub\n      dup2\n      0x00\n      dup8\n      dup1\n      extcodesize\n      iszero\n        /* \"--CODEGEN--\":5:14   */\n      dup1\n        /* \"--CODEGEN--\":2:4   */\n      iszero\n      tag_54\n      jumpi\n        /* \"--CODEGEN--\":27:28   */\n      0x00\n        /* \"--CODEGEN--\":24:25   */\n      dup1\n        /* \"--CODEGEN--\":17:29   */\n      revert\n        /* \"--CODEGEN--\":2:4   */\n    tag_54:\n        /* \"contracts/examples/ExampleFlashSwap.sol\":2435:2482  token.approve(address(exchangeV1), amountToken) */\n      pop\n      gas\n      call\n      iszero\n        /* \"--CODEGEN--\":8:17   */\n      dup1\n        /* \"--CODEGEN--\":5:7   */\n      iszero\n      tag_56\n      jumpi\n        /* \"--CODEGEN--\":45:61   */\n      returndatasize\n        /* \"--CODEGEN--\":42:43   */\n      0x00\n        /* \"--CODEGEN--\":39:40   */\n      dup1\n        /* \"--CODEGEN--\":24:62   */\n      returndatacopy\n        /* \"--CODEGEN--\":77:93   */\n      returndatasize\n        /* \"--CODEGEN--\":74:75   */\n      0x00\n        /* \"--CODEGEN--\":67:94   */\n      revert\n        /* \"--CODEGEN--\":5:7   */\n    tag_56:\n        /* \"contracts/examples/ExampleFlashSwap.sol\":2435:2482  token.approve(address(exchangeV1), amountToken) */\n      pop\n      pop\n      pop\n      pop\n      mload(0x40)\n      returndatasize\n        /* \"--CODEGEN--\":15:17   */\n      0x20\n        /* \"--CODEGEN--\":10:13   */\n      dup2\n        /* \"--CODEGEN--\":7:18   */\n      lt\n        /* \"--CODEGEN--\":4:6   */\n      iszero\n      tag_57\n      jumpi\n        /* \"--CODEGEN--\":31:32   */\n      0x00\n        /* \"--CODEGEN--\":28:29   */\n      dup1\n        /* \"--CODEGEN--\":21:33   */\n      revert\n        /* \"--CODEGEN--\":4:6   */\n    tag_57:\n        /* \"contracts/examples/ExampleFlashSwap.sol\":2435:2482  token.approve(address(exchangeV1), amountToken) */\n      dup2\n      add\n      swap1\n      dup1\n      dup1\n      mload\n      swap1\n      0x20\n      add\n      swap1\n      swap3\n      swap2\n      swap1\n      pop\n      pop\n      pop\n      pop\n        /* \"contracts/examples/ExampleFlashSwap.sol\":2496:2515  uint amountReceived */\n      0x00\n        /* \"contracts/examples/ExampleFlashSwap.sol\":2518:2528  exchangeV1 */\n      dup3\n        /* \"contracts/examples/ExampleFlashSwap.sol\":2518:2548  exchangeV1.tokenToEthSwapInput */\n      0xffffffffffffffffffffffffffffffffffffffff\n      and\n      0x95e3c50b\n        /* \"contracts/examples/ExampleFlashSwap.sol\":2549:2560  amountToken */\n      dup8\n        /* \"contracts/examples/ExampleFlashSwap.sol\":2562:2568  minETH */\n      dup5\n        /* \"contracts/examples/ExampleFlashSwap.sol\":2575:2577  -1 */\n      0xffffffffffffffffffffffffffffffffffffffffffffffffffffffffffffffff\n        /* \"contracts/examples/ExampleFlashSwap.sol\":2518:2579  exchangeV1.tokenToEthSwapInput(amountToken, minETH, uint(-1)) */\n      mload(0x40)\n      dup5\n      0xffffffff\n      and\n      0xe0\n      shl\n      dup2\n      mstore\n      0x04\n      add\n      dup1\n      dup5\n      dup2\n      mstore\n      0x20\n      add\n      dup4\n      dup2\n      mstore\n      0x20\n      add\n      dup3\n      dup2\n      mstore\n      0x20\n      add\n      swap4\n      pop\n      pop\n      pop\n      pop\n      0x20\n      mload(0x40)\n      dup1\n      dup4\n      sub\n      dup2\n      0x00\n      dup8\n      dup1\n      extcodesize\n      iszero\n        /* \"--CODEGEN--\":5:14   */\n      dup1\n        /* \"--CODEGEN--\":2:4   */\n      iszero\n      tag_58\n      jumpi\n        /* \"--CODEGEN--\":27:28   */\n      0x00\n        /* \"--CODEGEN--\":24:25   */\n      dup1\n        /* \"--CODEGEN--\":17:29   */\n      revert\n        /* \"--CODEGEN--\":2:4   */\n    tag_58:\n        /* \"contracts/examples/ExampleFlashSwap.sol\":2518:2579  exchangeV1.tokenToEthSwapInput(amountToken, minETH, uint(-1)) */\n      pop\n      gas\n      call\n      iszero\n        /* \"--CODEGEN--\":8:17   */\n      dup1\n        /* \"--CODEGEN--\":5:7   */\n      iszero\n      tag_60\n      jumpi\n        /* \"--CODEGEN--\":45:61   */\n      returndatasize\n        /* \"--CODEGEN--\":42:43   */\n      0x00\n        /* \"--CODEGEN--\":39:40   */\n      dup1\n        /* \"--CODEGEN--\":24:62   */\n      returndatacopy\n        /* \"--CODEGEN--\":77:93   */\n      returndatasize\n        /* \"--CODEGEN--\":74:75   */\n      0x00\n        /* \"--CODEGEN--\":67:94   */\n      revert\n        /* \"--CODEGEN--\":5:7   */\n    tag_60:\n        /* \"contracts/examples/ExampleFlashSwap.sol\":2518:2579  exchangeV1.tokenToEthSwapInput(amountToken, minETH, uint(-1)) */\n      pop\n      pop\n      pop\n      pop\n      mload(0x40)\n      returndatasize\n        /* \"--CODEGEN--\":15:17   */\n      0x20\n        /* \"--CODEGEN--\":10:13   */\n      dup2\n        /* \"--CODEGEN--\":7:18   */\n      lt\n        /* \"--CODEGEN--\":4:6   */\n      iszero\n      tag_61\n      jumpi\n        /* \"--CODEGEN--\":31:32   */\n      0x00\n        /* \"--CODEGEN--\":28:29   */\n      dup1\n        /* \"--CODEGEN--\":21:33   */\n      revert\n        /* \"--CODEGEN--\":4:6   */\n    tag_61:\n        /* \"contracts/examples/ExampleFlashSwap.sol\":2518:2579  exchangeV1.tokenToEthSwapInput(amountToken, minETH, uint(-1)) */\n      dup2\n      add\n      swap1\n      dup1\n      dup1\n      mload\n      swap1\n      0x20\n      add\n      swap1\n      swap3\n      swap2\n      swap1\n      pop\n      pop\n      pop\n        /* \"contracts/examples/ExampleFlashSwap.sol\":2496:2579  uint amountReceived = exchangeV1.tokenToEthSwapInput(amountToken, minETH, uint(-1)) */\n      swap1\n      pop\n        /* \"contracts/examples/ExampleFlashSwap.sol\":2593:2612  uint amountRequired */\n      0x00\n        /* \"contracts/examples/ExampleFlashSwap.sol\":2615:2673  FiveswapV2Library.getAmountsIn(factory, amountToken, path) */\n      tag_62\n        /* \"contracts/examples/ExampleFlashSwap.sol\":2646:2653  factory */\n      immutable(\"0x5c4c6aa067b6f8e6cb38e6ab843832a94d1712d661a04d73c517d6a1931a9e5d\")\n        /* \"contracts/examples/ExampleFlashSwap.sol\":2655:2666  amountToken */\n      dup9\n        /* \"contracts/examples/ExampleFlashSwap.sol\":2668:2672  path */\n      dup11\n        /* \"contracts/examples/ExampleFlashSwap.sol\":2615:2645  FiveswapV2Library.getAmountsIn */\n      tag_63\n        /* \"contracts/examples/ExampleFlashSwap.sol\":2615:2673  FiveswapV2Library.getAmountsIn(factory, amountToken, path) */\n      jump\t// in\n    tag_62:\n        /* \"contracts/examples/ExampleFlashSwap.sol\":2674:2675  0 */\n      0x00\n        /* \"contracts/examples/ExampleFlashSwap.sol\":2615:2676  FiveswapV2Library.getAmountsIn(factory, amountToken, path)[0] */\n      dup2\n      mload\n      dup2\n      lt\n      tag_64\n      jumpi\n      invalid\n    tag_64:\n      0x20\n      mul\n      0x20\n      add\n      add\n      mload\n        /* \"contracts/examples/ExampleFlashSwap.sol\":2593:2676  uint amountRequired = FiveswapV2Library.getAmountsIn(factory, amountToken, path)[0] */\n      swap1\n      pop\n        /* \"contracts/examples/ExampleFlashSwap.sol\":2714:2728  amountRequired */\n      dup1\n        /* \"contracts/examples/ExampleFlashSwap.sol\":2697:2711  amountReceived */\n      dup3\n        /* \"contracts/examples/ExampleFlashSwap.sol\":2697:2728  amountReceived > amountRequired */\n      gt\n        /* \"contracts/examples/ExampleFlashSwap.sol\":2690:2729  assert(amountReceived > amountRequired) */\n      tag_65\n      jumpi\n      invalid\n    tag_65:\n        /* \"contracts/examples/ExampleFlashSwap.sol\":2808:2812  WETH */\n      immutable(\"0x277ab82e5a4641341820a4a2933a62c1de997e42e92548657ae21b3728d580fe\")\n        /* \"contracts/examples/ExampleFlashSwap.sol\":2808:2820  WETH.deposit */\n      0xffffffffffffffffffffffffffffffffffffffff\n      and\n      0xd0e30db0\n        /* \"contracts/examples/ExampleFlashSwap.sol\":2828:2842  amountRequired */\n      dup3\n        /* \"contracts/examples/ExampleFlashSwap.sol\":2808:2845  WETH.deposit{value: amountRequired}() */\n      mload(0x40)\n      dup3\n      0xffffffff\n      and\n      0xe0\n      shl\n      dup2\n      mstore\n      0x04\n      add\n      0x00\n      mload(0x40)\n      dup1\n      dup4\n      sub\n      dup2\n      dup6\n      dup9\n      dup1\n      extcodesize\n      iszero\n        /* \"--CODEGEN--\":5:14   */\n      dup1\n        /* \"--CODEGEN--\":2:4   */\n      iszero\n      tag_66\n      jumpi\n        /* \"--CODEGEN--\":27:28   */\n      0x00\n        /* \"--CODEGEN--\":24:25   */\n      dup1\n        /* \"--CODEGEN--\":17:29   */\n      revert\n        /* \"--CODEGEN--\":2:4   */\n    tag_66:\n        /* \"contracts/examples/ExampleFlashSwap.sol\":2808:2845  WETH.deposit{value: amountRequired}() */\n      pop\n      gas\n      call\n      iszero\n        /* \"--CODEGEN--\":8:17   */\n      dup1\n        /* \"--CODEGEN--\":5:7   */\n      iszero\n      tag_68\n      jumpi\n        /* \"--CODEGEN--\":45:61   */\n      returndatasize\n        /* \"--CODEGEN--\":42:43   */\n      0x00\n        /* \"--CODEGEN--\":39:40   */\n      dup1\n        /* \"--CODEGEN--\":24:62   */\n      returndatacopy\n        /* \"--CODEGEN--\":77:93   */\n      returndatasize\n        /* \"--CODEGEN--\":74:75   */\n      0x00\n        /* \"--CODEGEN--\":67:94   */\n      revert\n        /* \"--CODEGEN--\":5:7   */\n    tag_68:\n        /* \"contracts/examples/ExampleFlashSwap.sol\":2808:2845  WETH.deposit{value: amountRequired}() */\n      pop\n      pop\n      pop\n      pop\n      pop\n        /* \"contracts/examples/ExampleFlashSwap.sol\":2866:2870  WETH */\n      immutable(\"0x277ab82e5a4641341820a4a2933a62c1de997e42e92548657ae21b3728d580fe\")\n        /* \"contracts/examples/ExampleFlashSwap.sol\":2866:2879  WETH.transfer */\n      0xffffffffffffffffffffffffffffffffffffffff\n      and\n      0xa9059cbb\n        /* \"contracts/examples/ExampleFlashSwap.sol\":2880:2890  msg.sender */\n      caller\n        /* \"contracts/examples/ExampleFlashSwap.sol\":2892:2906  amountRequired */\n      dup4\n        /* \"contracts/examples/ExampleFlashSwap.sol\":2866:2907  WETH.transfer(msg.sender, amountRequired) */\n      mload(0x40)\n      dup4\n      0xffffffff\n      and\n      0xe0\n      shl\n      dup2\n      mstore\n      0x04\n      add\n      dup1\n      dup4\n      0xffffffffffffffffffffffffffffffffffffffff\n      and\n      0xffffffffffffffffffffffffffffffffffffffff\n      and\n      dup2\n      mstore\n      0x20\n      add\n      dup3\n      dup2\n      mstore\n      0x20\n      add\n      swap3\n      pop\n      pop\n      pop\n      0x20\n      mload(0x40)\n      dup1\n      dup4\n      sub\n      dup2\n      0x00\n      dup8\n      dup1\n      extcodesize\n      iszero\n        /* \"--CODEGEN--\":5:14   */\n      dup1\n        /* \"--CODEGEN--\":2:4   */\n      iszero\n      tag_69\n      jumpi\n        /* \"--CODEGEN--\":27:28   */\n      0x00\n        /* \"--CODEGEN--\":24:25   */\n      dup1\n        /* \"--CODEGEN--\":17:29   */\n      revert\n        /* \"--CODEGEN--\":2:4   */\n    tag_69:\n        /* \"contracts/examples/ExampleFlashSwap.sol\":2866:2907  WETH.transfer(msg.sender, amountRequired) */\n      pop\n      gas\n      call\n      iszero\n        /* \"--CODEGEN--\":8:17   */\n      dup1\n        /* \"--CODEGEN--\":5:7   */\n      iszero\n      tag_71\n      jumpi\n        /* \"--CODEGEN--\":45:61   */\n      returndatasize\n        /* \"--CODEGEN--\":42:43   */\n      0x00\n        /* \"--CODEGEN--\":39:40   */\n      dup1\n        /* \"--CODEGEN--\":24:62   */\n      returndatacopy\n        /* \"--CODEGEN--\":77:93   */\n      returndatasize\n        /* \"--CODEGEN--\":74:75   */\n      0x00\n        /* \"--CODEGEN--\":67:94   */\n      revert\n        /* \"--CODEGEN--\":5:7   */\n    tag_71:\n        /* \"contracts/examples/ExampleFlashSwap.sol\":2866:2907  WETH.transfer(msg.sender, amountRequired) */\n      pop\n      pop\n      pop\n      pop\n      mload(0x40)\n      returndatasize\n        /* \"--CODEGEN--\":15:17   */\n      0x20\n        /* \"--CODEGEN--\":10:13   */\n      dup2\n        /* \"--CODEGEN--\":7:18   */\n      lt\n        /* \"--CODEGEN--\":4:6   */\n      iszero\n      tag_72\n      jumpi\n        /* \"--CODEGEN--\":31:32   */\n      0x00\n        /* \"--CODEGEN--\":28:29   */\n      dup1\n        /* \"--CODEGEN--\":21:33   */\n      revert\n        /* \"--CODEGEN--\":4:6   */\n    tag_72:\n        /* \"contracts/examples/ExampleFlashSwap.sol\":2866:2907  WETH.transfer(msg.sender, amountRequired) */\n      dup2\n      add\n      swap1\n      dup1\n      dup1\n      mload\n      swap1\n      0x20\n      add\n      swap1\n      swap3\n      swap2\n      swap1\n      pop\n      pop\n      pop\n        /* \"contracts/examples/ExampleFlashSwap.sol\":2859:2908  assert(WETH.transfer(msg.sender, amountRequired)) */\n      tag_73\n      jumpi\n      invalid\n    tag_73:\n        /* \"contracts/examples/ExampleFlashSwap.sol\":2949:2961  bool success */\n      0x00\n        /* \"contracts/examples/ExampleFlashSwap.sol\":2966:2972  sender */\n      dup14\n        /* \"contracts/examples/ExampleFlashSwap.sol\":2966:2977  sender.call */\n      0xffffffffffffffffffffffffffffffffffffffff\n      and\n        /* \"contracts/examples/ExampleFlashSwap.sol\":3002:3016  amountRequired */\n      dup3\n        /* \"contracts/examples/ExampleFlashSwap.sol\":2985:2999  amountReceived */\n      dup5\n        /* \"contracts/examples/ExampleFlashSwap.sol\":2985:3016  amountReceived - amountRequired */\n      sub\n        /* \"contracts/examples/ExampleFlashSwap.sol\":3028:3029  0 */\n      0x00\n        /* \"contracts/examples/ExampleFlashSwap.sol\":3018:3030  new bytes(0) */\n      0xffffffffffffffff\n      dup2\n      gt\n        /* \"--CODEGEN--\":5:14   */\n      dup1\n        /* \"--CODEGEN--\":2:4   */\n      iszero\n      tag_74\n      jumpi\n        /* \"--CODEGEN--\":27:28   */\n      0x00\n        /* \"--CODEGEN--\":24:25   */\n      dup1\n        /* \"--CODEGEN--\":17:29   */\n      revert\n        /* \"--CODEGEN--\":2:4   */\n    tag_74:\n        /* \"contracts/examples/ExampleFlashSwap.sol\":3018:3030  new bytes(0) */\n      pop\n      mload(0x40)\n      swap1\n      dup1\n      dup3\n      mstore\n      dup1\n      0x1f\n      add\n      not(0x1f)\n      and\n      0x20\n      add\n      dup3\n      add\n      0x40\n      mstore\n      dup1\n      iszero\n      tag_75\n      jumpi\n      dup2\n      0x20\n      add\n        /* \"--CODEGEN--\":29:30   */\n      0x01\n        /* \"--CODEGEN--\":21:27   */\n      dup3\n        /* \"--CODEGEN--\":17:31   */\n      mul\n        /* \"--CODEGEN--\":124:128   */\n      dup1\n        /* \"--CODEGEN--\":108:122   */\n      calldatasize\n        /* \"--CODEGEN--\":100:106   */\n      dup4\n        /* \"--CODEGEN--\":87:129   */\n      calldatacopy\n        /* \"--CODEGEN--\":155:159   */\n      dup1\n        /* \"--CODEGEN--\":147:153   */\n      dup3\n        /* \"--CODEGEN--\":143:160   */\n      add\n        /* \"--CODEGEN--\":133:160   */\n      swap2\n      pop\n        /* \"--CODEGEN--\":0:164   */\n      pop\n        /* \"contracts/examples/ExampleFlashSwap.sol\":3018:3030  new bytes(0) */\n      swap1\n      pop\n    tag_75:\n      pop\n        /* \"contracts/examples/ExampleFlashSwap.sol\":2966:3031  sender.call{value: amountReceived - amountRequired}(new bytes(0)) */\n      mload(0x40)\n      dup1\n      dup3\n      dup1\n      mload\n      swap1\n      0x20\n      add\n      swap1\n      dup1\n      dup4\n      dup4\n        /* \"--CODEGEN--\":36:189   */\n    tag_76:\n        /* \"--CODEGEN--\":66:68   */\n      0x20\n        /* \"--CODEGEN--\":61:64   */\n      dup4\n        /* \"--CODEGEN--\":58:69   */\n      lt\n        /* \"--CODEGEN--\":36:189   */\n      tag_78\n      jumpi\n        /* \"--CODEGEN--\":182:185   */\n      dup1\n        /* \"--CODEGEN--\":176:186   */\n      mload\n        /* \"--CODEGEN--\":171:174   */\n      dup3\n        /* \"--CODEGEN--\":164:187   */\n      mstore\n        /* \"--CODEGEN--\":98:100   */\n      0x20\n        /* \"--CODEGEN--\":93:96   */\n      dup3\n        /* \"--CODEGEN--\":89:101   */\n      add\n        /* \"--CODEGEN--\":82:101   */\n      swap2\n      pop\n        /* \"--CODEGEN--\":123:125   */\n      0x20\n        /* \"--CODEGEN--\":118:121   */\n      dup2\n        /* \"--CODEGEN--\":114:126   */\n      add\n        /* \"--CODEGEN--\":107:126   */\n      swap1\n      pop\n        /* \"--CODEGEN--\":148:150   */\n      0x20\n        /* \"--CODEGEN--\":143:146   */\n      dup4\n        /* \"--CODEGEN--\":139:151   */\n      sub\n        /* \"--CODEGEN--\":132:151   */\n      swap3\n      pop\n        /* \"--CODEGEN--\":36:189   */\n      jump(tag_76)\n    tag_78:\n        /* \"--CODEGEN--\":274:275   */\n      0x01\n        /* \"--CODEGEN--\":267:270   */\n      dup4\n        /* \"--CODEGEN--\":263:265   */\n      0x20\n        /* \"--CODEGEN--\":259:271   */\n      sub\n        /* \"--CODEGEN--\":254:257   */\n      0x0100\n        /* \"--CODEGEN--\":250:272   */\n      exp\n        /* \"--CODEGEN--\":246:276   */\n      sub\n        /* \"--CODEGEN--\":315:319   */\n      dup1\n        /* \"--CODEGEN--\":311:320   */\n      not\n        /* \"--CODEGEN--\":305:308   */\n      dup3\n        /* \"--CODEGEN--\":299:309   */\n      mload\n        /* \"--CODEGEN--\":295:321   */\n      and\n        /* \"--CODEGEN--\":356:360   */\n      dup2\n        /* \"--CODEGEN--\":350:353   */\n      dup5\n        /* \"--CODEGEN--\":344:354   */\n      mload\n        /* \"--CODEGEN--\":340:361   */\n      and\n        /* \"--CODEGEN--\":389:396   */\n      dup1\n        /* \"--CODEGEN--\":380:387   */\n      dup3\n        /* \"--CODEGEN--\":377:397   */\n      or\n        /* \"--CODEGEN--\":372:375   */\n      dup6\n        /* \"--CODEGEN--\":365:398   */\n      mstore\n        /* \"--CODEGEN--\":3:402   */\n      pop\n      pop\n      pop\n        /* \"contracts/examples/ExampleFlashSwap.sol\":2966:3031  sender.call{value: amountReceived - amountRequired}(new bytes(0)) */\n      pop\n      pop\n      pop\n      swap1\n      pop\n      add\n      swap2\n      pop\n      pop\n      0x00\n      mload(0x40)\n      dup1\n      dup4\n      sub\n      dup2\n      dup6\n      dup8\n      gas\n      call\n      swap3\n      pop\n      pop\n      pop\n      returndatasize\n        /* \"--CODEGEN--\":12:13   */\n      dup1\n        /* \"--CODEGEN--\":19:20   */\n      0x00\n        /* \"--CODEGEN--\":14:41   */\n      dup2\n      eq\n      tag_81\n      jumpi\n        /* \"--CODEGEN--\":67:71   */\n      0x40\n        /* \"--CODEGEN--\":61:72   */\n      mload\n        /* \"--CODEGEN--\":56:72   */\n      swap2\n      pop\n        /* \"--CODEGEN--\":134:138   */\n      0x1f\n        /* \"--CODEGEN--\":130:139   */\n      not\n        /* \"--CODEGEN--\":123:127   */\n      0x3f\n        /* \"--CODEGEN--\":105:121   */\n      returndatasize\n        /* \"--CODEGEN--\":101:128   */\n      add\n        /* \"--CODEGEN--\":97:140   */\n      and\n        /* \"--CODEGEN--\":94:95   */\n      dup3\n        /* \"--CODEGEN--\":90:141   */\n      add\n        /* \"--CODEGEN--\":84:88   */\n      0x40\n        /* \"--CODEGEN--\":77:142   */\n      mstore\n        /* \"--CODEGEN--\":157:173   */\n      returndatasize\n        /* \"--CODEGEN--\":154:155   */\n      dup3\n        /* \"--CODEGEN--\":147:174   */\n      mstore\n        /* \"--CODEGEN--\":211:227   */\n      returndatasize\n        /* \"--CODEGEN--\":208:209   */\n      0x00\n        /* \"--CODEGEN--\":201:205   */\n      0x20\n        /* \"--CODEGEN--\":198:199   */\n      dup5\n        /* \"--CODEGEN--\":194:206   */\n      add\n        /* \"--CODEGEN--\":179:228   */\n      returndatacopy\n        /* \"--CODEGEN--\":5:233   */\n      jump(tag_80)\n        /* \"--CODEGEN--\":14:41   */\n    tag_81:\n        /* \"--CODEGEN--\":32:36   */\n      0x60\n        /* \"--CODEGEN--\":27:36   */\n      swap2\n      pop\n        /* \"--CODEGEN--\":5:233   */\n    tag_80:\n      pop\n        /* \"contracts/examples/ExampleFlashSwap.sol\":2948:3031  (bool success,) = sender.call{value: amountReceived - amountRequired}(new bytes(0)) */\n      pop\n      swap1\n      pop\n        /* \"contracts/examples/ExampleFlashSwap.sol\":3076:3083  success */\n      dup1\n        /* \"contracts/examples/ExampleFlashSwap.sol\":3069:3084  assert(success) */\n      tag_82\n      jumpi\n      invalid\n    tag_82:\n        /* \"contracts/examples/ExampleFlashSwap.sol\":2296:3774  if (amountToken > 0) {... */\n      pop\n      pop\n      pop\n      pop\n      jump(tag_83)\n    tag_52:\n        /* \"contracts/examples/ExampleFlashSwap.sol\":3116:3130  uint minTokens */\n      0x00\n        /* \"contracts/examples/ExampleFlashSwap.sol\":3145:3149  data */\n      dup8\n      dup8\n        /* \"--CODEGEN--\":15:17   */\n      0x20\n        /* \"--CODEGEN--\":10:13   */\n      dup2\n        /* \"--CODEGEN--\":7:18   */\n      lt\n        /* \"--CODEGEN--\":4:6   */\n      iszero\n      tag_84\n      jumpi\n        /* \"--CODEGEN--\":31:32   */\n      0x00\n        /* \"--CODEGEN--\":28:29   */\n      dup1\n        /* \"--CODEGEN--\":21:33   */\n      revert\n        /* \"--CODEGEN--\":4:6   */\n    tag_84:\n        /* \"contracts/examples/ExampleFlashSwap.sol\":3134:3158  abi.decode(data, (uint)) */\n      dup2\n      add\n      swap1\n      dup1\n      dup1\n      calldataload\n      swap1\n      0x20\n      add\n      swap1\n      swap3\n      swap2\n      swap1\n      pop\n      pop\n      pop\n        /* \"contracts/examples/ExampleFlashSwap.sol\":3115:3158  (uint minTokens) = abi.decode(data, (uint)) */\n      swap1\n      pop\n        /* \"contracts/examples/ExampleFlashSwap.sol\":3222:3226  WETH */\n      immutable(\"0x277ab82e5a4641341820a4a2933a62c1de997e42e92548657ae21b3728d580fe\")\n        /* \"contracts/examples/ExampleFlashSwap.sol\":3222:3235  WETH.withdraw */\n      0xffffffffffffffffffffffffffffffffffffffff\n      and\n      0x2e1a7d4d\n        /* \"contracts/examples/ExampleFlashSwap.sol\":3236:3245  amountETH */\n      dup6\n        /* \"contracts/examples/ExampleFlashSwap.sol\":3222:3246  WETH.withdraw(amountETH) */\n      mload(0x40)\n      dup3\n      0xffffffff\n      and\n      0xe0\n      shl\n      dup2\n      mstore\n      0x04\n      add\n      dup1\n      dup3\n      dup2\n      mstore\n      0x20\n      add\n      swap2\n      pop\n      pop\n      0x00\n      mload(0x40)\n      dup1\n      dup4\n      sub\n      dup2\n      0x00\n      dup8\n      dup1\n      extcodesize\n      iszero\n        /* \"--CODEGEN--\":5:14   */\n      dup1\n        /* \"--CODEGEN--\":2:4   */\n      iszero\n      tag_85\n      jumpi\n        /* \"--CODEGEN--\":27:28   */\n      0x00\n        /* \"--CODEGEN--\":24:25   */\n      dup1\n        /* \"--CODEGEN--\":17:29   */\n      revert\n        /* \"--CODEGEN--\":2:4   */\n    tag_85:\n        /* \"contracts/examples/ExampleFlashSwap.sol\":3222:3246  WETH.withdraw(amountETH) */\n      pop\n      gas\n      call\n      iszero\n        /* \"--CODEGEN--\":8:17   */\n      dup1\n        /* \"--CODEGEN--\":5:7   */\n      iszero\n      tag_87\n      jumpi\n        /* \"--CODEGEN--\":45:61   */\n      returndatasize\n        /* \"--CODEGEN--\":42:43   */\n      0x00\n        /* \"--CODEGEN--\":39:40   */\n      dup1\n        /* \"--CODEGEN--\":24:62   */\n      returndatacopy\n        /* \"--CODEGEN--\":77:93   */\n      returndatasize\n        /* \"--CODEGEN--\":74:75   */\n      0x00\n        /* \"--CODEGEN--\":67:94   */\n      revert\n        /* \"--CODEGEN--\":5:7   */\n    tag_87:\n        /* \"contracts/examples/ExampleFlashSwap.sol\":3222:3246  WETH.withdraw(amountETH) */\n      pop\n      pop\n      pop\n      pop\n        /* \"contracts/examples/ExampleFlashSwap.sol\":3260:3279  uint amountReceived */\n      0x00\n        /* \"contracts/examples/ExampleFlashSwap.sol\":3282:3292  exchangeV1 */\n      dup3\n        /* \"contracts/examples/ExampleFlashSwap.sol\":3282:3312  exchangeV1.ethToTokenSwapInput */\n      0xffffffffffffffffffffffffffffffffffffffff\n      and\n      0xf39b5b9b\n        /* \"contracts/examples/ExampleFlashSwap.sol\":3320:3329  amountETH */\n      dup7\n        /* \"contracts/examples/ExampleFlashSwap.sol\":3331:3340  minTokens */\n      dup5\n        /* \"contracts/examples/ExampleFlashSwap.sol\":3347:3349  -1 */\n      0xffffffffffffffffffffffffffffffffffffffffffffffffffffffffffffffff\n        /* \"contracts/examples/ExampleFlashSwap.sol\":3282:3351  exchangeV1.ethToTokenSwapInput{value: amountETH}(minTokens, uint(-1)) */\n      mload(0x40)\n      dup5\n      0xffffffff\n      and\n      0xe0\n      shl\n      dup2\n      mstore\n      0x04\n      add\n      dup1\n      dup4\n      dup2\n      mstore\n      0x20\n      add\n      dup3\n      dup2\n      mstore\n      0x20\n      add\n      swap3\n      pop\n      pop\n      pop\n      0x20\n      mload(0x40)\n      dup1\n      dup4\n      sub\n      dup2\n      dup6\n      dup9\n      dup1\n      extcodesize\n      iszero\n        /* \"--CODEGEN--\":5:14   */\n      dup1\n        /* \"--CODEGEN--\":2:4   */\n      iszero\n      tag_88\n      jumpi\n        /* \"--CODEGEN--\":27:28   */\n      0x00\n        /* \"--CODEGEN--\":24:25   */\n      dup1\n        /* \"--CODEGEN--\":17:29   */\n      revert\n        /* \"--CODEGEN--\":2:4   */\n    tag_88:\n        /* \"contracts/examples/ExampleFlashSwap.sol\":3282:3351  exchangeV1.ethToTokenSwapInput{value: amountETH}(minTokens, uint(-1)) */\n      pop\n      gas\n      call\n      iszero\n        /* \"--CODEGEN--\":8:17   */\n      dup1\n        /* \"--CODEGEN--\":5:7   */\n      iszero\n      tag_90\n      jumpi\n        /* \"--CODEGEN--\":45:61   */\n      returndatasize\n        /* \"--CODEGEN--\":42:43   */\n      0x00\n        /* \"--CODEGEN--\":39:40   */\n      dup1\n        /* \"--CODEGEN--\":24:62   */\n      returndatacopy\n        /* \"--CODEGEN--\":77:93   */\n      returndatasize\n        /* \"--CODEGEN--\":74:75   */\n      0x00\n        /* \"--CODEGEN--\":67:94   */\n      revert\n        /* \"--CODEGEN--\":5:7   */\n    tag_90:\n        /* \"contracts/examples/ExampleFlashSwap.sol\":3282:3351  exchangeV1.ethToTokenSwapInput{value: amountETH}(minTokens, uint(-1)) */\n      pop\n      pop\n      pop\n      pop\n      pop\n      mload(0x40)\n      returndatasize\n        /* \"--CODEGEN--\":15:17   */\n      0x20\n        /* \"--CODEGEN--\":10:13   */\n      dup2\n        /* \"--CODEGEN--\":7:18   */\n      lt\n        /* \"--CODEGEN--\":4:6   */\n      iszero\n      tag_91\n      jumpi\n        /* \"--CODEGEN--\":31:32   */\n      0x00\n        /* \"--CODEGEN--\":28:29   */\n      dup1\n        /* \"--CODEGEN--\":21:33   */\n      revert\n        /* \"--CODEGEN--\":4:6   */\n    tag_91:\n        /* \"contracts/examples/ExampleFlashSwap.sol\":3282:3351  exchangeV1.ethToTokenSwapInput{value: amountETH}(minTokens, uint(-1)) */\n      dup2\n      add\n      swap1\n      dup1\n      dup1\n      mload\n      swap1\n      0x20\n      add\n      swap1\n      swap3\n      swap2\n      swap1\n      pop\n      pop\n      pop\n        /* \"contracts/examples/ExampleFlashSwap.sol\":3260:3351  uint amountReceived = exchangeV1.ethToTokenSwapInput{value: amountETH}(minTokens, uint(-1)) */\n      swap1\n      pop\n        /* \"contracts/examples/ExampleFlashSwap.sol\":3365:3384  uint amountRequired */\n      0x00\n        /* \"contracts/examples/ExampleFlashSwap.sol\":3387:3443  FiveswapV2Library.getAmountsIn(factory, amountETH, path) */\n      tag_92\n        /* \"contracts/examples/ExampleFlashSwap.sol\":3418:3425  factory */\n      immutable(\"0x5c4c6aa067b6f8e6cb38e6ab843832a94d1712d661a04d73c517d6a1931a9e5d\")\n        /* \"contracts/examples/ExampleFlashSwap.sol\":3427:3436  amountETH */\n      dup8\n        /* \"contracts/examples/ExampleFlashSwap.sol\":3438:3442  path */\n      dup11\n        /* \"contracts/examples/ExampleFlashSwap.sol\":3387:3417  FiveswapV2Library.getAmountsIn */\n      tag_63\n        /* \"contracts/examples/ExampleFlashSwap.sol\":3387:3443  FiveswapV2Library.getAmountsIn(factory, amountETH, path) */\n      jump\t// in\n    tag_92:\n        /* \"contracts/examples/ExampleFlashSwap.sol\":3444:3445  0 */\n      0x00\n        /* \"contracts/examples/ExampleFlashSwap.sol\":3387:3446  FiveswapV2Library.getAmountsIn(factory, amountETH, path)[0] */\n      dup2\n      mload\n      dup2\n      lt\n      tag_93\n      jumpi\n      invalid\n    tag_93:\n      0x20\n      mul\n      0x20\n      add\n      add\n      mload\n        /* \"contracts/examples/ExampleFlashSwap.sol\":3365:3446  uint amountRequired = FiveswapV2Library.getAmountsIn(factory, amountETH, path)[0] */\n      swap1\n      pop\n        /* \"contracts/examples/ExampleFlashSwap.sol\":3484:3498  amountRequired */\n      dup1\n        /* \"contracts/examples/ExampleFlashSwap.sol\":3467:3481  amountReceived */\n      dup3\n        /* \"contracts/examples/ExampleFlashSwap.sol\":3467:3498  amountReceived > amountRequired */\n      gt\n        /* \"contracts/examples/ExampleFlashSwap.sol\":3460:3499  assert(amountReceived > amountRequired) */\n      tag_94\n      jumpi\n      invalid\n    tag_94:\n        /* \"contracts/examples/ExampleFlashSwap.sol\":3588:3593  token */\n      dup5\n        /* \"contracts/examples/ExampleFlashSwap.sol\":3588:3602  token.transfer */\n      0xffffffffffffffffffffffffffffffffffffffff\n      and\n      0xa9059cbb\n        /* \"contracts/examples/ExampleFlashSwap.sol\":3603:3613  msg.sender */\n      caller\n        /* \"contracts/examples/ExampleFlashSwap.sol\":3615:3629  amountRequired */\n      dup4\n        /* \"contracts/examples/ExampleFlashSwap.sol\":3588:3630  token.transfer(msg.sender, amountRequired) */\n      mload(0x40)\n      dup4\n      0xffffffff\n      and\n      0xe0\n      shl\n      dup2\n      mstore\n      0x04\n      add\n      dup1\n      dup4\n      0xffffffffffffffffffffffffffffffffffffffff\n      and\n      0xffffffffffffffffffffffffffffffffffffffff\n      and\n      dup2\n      mstore\n      0x20\n      add\n      dup3\n      dup2\n      mstore\n      0x20\n      add\n      swap3\n      pop\n      pop\n      pop\n      0x20\n      mload(0x40)\n      dup1\n      dup4\n      sub\n      dup2\n      0x00\n      dup8\n      dup1\n      extcodesize\n      iszero\n        /* \"--CODEGEN--\":5:14   */\n      dup1\n        /* \"--CODEGEN--\":2:4   */\n      iszero\n      tag_95\n      jumpi\n        /* \"--CODEGEN--\":27:28   */\n      0x00\n        /* \"--CODEGEN--\":24:25   */\n      dup1\n        /* \"--CODEGEN--\":17:29   */\n      revert\n        /* \"--CODEGEN--\":2:4   */\n    tag_95:\n        /* \"contracts/examples/ExampleFlashSwap.sol\":3588:3630  token.transfer(msg.sender, amountRequired) */\n      pop\n      gas\n      call\n      iszero\n        /* \"--CODEGEN--\":8:17   */\n      dup1\n        /* \"--CODEGEN--\":5:7   */\n      iszero\n      tag_97\n      jumpi\n        /* \"--CODEGEN--\":45:61   */\n      returndatasize\n        /* \"--CODEGEN--\":42:43   */\n      0x00\n        /* \"--CODEGEN--\":39:40   */\n      dup1\n        /* \"--CODEGEN--\":24:62   */\n      returndatacopy\n        /* \"--CODEGEN--\":77:93   */\n      returndatasize\n        /* \"--CODEGEN--\":74:75   */\n      0x00\n        /* \"--CODEGEN--\":67:94   */\n      revert\n        /* \"--CODEGEN--\":5:7   */\n    tag_97:\n        /* \"contracts/examples/ExampleFlashSwap.sol\":3588:3630  token.transfer(msg.sender, amountRequired) */\n      pop\n      pop\n      pop\n      pop\n      mload(0x40)\n      returndatasize\n        /* \"--CODEGEN--\":15:17   */\n      0x20\n        /* \"--CODEGEN--\":10:13   */\n      dup2\n        /* \"--CODEGEN--\":7:18   */\n      lt\n        /* \"--CODEGEN--\":4:6   */\n      iszero\n      tag_98\n      jumpi\n        /* \"--CODEGEN--\":31:32   */\n      0x00\n        /* \"--CODEGEN--\":28:29   */\n      dup1\n        /* \"--CODEGEN--\":21:33   */\n      revert\n        /* \"--CODEGEN--\":4:6   */\n    tag_98:\n        /* \"contracts/examples/ExampleFlashSwap.sol\":3588:3630  token.transfer(msg.sender, amountRequired) */\n      dup2\n      add\n      swap1\n      dup1\n      dup1\n      mload\n      swap1\n      0x20\n      add\n      swap1\n      swap3\n      swap2\n      swap1\n      pop\n      pop\n      pop\n        /* \"contracts/examples/ExampleFlashSwap.sol\":3581:3631  assert(token.transfer(msg.sender, amountRequired)) */\n      tag_99\n      jumpi\n      invalid\n    tag_99:\n        /* \"contracts/examples/ExampleFlashSwap.sol\":3680:3685  token */\n      dup5\n        /* \"contracts/examples/ExampleFlashSwap.sol\":3680:3694  token.transfer */\n      0xffffffffffffffffffffffffffffffffffffffff\n      and\n      0xa9059cbb\n        /* \"contracts/examples/ExampleFlashSwap.sol\":3695:3701  sender */\n      dup15\n        /* \"contracts/examples/ExampleFlashSwap.sol\":3720:3734  amountRequired */\n      dup4\n        /* \"contracts/examples/ExampleFlashSwap.sol\":3703:3717  amountReceived */\n      dup6\n        /* \"contracts/examples/ExampleFlashSwap.sol\":3703:3734  amountReceived - amountRequired */\n      sub\n        /* \"contracts/examples/ExampleFlashSwap.sol\":3680:3735  token.transfer(sender, amountReceived - amountRequired) */\n      mload(0x40)\n      dup4\n      0xffffffff\n      and\n      0xe0\n      shl\n      dup2\n      mstore\n      0x04\n      add\n      dup1\n      dup4\n      0xffffffffffffffffffffffffffffffffffffffff\n      and\n      0xffffffffffffffffffffffffffffffffffffffff\n      and\n      dup2\n      mstore\n      0x20\n      add\n      dup3\n      dup2\n      mstore\n      0x20\n      add\n      swap3\n      pop\n      pop\n      pop\n      0x20\n      mload(0x40)\n      dup1\n      dup4\n      sub\n      dup2\n      0x00\n      dup8\n      dup1\n      extcodesize\n      iszero\n        /* \"--CODEGEN--\":5:14   */\n      dup1\n        /* \"--CODEGEN--\":2:4   */\n      iszero\n      tag_100\n      jumpi\n        /* \"--CODEGEN--\":27:28   */\n      0x00\n        /* \"--CODEGEN--\":24:25   */\n      dup1\n        /* \"--CODEGEN--\":17:29   */\n      revert\n        /* \"--CODEGEN--\":2:4   */\n    tag_100:\n        /* \"contracts/examples/ExampleFlashSwap.sol\":3680:3735  token.transfer(sender, amountReceived - amountRequired) */\n      pop\n      gas\n      call\n      iszero\n        /* \"--CODEGEN--\":8:17   */\n      dup1\n        /* \"--CODEGEN--\":5:7   */\n      iszero\n      tag_102\n      jumpi\n        /* \"--CODEGEN--\":45:61   */\n      returndatasize\n        /* \"--CODEGEN--\":42:43   */\n      0x00\n        /* \"--CODEGEN--\":39:40   */\n      dup1\n        /* \"--CODEGEN--\":24:62   */\n      returndatacopy\n        /* \"--CODEGEN--\":77:93   */\n      returndatasize\n        /* \"--CODEGEN--\":74:75   */\n      0x00\n        /* \"--CODEGEN--\":67:94   */\n      revert\n        /* \"--CODEGEN--\":5:7   */\n    tag_102:\n        /* \"contracts/examples/ExampleFlashSwap.sol\":3680:3735  token.transfer(sender, amountReceived - amountRequired) */\n      pop\n      pop\n      pop\n      pop\n      mload(0x40)\n      returndatasize\n        /* \"--CODEGEN--\":15:17   */\n      0x20\n        /* \"--CODEGEN--\":10:13   */\n      dup2\n        /* \"--CODEGEN--\":7:18   */\n      lt\n        /* \"--CODEGEN--\":4:6   */\n      iszero\n      tag_103\n      jumpi\n        /* \"--CODEGEN--\":31:32   */\n      0x00\n        /* \"--CODEGEN--\":28:29   */\n      dup1\n        /* \"--CODEGEN--\":21:33   */\n      revert\n        /* \"--CODEGEN--\":4:6   */\n    tag_103:\n        /* \"contracts/examples/ExampleFlashSwap.sol\":3680:3735  token.transfer(sender, amountReceived - amountRequired) */\n      dup2\n      add\n      swap1\n      dup1\n      dup1\n      mload\n      swap1\n      0x20\n      add\n      swap1\n      swap3\n      swap2\n      swap1\n      pop\n      pop\n      pop\n        /* \"contracts/examples/ExampleFlashSwap.sol\":3673:3736  assert(token.transfer(sender, amountReceived - amountRequired)) */\n      tag_104\n      jumpi\n      invalid\n    tag_104:\n        /* \"contracts/examples/ExampleFlashSwap.sol\":2296:3774  if (amountToken > 0) {... */\n      pop\n      pop\n      pop\n    tag_83:\n        /* \"contracts/examples/ExampleFlashSwap.sol\":1119:3780  function FiveswapV2Call(address sender, uint amount0, uint amount1, bytes calldata data) external override {... */\n      pop\n      pop\n      pop\n      pop\n      pop\n      pop\n      pop\n      pop\n      pop\n      pop\n      jump\t// out\n        /* \"contracts/libraries/FiveswapV2Library.sol\":846:1316  function pairFor(address factory, address tokenA, address tokenB) internal pure returns (address pair) {... */\n    tag_25:\n        /* \"contracts/libraries/FiveswapV2Library.sol\":935:947  address pair */\n      0x00\n        /* \"contracts/libraries/FiveswapV2Library.sol\":960:974  address token0 */\n      dup1\n        /* \"contracts/libraries/FiveswapV2Library.sol\":976:990  address token1 */\n      0x00\n        /* \"contracts/libraries/FiveswapV2Library.sol\":994:1020  sortTokens(tokenA, tokenB) */\n      tag_106\n        /* \"contracts/libraries/FiveswapV2Library.sol\":1005:1011  tokenA */\n      dup6\n        /* \"contracts/libraries/FiveswapV2Library.sol\":1013:1019  tokenB */\n      dup6\n        /* \"contracts/libraries/FiveswapV2Library.sol\":994:1004  sortTokens */\n      tag_107\n        /* \"contracts/libraries/FiveswapV2Library.sol\":994:1020  sortTokens(tokenA, tokenB) */\n      jump\t// in\n    tag_106:\n        /* \"contracts/libraries/FiveswapV2Library.sol\":959:1020  (address token0, address token1) = sortTokens(tokenA, tokenB) */\n      swap2\n      pop\n      swap2\n      pop\n        /* \"contracts/libraries/FiveswapV2Library.sol\":1119:1126  factory */\n      dup6\n        /* \"contracts/libraries/FiveswapV2Library.sol\":1171:1177  token0 */\n      dup3\n        /* \"contracts/libraries/FiveswapV2Library.sol\":1179:1185  token1 */\n      dup3\n        /* \"contracts/libraries/FiveswapV2Library.sol\":1154:1186  abi.encodePacked(token0, token1) */\n      add(0x20, mload(0x40))\n      dup1\n      dup4\n      0xffffffffffffffffffffffffffffffffffffffff\n      and\n      0xffffffffffffffffffffffffffffffffffffffff\n      and\n      0x60\n      shl\n      dup2\n      mstore\n      0x14\n      add\n      dup3\n      0xffffffffffffffffffffffffffffffffffffffff\n      and\n      0xffffffffffffffffffffffffffffffffffffffff\n      and\n      0x60\n      shl\n      dup2\n      mstore\n      0x14\n      add\n      swap3\n      pop\n      pop\n      pop\n      mload(0x40)\n        /* \"--CODEGEN--\":49:53   */\n      0x20\n        /* \"--CODEGEN--\":39:46   */\n      dup2\n        /* \"--CODEGEN--\":30:37   */\n      dup4\n        /* \"--CODEGEN--\":26:47   */\n      sub\n        /* \"--CODEGEN--\":22:54   */\n      sub\n        /* \"--CODEGEN--\":13:20   */\n      dup2\n        /* \"--CODEGEN--\":6:55   */\n      mstore\n        /* \"contracts/libraries/FiveswapV2Library.sol\":1154:1186  abi.encodePacked(token0, token1) */\n      swap1\n      0x40\n      mstore\n        /* \"contracts/libraries/FiveswapV2Library.sol\":1144:1187  keccak256(abi.encodePacked(token0, token1)) */\n      dup1\n      mload\n      swap1\n      0x20\n      add\n      keccak256\n        /* \"contracts/libraries/FiveswapV2Library.sol\":1060:1306  abi.encodePacked(... */\n      add(0x20, mload(0x40))\n      dup1\n      dup1\n      0xff00000000000000000000000000000000000000000000000000000000000000\n      dup2\n      mstore\n      pop\n      0x01\n      add\n      dup4\n      0xffffffffffffffffffffffffffffffffffffffff\n      and\n      0xffffffffffffffffffffffffffffffffffffffff\n      and\n      0x60\n      shl\n      dup2\n      mstore\n      0x14\n      add\n      dup3\n      dup2\n      mstore\n      0x20\n      add\n      dup1\n      0x7a258225ea5f60ea5007f427edc018ed9176fc900d6d15b23aebe809d95bbb36\n      dup2\n      mstore\n      pop\n      0x20\n      add\n      swap3\n      pop\n      pop\n      pop\n      mload(0x40)\n        /* \"--CODEGEN--\":49:53   */\n      0x20\n        /* \"--CODEGEN--\":39:46   */\n      dup2\n        /* \"--CODEGEN--\":30:37   */\n      dup4\n        /* \"--CODEGEN--\":26:47   */\n      sub\n        /* \"--CODEGEN--\":22:54   */\n      sub\n        /* \"--CODEGEN--\":13:20   */\n      dup2\n        /* \"--CODEGEN--\":6:55   */\n      mstore\n        /* \"contracts/libraries/FiveswapV2Library.sol\":1060:1306  abi.encodePacked(... */\n      swap1\n      0x40\n      mstore\n        /* \"contracts/libraries/FiveswapV2Library.sol\":1050:1307  keccak256(abi.encodePacked(... */\n      dup1\n      mload\n      swap1\n      0x20\n      add\n      keccak256\n        /* \"contracts/libraries/FiveswapV2Library.sol\":1045:1308  uint(keccak256(abi.encodePacked(... */\n      0x00\n      shr\n        /* \"contracts/libraries/FiveswapV2Library.sol\":1030:1309  pair = address(uint(keccak256(abi.encodePacked(... */\n      swap3\n      pop\n        /* \"contracts/libraries/FiveswapV2Library.sol\":846:1316  function pairFor(address factory, address tokenA, address tokenB) internal pure returns (address pair) {... */\n      pop\n      pop\n      swap4\n      swap3\n      pop\n      pop\n      pop\n      jump\t// out\n        /* \"contracts/libraries/FiveswapV2Library.sol\":4301:4826  function getAmountsIn(address factory, uint amountOut, address[] memory path) internal view returns (uint[] memory amounts) {... */\n    tag_63:\n        /* \"contracts/libraries/FiveswapV2Library.sol\":4402:4423  uint[] memory amounts */\n      0x60\n        /* \"contracts/libraries/FiveswapV2Library.sol\":4458:4459  2 */\n      0x02\n        /* \"contracts/libraries/FiveswapV2Library.sol\":4443:4447  path */\n      dup3\n        /* \"contracts/libraries/FiveswapV2Library.sol\":4443:4454  path.length */\n      mload\n        /* \"contracts/libraries/FiveswapV2Library.sol\":4443:4459  path.length >= 2 */\n      lt\n      iszero\n        /* \"contracts/libraries/FiveswapV2Library.sol\":4435:4495  require(path.length >= 2, 'FiveswapV2Library: INVALID_PATH') */\n      tag_109\n      jumpi\n      mload(0x40)\n      0x08c379a000000000000000000000000000000000000000000000000000000000\n      dup2\n      mstore\n      0x04\n      add\n      dup1\n      dup1\n      0x20\n      add\n      dup3\n      dup2\n      sub\n      dup3\n      mstore\n      0x1f\n      dup2\n      mstore\n      0x20\n      add\n      dup1\n      0x466976657377617056324c6962726172793a20494e56414c49445f5041544800\n      dup2\n      mstore\n      pop\n      0x20\n      add\n      swap2\n      pop\n      pop\n      mload(0x40)\n      dup1\n      swap2\n      sub\n      swap1\n      revert\n    tag_109:\n        /* \"contracts/libraries/FiveswapV2Library.sol\":4526:4530  path */\n      dup2\n        /* \"contracts/libraries/FiveswapV2Library.sol\":4526:4537  path.length */\n      mload\n        /* \"contracts/libraries/FiveswapV2Library.sol\":4515:4538  new uint[](path.length) */\n      0xffffffffffffffff\n      dup2\n      gt\n        /* \"--CODEGEN--\":5:14   */\n      dup1\n        /* \"--CODEGEN--\":2:4   */\n      iszero\n      tag_110\n      jumpi\n        /* \"--CODEGEN--\":27:28   */\n      0x00\n        /* \"--CODEGEN--\":24:25   */\n      dup1\n        /* \"--CODEGEN--\":17:29   */\n      revert\n        /* \"--CODEGEN--\":2:4   */\n    tag_110:\n        /* \"contracts/libraries/FiveswapV2Library.sol\":4515:4538  new uint[](path.length) */\n      pop\n      mload(0x40)\n      swap1\n      dup1\n      dup3\n      mstore\n      dup1\n      0x20\n      mul\n      0x20\n      add\n      dup3\n      add\n      0x40\n      mstore\n      dup1\n      iszero\n      tag_111\n      jumpi\n      dup2\n      0x20\n      add\n        /* \"--CODEGEN--\":29:31   */\n      0x20\n        /* \"--CODEGEN--\":21:27   */\n      dup3\n        /* \"--CODEGEN--\":17:32   */\n      mul\n        /* \"--CODEGEN--\":125:129   */\n      dup1\n        /* \"--CODEGEN--\":109:123   */\n      calldatasize\n        /* \"--CODEGEN--\":101:107   */\n      dup4\n        /* \"--CODEGEN--\":88:130   */\n      calldatacopy\n        /* \"--CODEGEN--\":156:160   */\n      dup1\n        /* \"--CODEGEN--\":148:154   */\n      dup3\n        /* \"--CODEGEN--\":144:161   */\n      add\n        /* \"--CODEGEN--\":134:161   */\n      swap2\n      pop\n        /* \"--CODEGEN--\":0:165   */\n      pop\n        /* \"contracts/libraries/FiveswapV2Library.sol\":4515:4538  new uint[](path.length) */\n      swap1\n      pop\n    tag_111:\n      pop\n        /* \"contracts/libraries/FiveswapV2Library.sol\":4505:4538  amounts = new uint[](path.length) */\n      swap1\n      pop\n        /* \"contracts/libraries/FiveswapV2Library.sol\":4578:4587  amountOut */\n      dup3\n        /* \"contracts/libraries/FiveswapV2Library.sol\":4548:4555  amounts */\n      dup2\n        /* \"contracts/libraries/FiveswapV2Library.sol\":4573:4574  1 */\n      0x01\n        /* \"contracts/libraries/FiveswapV2Library.sol\":4556:4563  amounts */\n      dup4\n        /* \"contracts/libraries/FiveswapV2Library.sol\":4556:4570  amounts.length */\n      mload\n        /* \"contracts/libraries/FiveswapV2Library.sol\":4556:4574  amounts.length - 1 */\n      sub\n        /* \"contracts/libraries/FiveswapV2Library.sol\":4548:4575  amounts[amounts.length - 1] */\n      dup2\n      mload\n      dup2\n      lt\n      tag_112\n      jumpi\n      invalid\n    tag_112:\n      0x20\n      mul\n      0x20\n      add\n      add\n        /* \"contracts/libraries/FiveswapV2Library.sol\":4548:4587  amounts[amounts.length - 1] = amountOut */\n      dup2\n      dup2\n      mstore\n      pop\n      pop\n        /* \"contracts/libraries/FiveswapV2Library.sol\":4602:4608  uint i */\n      0x00\n        /* \"contracts/libraries/FiveswapV2Library.sol\":4625:4626  1 */\n      0x01\n        /* \"contracts/libraries/FiveswapV2Library.sol\":4611:4615  path */\n      dup4\n        /* \"contracts/libraries/FiveswapV2Library.sol\":4611:4622  path.length */\n      mload\n        /* \"contracts/libraries/FiveswapV2Library.sol\":4611:4626  path.length - 1 */\n      sub\n        /* \"contracts/libraries/FiveswapV2Library.sol\":4602:4626  uint i = path.length - 1 */\n      swap1\n      pop\n        /* \"contracts/libraries/FiveswapV2Library.sol\":4597:4820  for (uint i = path.length - 1; i > 0; i--) {... */\n    tag_113:\n        /* \"contracts/libraries/FiveswapV2Library.sol\":4632:4633  0 */\n      0x00\n        /* \"contracts/libraries/FiveswapV2Library.sol\":4628:4629  i */\n      dup2\n        /* \"contracts/libraries/FiveswapV2Library.sol\":4628:4633  i > 0 */\n      gt\n        /* \"contracts/libraries/FiveswapV2Library.sol\":4597:4820  for (uint i = path.length - 1; i > 0; i--) {... */\n      iszero\n      tag_114\n      jumpi\n        /* \"contracts/libraries/FiveswapV2Library.sol\":4655:4669  uint reserveIn */\n      0x00\n        /* \"contracts/libraries/FiveswapV2Library.sol\":4671:4686  uint reserveOut */\n      dup1\n        /* \"contracts/libraries/FiveswapV2Library.sol\":4690:4732  getReserves(factory, path[i - 1], path[i]) */\n      tag_116\n        /* \"contracts/libraries/FiveswapV2Library.sol\":4702:4709  factory */\n      dup8\n        /* \"contracts/libraries/FiveswapV2Library.sol\":4711:4715  path */\n      dup7\n        /* \"contracts/libraries/FiveswapV2Library.sol\":4720:4721  1 */\n      0x01\n        /* \"contracts/libraries/FiveswapV2Library.sol\":4716:4717  i */\n      dup7\n        /* \"contracts/libraries/FiveswapV2Library.sol\":4716:4721  i - 1 */\n      sub\n        /* \"contracts/libraries/FiveswapV2Library.sol\":4711:4722  path[i - 1] */\n      dup2\n      mload\n      dup2\n      lt\n      tag_117\n      jumpi\n      invalid\n    tag_117:\n      0x20\n      mul\n      0x20\n      add\n      add\n      mload\n        /* \"contracts/libraries/FiveswapV2Library.sol\":4724:4728  path */\n      dup8\n        /* \"contracts/libraries/FiveswapV2Library.sol\":4729:4730  i */\n      dup7\n        /* \"contracts/libraries/FiveswapV2Library.sol\":4724:4731  path[i] */\n      dup2\n      mload\n      dup2\n      lt\n      tag_118\n      jumpi\n      invalid\n    tag_118:\n      0x20\n      mul\n      0x20\n      add\n      add\n      mload\n        /* \"contracts/libraries/FiveswapV2Library.sol\":4690:4701  getReserves */\n      tag_119\n        /* \"contracts/libraries/FiveswapV2Library.sol\":4690:4732  getReserves(factory, path[i - 1], path[i]) */\n      jump\t// in\n    tag_116:\n        /* \"contracts/libraries/FiveswapV2Library.sol\":4654:4732  (uint reserveIn, uint reserveOut) = getReserves(factory, path[i - 1], path[i]) */\n      swap2\n      pop\n      swap2\n      pop\n        /* \"contracts/libraries/FiveswapV2Library.sol\":4763:4809  getAmountIn(amounts[i], reserveIn, reserveOut) */\n      tag_120\n        /* \"contracts/libraries/FiveswapV2Library.sol\":4775:4782  amounts */\n      dup5\n        /* \"contracts/libraries/FiveswapV2Library.sol\":4783:4784  i */\n      dup5\n        /* \"contracts/libraries/FiveswapV2Library.sol\":4775:4785  amounts[i] */\n      dup2\n      mload\n      dup2\n      lt\n      tag_121\n      jumpi\n      invalid\n    tag_121:\n      0x20\n      mul\n      0x20\n      add\n      add\n      mload\n        /* \"contracts/libraries/FiveswapV2Library.sol\":4787:4796  reserveIn */\n      dup4\n        /* \"contracts/libraries/FiveswapV2Library.sol\":4798:4808  reserveOut */\n      dup4\n        /* \"contracts/libraries/FiveswapV2Library.sol\":4763:4774  getAmountIn */\n      tag_122\n        /* \"contracts/libraries/FiveswapV2Library.sol\":4763:4809  getAmountIn(amounts[i], reserveIn, reserveOut) */\n      jump\t// in\n    tag_120:\n        /* \"contracts/libraries/FiveswapV2Library.sol\":4746:4753  amounts */\n      dup5\n        /* \"contracts/libraries/FiveswapV2Library.sol\":4758:4759  1 */\n      0x01\n        /* \"contracts/libraries/FiveswapV2Library.sol\":4754:4755  i */\n      dup6\n        /* \"contracts/libraries/FiveswapV2Library.sol\":4754:4759  i - 1 */\n      sub\n        /* \"contracts/libraries/FiveswapV2Library.sol\":4746:4760  amounts[i - 1] */\n      dup2\n      mload\n      dup2\n      lt\n      tag_123\n      jumpi\n      invalid\n    tag_123:\n      0x20\n      mul\n      0x20\n      add\n      add\n        /* \"contracts/libraries/FiveswapV2Library.sol\":4746:4809  amounts[i - 1] = getAmountIn(amounts[i], reserveIn, reserveOut) */\n      dup2\n      dup2\n      mstore\n      pop\n      pop\n        /* \"contracts/libraries/FiveswapV2Library.sol\":4597:4820  for (uint i = path.length - 1; i > 0; i--) {... */\n      pop\n      pop\n        /* \"contracts/libraries/FiveswapV2Library.sol\":4635:4638  i-- */\n      dup1\n      dup1\n      0x01\n      swap1\n      sub\n      swap2\n      pop\n      pop\n        /* \"contracts/libraries/FiveswapV2Library.sol\":4597:4820  for (uint i = path.length - 1; i > 0; i--) {... */\n      jump(tag_113)\n    tag_114:\n      pop\n        /* \"contracts/libraries/FiveswapV2Library.sol\":4301:4826  function getAmountsIn(address factory, uint amountOut, address[] memory path) internal view returns (uint[] memory amounts) {... */\n      swap4\n      swap3\n      pop\n      pop\n      pop\n      jump\t// out\n        /* \"contracts/libraries/FiveswapV2Library.sol\":411:758  function sortTokens(address tokenA, address tokenB) internal pure returns (address token0, address token1) {... */\n    tag_107:\n        /* \"contracts/libraries/FiveswapV2Library.sol\":486:500  address token0 */\n      0x00\n        /* \"contracts/libraries/FiveswapV2Library.sol\":502:516  address token1 */\n      dup1\n        /* \"contracts/libraries/FiveswapV2Library.sol\":546:552  tokenB */\n      dup3\n        /* \"contracts/libraries/FiveswapV2Library.sol\":536:552  tokenA != tokenB */\n      0xffffffffffffffffffffffffffffffffffffffff\n      and\n        /* \"contracts/libraries/FiveswapV2Library.sol\":536:542  tokenA */\n      dup5\n        /* \"contracts/libraries/FiveswapV2Library.sol\":536:552  tokenA != tokenB */\n      0xffffffffffffffffffffffffffffffffffffffff\n      and\n      eq\n      iszero\n        /* \"contracts/libraries/FiveswapV2Library.sol\":528:595  require(tokenA != tokenB, 'FiveswapV2Library: IDENTICAL_ADDRESSES') */\n      tag_125\n      jumpi\n      mload(0x40)\n      0x08c379a000000000000000000000000000000000000000000000000000000000\n      dup2\n      mstore\n      0x04\n      add\n      dup1\n      dup1\n      0x20\n      add\n      dup3\n      dup2\n      sub\n      dup3\n      mstore\n      0x26\n      dup2\n      mstore\n      0x20\n      add\n      dup1\n      data_b0b68699bd54154de6526ab036c9138ab8e19c1a75865a97661574a157a2c472\n      0x26\n      swap2\n      codecopy\n      0x40\n      add\n      swap2\n      pop\n      pop\n      mload(0x40)\n      dup1\n      swap2\n      sub\n      swap1\n      revert\n    tag_125:\n        /* \"contracts/libraries/FiveswapV2Library.sol\":633:639  tokenB */\n      dup3\n        /* \"contracts/libraries/FiveswapV2Library.sol\":624:639  tokenA < tokenB */\n      0xffffffffffffffffffffffffffffffffffffffff\n      and\n        /* \"contracts/libraries/FiveswapV2Library.sol\":624:630  tokenA */\n      dup5\n        /* \"contracts/libraries/FiveswapV2Library.sol\":624:639  tokenA < tokenB */\n      0xffffffffffffffffffffffffffffffffffffffff\n      and\n      lt\n        /* \"contracts/libraries/FiveswapV2Library.sol\":624:677  tokenA < tokenB ? (tokenA, tokenB) : (tokenB, tokenA) */\n      tag_126\n      jumpi\n        /* \"contracts/libraries/FiveswapV2Library.sol\":662:668  tokenB */\n      dup3\n        /* \"contracts/libraries/FiveswapV2Library.sol\":670:676  tokenA */\n      dup5\n        /* \"contracts/libraries/FiveswapV2Library.sol\":624:677  tokenA < tokenB ? (tokenA, tokenB) : (tokenB, tokenA) */\n      jump(tag_127)\n    tag_126:\n        /* \"contracts/libraries/FiveswapV2Library.sol\":643:649  tokenA */\n      dup4\n        /* \"contracts/libraries/FiveswapV2Library.sol\":651:657  tokenB */\n      dup4\n        /* \"contracts/libraries/FiveswapV2Library.sol\":624:677  tokenA < tokenB ? (tokenA, tokenB) : (tokenB, tokenA) */\n    tag_127:\n        /* \"contracts/libraries/FiveswapV2Library.sol\":605:677  (token0, token1) = tokenA < tokenB ? (tokenA, tokenB) : (tokenB, tokenA) */\n      dup1\n      swap3\n      pop\n      dup2\n      swap4\n      pop\n      pop\n      pop\n        /* \"contracts/libraries/FiveswapV2Library.sol\":713:714  0 */\n      0x00\n        /* \"contracts/libraries/FiveswapV2Library.sol\":695:715  token0 != address(0) */\n      0xffffffffffffffffffffffffffffffffffffffff\n      and\n        /* \"contracts/libraries/FiveswapV2Library.sol\":695:701  token0 */\n      dup3\n        /* \"contracts/libraries/FiveswapV2Library.sol\":695:715  token0 != address(0) */\n      0xffffffffffffffffffffffffffffffffffffffff\n      and\n      eq\n      iszero\n        /* \"contracts/libraries/FiveswapV2Library.sol\":687:751  require(token0 != address(0), 'FiveswapV2Library: ZERO_ADDRESS') */\n      tag_128\n      jumpi\n      mload(0x40)\n      0x08c379a000000000000000000000000000000000000000000000000000000000\n      dup2\n      mstore\n      0x04\n      add\n      dup1\n      dup1\n      0x20\n      add\n      dup3\n      dup2\n      sub\n      dup3\n      mstore\n      0x1f\n      dup2\n      mstore\n      0x20\n      add\n      dup1\n      0x466976657377617056324c6962726172793a205a45524f5f4144445245535300\n      dup2\n      mstore\n      pop\n      0x20\n      add\n      swap2\n      pop\n      pop\n      mload(0x40)\n      dup1\n      swap2\n      sub\n      swap1\n      revert\n    tag_128:\n        /* \"contracts/libraries/FiveswapV2Library.sol\":411:758  function sortTokens(address tokenA, address tokenB) internal pure returns (address token0, address token1) {... */\n      swap3\n      pop\n      swap3\n      swap1\n      pop\n      jump\t// out\n        /* \"contracts/libraries/FiveswapV2Library.sol\":1606:1994  function getReserves(address factory, address tokenA, address tokenB) internal view returns (uint reserveA, uint reserveB) {... */\n    tag_119:\n        /* \"contracts/libraries/FiveswapV2Library.sol\":1699:1712  uint reserveA */\n      0x00\n        /* \"contracts/libraries/FiveswapV2Library.sol\":1714:1727  uint reserveB */\n      dup1\n        /* \"contracts/libraries/FiveswapV2Library.sol\":1740:1754  address token0 */\n      0x00\n        /* \"contracts/libraries/FiveswapV2Library.sol\":1759:1785  sortTokens(tokenA, tokenB) */\n      tag_130\n        /* \"contracts/libraries/FiveswapV2Library.sol\":1770:1776  tokenA */\n      dup6\n        /* \"contracts/libraries/FiveswapV2Library.sol\":1778:1784  tokenB */\n      dup6\n        /* \"contracts/libraries/FiveswapV2Library.sol\":1759:1769  sortTokens */\n      tag_107\n        /* \"contracts/libraries/FiveswapV2Library.sol\":1759:1785  sortTokens(tokenA, tokenB) */\n      jump\t// in\n    tag_130:\n        /* \"contracts/libraries/FiveswapV2Library.sol\":1739:1785  (address token0,) = sortTokens(tokenA, tokenB) */\n      pop\n      swap1\n      pop\n        /* \"contracts/libraries/FiveswapV2Library.sol\":1796:1809  uint reserve0 */\n      0x00\n        /* \"contracts/libraries/FiveswapV2Library.sol\":1811:1824  uint reserve1 */\n      dup1\n        /* \"contracts/libraries/FiveswapV2Library.sol\":1845:1877  pairFor(factory, tokenA, tokenB) */\n      tag_131\n        /* \"contracts/libraries/FiveswapV2Library.sol\":1853:1860  factory */\n      dup9\n        /* \"contracts/libraries/FiveswapV2Library.sol\":1862:1868  tokenA */\n      dup9\n        /* \"contracts/libraries/FiveswapV2Library.sol\":1870:1876  tokenB */\n      dup9\n        /* \"contracts/libraries/FiveswapV2Library.sol\":1845:1852  pairFor */\n      tag_25\n        /* \"contracts/libraries/FiveswapV2Library.sol\":1845:1877  pairFor(factory, tokenA, tokenB) */\n      jump\t// in\n    tag_131:\n        /* \"contracts/libraries/FiveswapV2Library.sol\":1829:1890  IFiveswapV2Pair(pairFor(factory, tokenA, tokenB)).getReserves */\n      0xffffffffffffffffffffffffffffffffffffffff\n      and\n      0x0902f1ac\n        /* \"contracts/libraries/FiveswapV2Library.sol\":1829:1892  IFiveswapV2Pair(pairFor(factory, tokenA, tokenB)).getReserves() */\n      mload(0x40)\n      dup2\n      0xffffffff\n      and\n      0xe0\n      shl\n      dup2\n      mstore\n      0x04\n      add\n      0x60\n      mload(0x40)\n      dup1\n      dup4\n      sub\n      dup2\n      dup7\n      dup1\n      extcodesize\n      iszero\n        /* \"--CODEGEN--\":5:14   */\n      dup1\n        /* \"--CODEGEN--\":2:4   */\n      iszero\n      tag_132\n      jumpi\n        /* \"--CODEGEN--\":27:28   */\n      0x00\n        /* \"--CODEGEN--\":24:25   */\n      dup1\n        /* \"--CODEGEN--\":17:29   */\n      revert\n        /* \"--CODEGEN--\":2:4   */\n    tag_132:\n        /* \"contracts/libraries/FiveswapV2Library.sol\":1829:1892  IFiveswapV2Pair(pairFor(factory, tokenA, tokenB)).getReserves() */\n      pop\n      gas\n      staticcall\n      iszero\n        /* \"--CODEGEN--\":8:17   */\n      dup1\n        /* \"--CODEGEN--\":5:7   */\n      iszero\n      tag_134\n      jumpi\n        /* \"--CODEGEN--\":45:61   */\n      returndatasize\n        /* \"--CODEGEN--\":42:43   */\n      0x00\n        /* \"--CODEGEN--\":39:40   */\n      dup1\n        /* \"--CODEGEN--\":24:62   */\n      returndatacopy\n        /* \"--CODEGEN--\":77:93   */\n      returndatasize\n        /* \"--CODEGEN--\":74:75   */\n      0x00\n        /* \"--CODEGEN--\":67:94   */\n      revert\n        /* \"--CODEGEN--\":5:7   */\n    tag_134:\n        /* \"contracts/libraries/FiveswapV2Library.sol\":1829:1892  IFiveswapV2Pair(pairFor(factory, tokenA, tokenB)).getReserves() */\n      pop\n      pop\n      pop\n      pop\n      mload(0x40)\n      returndatasize\n        /* \"--CODEGEN--\":15:17   */\n      0x60\n        /* \"--CODEGEN--\":10:13   */\n      dup2\n        /* \"--CODEGEN--\":7:18   */\n      lt\n        /* \"--CODEGEN--\":4:6   */\n      iszero\n      tag_135\n      jumpi\n        /* \"--CODEGEN--\":31:32   */\n      0x00\n        /* \"--CODEGEN--\":28:29   */\n      dup1\n        /* \"--CODEGEN--\":21:33   */\n      revert\n        /* \"--CODEGEN--\":4:6   */\n    tag_135:\n        /* \"contracts/libraries/FiveswapV2Library.sol\":1829:1892  IFiveswapV2Pair(pairFor(factory, tokenA, tokenB)).getReserves() */\n      dup2\n      add\n      swap1\n      dup1\n      dup1\n      mload\n      swap1\n      0x20\n      add\n      swap1\n      swap3\n      swap2\n      swap1\n      dup1\n      mload\n      swap1\n      0x20\n      add\n      swap1\n      swap3\n      swap2\n      swap1\n      dup1\n      mload\n      swap1\n      0x20\n      add\n      swap1\n      swap3\n      swap2\n      swap1\n      pop\n      pop\n      pop\n        /* \"contracts/libraries/FiveswapV2Library.sol\":1795:1892  (uint reserve0, uint reserve1,) = IFiveswapV2Pair(pairFor(factory, tokenA, tokenB)).getReserves() */\n      pop\n      0xffffffffffffffffffffffffffff\n      and\n      swap2\n      pop\n      0xffffffffffffffffffffffffffff\n      and\n      swap2\n      pop\n        /* \"contracts/libraries/FiveswapV2Library.sol\":1935:1941  token0 */\n      dup3\n        /* \"contracts/libraries/FiveswapV2Library.sol\":1925:1941  tokenA == token0 */\n      0xffffffffffffffffffffffffffffffffffffffff\n      and\n        /* \"contracts/libraries/FiveswapV2Library.sol\":1925:1931  tokenA */\n      dup8\n        /* \"contracts/libraries/FiveswapV2Library.sol\":1925:1941  tokenA == token0 */\n      0xffffffffffffffffffffffffffffffffffffffff\n      and\n      eq\n        /* \"contracts/libraries/FiveswapV2Library.sol\":1925:1987  tokenA == token0 ? (reserve0, reserve1) : (reserve1, reserve0) */\n      tag_136\n      jumpi\n        /* \"contracts/libraries/FiveswapV2Library.sol\":1968:1976  reserve1 */\n      dup1\n        /* \"contracts/libraries/FiveswapV2Library.sol\":1978:1986  reserve0 */\n      dup3\n        /* \"contracts/libraries/FiveswapV2Library.sol\":1925:1987  tokenA == token0 ? (reserve0, reserve1) : (reserve1, reserve0) */\n      jump(tag_137)\n    tag_136:\n        /* \"contracts/libraries/FiveswapV2Library.sol\":1945:1953  reserve0 */\n      dup2\n        /* \"contracts/libraries/FiveswapV2Library.sol\":1955:1963  reserve1 */\n      dup2\n        /* \"contracts/libraries/FiveswapV2Library.sol\":1925:1987  tokenA == token0 ? (reserve0, reserve1) : (reserve1, reserve0) */\n    tag_137:\n        /* \"contracts/libraries/FiveswapV2Library.sol\":1902:1987  (reserveA, reserveB) = tokenA == token0 ? (reserve0, reserve1) : (reserve1, reserve0) */\n      dup1\n      swap6\n      pop\n      dup2\n      swap7\n      pop\n      pop\n      pop\n        /* \"contracts/libraries/FiveswapV2Library.sol\":1606:1994  function getReserves(address factory, address tokenA, address tokenB) internal view returns (uint reserveA, uint reserveB) {... */\n      pop\n      pop\n      pop\n      swap4\n      pop\n      swap4\n      swap2\n      pop\n      pop\n      jump\t// out\n        /* \"contracts/libraries/FiveswapV2Library.sol\":3172:3640  function getAmountIn(uint amountOut, uint reserveIn, uint reserveOut) internal pure returns (uint amountIn) {... */\n    tag_122:\n        /* \"contracts/libraries/FiveswapV2Library.sol\":3265:3278  uint amountIn */\n      0x00\n        /* \"contracts/libraries/FiveswapV2Library.sol\":3310:3311  0 */\n      dup1\n        /* \"contracts/libraries/FiveswapV2Library.sol\":3298:3307  amountOut */\n      dup5\n        /* \"contracts/libraries/FiveswapV2Library.sol\":3298:3311  amountOut > 0 */\n      gt\n        /* \"contracts/libraries/FiveswapV2Library.sol\":3290:3361  require(amountOut > 0, 'FiveswapV2Library: INSUFFICIENT_OUTPUT_AMOUNT') */\n      tag_139\n      jumpi\n      mload(0x40)\n      0x08c379a000000000000000000000000000000000000000000000000000000000\n      dup2\n      mstore\n      0x04\n      add\n      dup1\n      dup1\n      0x20\n      add\n      dup3\n      dup2\n      sub\n      dup3\n      mstore\n      0x2d\n      dup2\n      mstore\n      0x20\n      add\n      dup1\n      data_3d2d99538ef000940a424906e9685c0d81405feec8f01d7931ad8a54c3210fdb\n      0x2d\n      swap2\n      codecopy\n      0x40\n      add\n      swap2\n      pop\n      pop\n      mload(0x40)\n      dup1\n      swap2\n      sub\n      swap1\n      revert\n    tag_139:\n        /* \"contracts/libraries/FiveswapV2Library.sol\":3391:3392  0 */\n      0x00\n        /* \"contracts/libraries/FiveswapV2Library.sol\":3379:3388  reserveIn */\n      dup4\n        /* \"contracts/libraries/FiveswapV2Library.sol\":3379:3392  reserveIn > 0 */\n      gt\n        /* \"contracts/libraries/FiveswapV2Library.sol\":3379:3410  reserveIn > 0 && reserveOut > 0 */\n      dup1\n      iszero\n      tag_140\n      jumpi\n      pop\n        /* \"contracts/libraries/FiveswapV2Library.sol\":3409:3410  0 */\n      0x00\n        /* \"contracts/libraries/FiveswapV2Library.sol\":3396:3406  reserveOut */\n      dup3\n        /* \"contracts/libraries/FiveswapV2Library.sol\":3396:3410  reserveOut > 0 */\n      gt\n        /* \"contracts/libraries/FiveswapV2Library.sol\":3379:3410  reserveIn > 0 && reserveOut > 0 */\n    tag_140:\n        /* \"contracts/libraries/FiveswapV2Library.sol\":3371:3456  require(reserveIn > 0 && reserveOut > 0, 'FiveswapV2Library: INSUFFICIENT_LIQUIDITY') */\n      tag_141\n      jumpi\n      mload(0x40)\n      0x08c379a000000000000000000000000000000000000000000000000000000000\n      dup2\n      mstore\n      0x04\n      add\n      dup1\n      dup1\n      0x20\n      add\n      dup3\n      dup2\n      sub\n      dup3\n      mstore\n      0x29\n      dup2\n      mstore\n      0x20\n      add\n      dup1\n      data_b7fecad744d78e9d9411e1f867e106d043d5561ab477018a1a37d84124d00e2b\n      0x29\n      swap2\n      codecopy\n      0x40\n      add\n      swap2\n      pop\n      pop\n      mload(0x40)\n      dup1\n      swap2\n      sub\n      swap1\n      revert\n    tag_141:\n        /* \"contracts/libraries/FiveswapV2Library.sol\":3466:3480  uint numerator */\n      0x00\n        /* \"contracts/libraries/FiveswapV2Library.sol\":3483:3517  reserveIn.mul(amountOut).mul(1000) */\n      tag_142\n        /* \"contracts/libraries/FiveswapV2Library.sol\":3512:3516  1000 */\n      0x03e8\n        /* \"contracts/libraries/FiveswapV2Library.sol\":3483:3507  reserveIn.mul(amountOut) */\n      tag_143\n        /* \"contracts/libraries/FiveswapV2Library.sol\":3497:3506  amountOut */\n      dup8\n        /* \"contracts/libraries/FiveswapV2Library.sol\":3483:3492  reserveIn */\n      dup8\n        /* \"contracts/libraries/FiveswapV2Library.sol\":3483:3496  reserveIn.mul */\n      tag_144\n      swap1\n        /* \"contracts/libraries/FiveswapV2Library.sol\":3483:3507  reserveIn.mul(amountOut) */\n      swap2\n      swap1\n      0xffffffff\n      and\n      jump\t// in\n    tag_143:\n        /* \"contracts/libraries/FiveswapV2Library.sol\":3483:3511  reserveIn.mul(amountOut).mul */\n      tag_144\n      swap1\n        /* \"contracts/libraries/FiveswapV2Library.sol\":3483:3517  reserveIn.mul(amountOut).mul(1000) */\n      swap2\n      swap1\n      0xffffffff\n      and\n      jump\t// in\n    tag_142:\n        /* \"contracts/libraries/FiveswapV2Library.sol\":3466:3517  uint numerator = reserveIn.mul(amountOut).mul(1000) */\n      swap1\n      pop\n        /* \"contracts/libraries/FiveswapV2Library.sol\":3527:3543  uint denominator */\n      0x00\n        /* \"contracts/libraries/FiveswapV2Library.sol\":3546:3580  reserveOut.sub(amountOut).mul(997) */\n      tag_145\n        /* \"contracts/libraries/FiveswapV2Library.sol\":3576:3579  997 */\n      0x03e5\n        /* \"contracts/libraries/FiveswapV2Library.sol\":3546:3571  reserveOut.sub(amountOut) */\n      tag_146\n        /* \"contracts/libraries/FiveswapV2Library.sol\":3561:3570  amountOut */\n      dup9\n        /* \"contracts/libraries/FiveswapV2Library.sol\":3546:3556  reserveOut */\n      dup8\n        /* \"contracts/libraries/FiveswapV2Library.sol\":3546:3560  reserveOut.sub */\n      tag_147\n      swap1\n        /* \"contracts/libraries/FiveswapV2Library.sol\":3546:3571  reserveOut.sub(amountOut) */\n      swap2\n      swap1\n      0xffffffff\n      and\n      jump\t// in\n    tag_146:\n        /* \"contracts/libraries/FiveswapV2Library.sol\":3546:3575  reserveOut.sub(amountOut).mul */\n      tag_144\n      swap1\n        /* \"contracts/libraries/FiveswapV2Library.sol\":3546:3580  reserveOut.sub(amountOut).mul(997) */\n      swap2\n      swap1\n      0xffffffff\n      and\n      jump\t// in\n    tag_145:\n        /* \"contracts/libraries/FiveswapV2Library.sol\":3527:3580  uint denominator = reserveOut.sub(amountOut).mul(997) */\n      swap1\n      pop\n        /* \"contracts/libraries/FiveswapV2Library.sol\":3601:3633  (numerator / denominator).add(1) */\n      tag_148\n        /* \"contracts/libraries/FiveswapV2Library.sol\":3631:3632  1 */\n      0x01\n        /* \"contracts/libraries/FiveswapV2Library.sol\":3614:3625  denominator */\n      dup3\n        /* \"contracts/libraries/FiveswapV2Library.sol\":3602:3611  numerator */\n      dup5\n        /* \"contracts/libraries/FiveswapV2Library.sol\":3602:3625  numerator / denominator */\n      dup2\n      tag_149\n      jumpi\n      invalid\n    tag_149:\n      div\n        /* \"contracts/libraries/FiveswapV2Library.sol\":3601:3630  (numerator / denominator).add */\n      tag_150\n      swap1\n        /* \"contracts/libraries/FiveswapV2Library.sol\":3601:3633  (numerator / denominator).add(1) */\n      swap2\n      swap1\n      0xffffffff\n      and\n      jump\t// in\n    tag_148:\n        /* \"contracts/libraries/FiveswapV2Library.sol\":3590:3633  amountIn = (numerator / denominator).add(1) */\n      swap3\n      pop\n        /* \"contracts/libraries/FiveswapV2Library.sol\":3172:3640  function getAmountIn(uint amountOut, uint reserveIn, uint reserveOut) internal pure returns (uint amountIn) {... */\n      pop\n      pop\n      swap4\n      swap3\n      pop\n      pop\n      pop\n      jump\t// out\n        /* \"contracts/libraries/SafeMath.sol\":419:559  function mul(uint x, uint y) internal pure returns (uint z) {... */\n    tag_144:\n        /* \"contracts/libraries/SafeMath.sol\":471:477  uint z */\n      0x00\n        /* \"contracts/libraries/SafeMath.sol\":502:503  0 */\n      dup1\n        /* \"contracts/libraries/SafeMath.sol\":497:498  y */\n      dup3\n        /* \"contracts/libraries/SafeMath.sol\":497:503  y == 0 */\n      eq\n        /* \"contracts/libraries/SafeMath.sol\":497:527  y == 0 || (z = x * y) / y == x */\n      dup1\n      tag_152\n      jumpi\n      pop\n        /* \"contracts/libraries/SafeMath.sol\":526:527  x */\n      dup3\n        /* \"contracts/libraries/SafeMath.sol\":521:522  y */\n      dup3\n        /* \"contracts/libraries/SafeMath.sol\":516:517  y */\n      dup4\n        /* \"contracts/libraries/SafeMath.sol\":512:513  x */\n      dup6\n        /* \"contracts/libraries/SafeMath.sol\":512:517  x * y */\n      mul\n        /* \"contracts/libraries/SafeMath.sol\":508:517  z = x * y */\n      swap3\n      pop\n      dup3\n        /* \"contracts/libraries/SafeMath.sol\":507:522  (z = x * y) / y */\n      dup2\n      tag_153\n      jumpi\n      invalid\n    tag_153:\n      div\n        /* \"contracts/libraries/SafeMath.sol\":507:527  (z = x * y) / y == x */\n      eq\n        /* \"contracts/libraries/SafeMath.sol\":497:527  y == 0 || (z = x * y) / y == x */\n    tag_152:\n        /* \"contracts/libraries/SafeMath.sol\":489:552  require(y == 0 || (z = x * y) / y == x, 'ds-math-mul-overflow') */\n      tag_154\n      jumpi\n      mload(0x40)\n      0x08c379a000000000000000000000000000000000000000000000000000000000\n      dup2\n      mstore\n      0x04\n      add\n      dup1\n      dup1\n      0x20\n      add\n      dup3\n      dup2\n      sub\n      dup3\n      mstore\n      0x14\n      dup2\n      mstore\n      0x20\n      add\n      dup1\n      0x64732d6d6174682d6d756c2d6f766572666c6f77000000000000000000000000\n      dup2\n      mstore\n      pop\n      0x20\n      add\n      swap2\n      pop\n      pop\n      mload(0x40)\n      dup1\n      swap2\n      sub\n      swap1\n      revert\n    tag_154:\n        /* \"contracts/libraries/SafeMath.sol\":419:559  function mul(uint x, uint y) internal pure returns (uint z) {... */\n      swap3\n      swap2\n      pop\n      pop\n      jump\t// out\n        /* \"contracts/libraries/SafeMath.sol\":286:413  function sub(uint x, uint y) internal pure returns (uint z) {... */\n    tag_147:\n        /* \"contracts/libraries/SafeMath.sol\":338:344  uint z */\n      0x00\n        /* \"contracts/libraries/SafeMath.sol\":379:380  x */\n      dup3\n        /* \"contracts/libraries/SafeMath.sol\":373:374  y */\n      dup3\n        /* \"contracts/libraries/SafeMath.sol\":369:370  x */\n      dup5\n        /* \"contracts/libraries/SafeMath.sol\":369:374  x - y */\n      sub\n        /* \"contracts/libraries/SafeMath.sol\":365:374  z = x - y */\n      swap2\n      pop\n      dup2\n        /* \"contracts/libraries/SafeMath.sol\":364:380  (z = x - y) <= x */\n      gt\n      iszero\n        /* \"contracts/libraries/SafeMath.sol\":356:406  require((z = x - y) <= x, 'ds-math-sub-underflow') */\n      tag_156\n      jumpi\n      mload(0x40)\n      0x08c379a000000000000000000000000000000000000000000000000000000000\n      dup2\n      mstore\n      0x04\n      add\n      dup1\n      dup1\n      0x20\n      add\n      dup3\n      dup2\n      sub\n      dup3\n      mstore\n      0x15\n      dup2\n      mstore\n      0x20\n      add\n      dup1\n      0x64732d6d6174682d7375622d756e646572666c6f770000000000000000000000\n      dup2\n      mstore\n      pop\n      0x20\n      add\n      swap2\n      pop\n      pop\n      mload(0x40)\n      dup1\n      swap2\n      sub\n      swap1\n      revert\n    tag_156:\n        /* \"contracts/libraries/SafeMath.sol\":286:413  function sub(uint x, uint y) internal pure returns (uint z) {... */\n      swap3\n      swap2\n      pop\n      pop\n      jump\t// out\n        /* \"contracts/libraries/SafeMath.sol\":154:280  function add(uint x, uint y) internal pure returns (uint z) {... */\n    tag_150:\n        /* \"contracts/libraries/SafeMath.sol\":206:212  uint z */\n      0x00\n        /* \"contracts/libraries/SafeMath.sol\":247:248  x */\n      dup3\n        /* \"contracts/libraries/SafeMath.sol\":241:242  y */\n      dup3\n        /* \"contracts/libraries/SafeMath.sol\":237:238  x */\n      dup5\n        /* \"contracts/libraries/SafeMath.sol\":237:242  x + y */\n      add\n        /* \"contracts/libraries/SafeMath.sol\":233:242  z = x + y */\n      swap2\n      pop\n      dup2\n        /* \"contracts/libraries/SafeMath.sol\":232:248  (z = x + y) >= x */\n      lt\n      iszero\n        /* \"contracts/libraries/SafeMath.sol\":224:273  require((z = x + y) >= x, 'ds-math-add-overflow') */\n      tag_158\n      jumpi\n      mload(0x40)\n      0x08c379a000000000000000000000000000000000000000000000000000000000\n      dup2\n      mstore\n      0x04\n      add\n      dup1\n      dup1\n      0x20\n      add\n      dup3\n      dup2\n      sub\n      dup3\n      mstore\n      0x14\n      dup2\n      mstore\n      0x20\n      add\n      dup1\n      0x64732d6d6174682d6164642d6f766572666c6f77000000000000000000000000\n      dup2\n      mstore\n      pop\n      0x20\n      add\n      swap2\n      pop\n      pop\n      mload(0x40)\n      dup1\n      swap2\n      sub\n      swap1\n      revert\n    tag_158:\n        /* \"contracts/libraries/SafeMath.sol\":154:280  function add(uint x, uint y) internal pure returns (uint z) {... */\n      swap3\n      swap2\n      pop\n      pop\n      jump\t// out\n    stop\n    data_3d2d99538ef000940a424906e9685c0d81405feec8f01d7931ad8a54c3210fdb 466976657377617056324c6962726172793a20494e53554646494349454e545f4f55545055545f414d4f554e54\n    data_b0b68699bd54154de6526ab036c9138ab8e19c1a75865a97661574a157a2c472 466976657377617056324c6962726172793a204944454e544943414c5f414444524553534553\n    data_b7fecad744d78e9d9411e1f867e106d043d5561ab477018a1a37d84124d00e2b 466976657377617056324c6962726172793a20494e53554646494349454e545f4c4951554944495459\n\n    auxdata: 0xa2646970667358221220c1b131cb376b348a9c4caf9ccfb03524764db7edce502b7fc261a3971e0f83fa64736f6c63430006060033\n}\n",
				"bytecode": {
					"linkReferences": {},
					"object": "60e060405234801561001057600080fd5b506040516119273803806119278339818101604052606081101561003357600080fd5b810190808051906020019092919080519060200190929190805190602001909291905050508173ffffffffffffffffffffffffffffffffffffffff1660808173ffffffffffffffffffffffffffffffffffffffff1660601b815250508273ffffffffffffffffffffffffffffffffffffffff1660a08173ffffffffffffffffffffffffffffffffffffffff1660601b815250508073ffffffffffffffffffffffffffffffffffffffff1663ad5c46486040518163ffffffff1660e01b815260040160206040518083038186803b15801561010c57600080fd5b505afa158015610120573d6000803e3d6000fd5b505050506040513d602081101561013657600080fd5b810190808051906020019092919050505073ffffffffffffffffffffffffffffffffffffffff1660c08173ffffffffffffffffffffffffffffffffffffffff1660601b8152505050505060805160601c60a05160601c60c05160601c6117456101e26000398061036552806103c25280610421528061048a52806104f6528061086a52806108eb5280610b0e52508061024652806108235280610c5952508061059152506117456000f3fe6080604052600436106100225760003560e01c8063ee322c801461002e57610029565b3661002957005b600080fd5b34801561003a57600080fd5b506100e66004803603608081101561005157600080fd5b81019080803573ffffffffffffffffffffffffffffffffffffffff1690602001909291908035906020019092919080359060200190929190803590602001906401000000008111156100a257600080fd5b8201836020820111156100b457600080fd5b803590602001918460018302840111640100000000831117156100d657600080fd5b90919293919293905050506100e8565b005b6060600267ffffffffffffffff8111801561010257600080fd5b506040519080825280602002602001820160405280156101315781602001602082028036833780820191505090505b50905060008060003373ffffffffffffffffffffffffffffffffffffffff16630dfe16816040518163ffffffff1660e01b815260040160206040518083038186803b15801561017f57600080fd5b505afa158015610193573d6000803e3d6000fd5b505050506040513d60208110156101a957600080fd5b8101908080519060200190929190505050905060003373ffffffffffffffffffffffffffffffffffffffff1663d21220a76040518163ffffffff1660e01b815260040160206040518083038186803b15801561020457600080fd5b505afa158015610218573d6000803e3d6000fd5b505050506040513d602081101561022e57600080fd5b8101908080519060200190929190505050905061026c7f00000000000000000000000000000000000000000000000000000000000000008383610e40565b73ffffffffffffffffffffffffffffffffffffffff163373ffffffffffffffffffffffffffffffffffffffff16146102a057fe5b60008914806102af5750600088145b6102b557fe5b600089146102c357806102c5565b815b856000815181106102d257fe5b602002602001019073ffffffffffffffffffffffffffffffffffffffff16908173ffffffffffffffffffffffffffffffffffffffff16815250506000891461031a578161031c565b805b8560018151811061032957fe5b602002602001019073ffffffffffffffffffffffffffffffffffffffff16908173ffffffffffffffffffffffffffffffffffffffff16815250507f000000000000000000000000000000000000000000000000000000000000000073ffffffffffffffffffffffffffffffffffffffff168273ffffffffffffffffffffffffffffffffffffffff16146103bc57886103be565b875b93507f000000000000000000000000000000000000000000000000000000000000000073ffffffffffffffffffffffffffffffffffffffff168273ffffffffffffffffffffffffffffffffffffffff1614610419578761041b565b885b925050507f000000000000000000000000000000000000000000000000000000000000000073ffffffffffffffffffffffffffffffffffffffff168360008151811061046357fe5b602002602001015173ffffffffffffffffffffffffffffffffffffffff1614806104ec57507f000000000000000000000000000000000000000000000000000000000000000073ffffffffffffffffffffffffffffffffffffffff16836001815181106104cc57fe5b602002602001015173ffffffffffffffffffffffffffffffffffffffff16145b6104f257fe5b60007f000000000000000000000000000000000000000000000000000000000000000073ffffffffffffffffffffffffffffffffffffffff168460008151811061053857fe5b602002602001015173ffffffffffffffffffffffffffffffffffffffff1614610575578360008151811061056857fe5b602002602001015161058b565b8360018151811061058257fe5b60200260200101515b905060007f000000000000000000000000000000000000000000000000000000000000000073ffffffffffffffffffffffffffffffffffffffff166306f2bf62836040518263ffffffff1660e01b8152600401808273ffffffffffffffffffffffffffffffffffffffff1673ffffffffffffffffffffffffffffffffffffffff16815260200191505060206040518083038186803b15801561062c57600080fd5b505afa158015610640573d6000803e3d6000fd5b505050506040513d602081101561065657600080fd5b810190808051906020019092919050505090506000841115610ae75760008787602081101561068457600080fd5b810190808035906020019092919050505090508273ffffffffffffffffffffffffffffffffffffffff1663095ea7b383876040518363ffffffff1660e01b8152600401808373ffffffffffffffffffffffffffffffffffffffff1673ffffffffffffffffffffffffffffffffffffffff16815260200182815260200192505050602060405180830381600087803b15801561071e57600080fd5b505af1158015610732573d6000803e3d6000fd5b505050506040513d602081101561074857600080fd5b81019080805190602001909291905050505060008273ffffffffffffffffffffffffffffffffffffffff166395e3c50b87847fffffffffffffffffffffffffffffffffffffffffffffffffffffffffffffffff6040518463ffffffff1660e01b8152600401808481526020018381526020018281526020019350505050602060405180830381600087803b1580156107df57600080fd5b505af11580156107f3573d6000803e3d6000fd5b505050506040513d602081101561080957600080fd5b8101908080519060200190929190505050905060006108497f0000000000000000000000000000000000000000000000000000000000000000888a610f9b565b60008151811061085557fe5b6020026020010151905080821161086857fe5b7f000000000000000000000000000000000000000000000000000000000000000073ffffffffffffffffffffffffffffffffffffffff1663d0e30db0826040518263ffffffff1660e01b81526004016000604051808303818588803b1580156108d057600080fd5b505af11580156108e4573d6000803e3d6000fd5b50505050507f000000000000000000000000000000000000000000000000000000000000000073ffffffffffffffffffffffffffffffffffffffff1663a9059cbb33836040518363ffffffff1660e01b8152600401808373ffffffffffffffffffffffffffffffffffffffff1673ffffffffffffffffffffffffffffffffffffffff16815260200182815260200192505050602060405180830381600087803b15801561099057600080fd5b505af11580156109a4573d6000803e3d6000fd5b505050506040513d60208110156109ba57600080fd5b81019080805190602001909291905050506109d157fe5b60008d73ffffffffffffffffffffffffffffffffffffffff16828403600067ffffffffffffffff81118015610a0557600080fd5b506040519080825280601f01601f191660200182016040528015610a385781602001600182028036833780820191505090505b506040518082805190602001908083835b60208310610a6c5780518252602082019150602081019050602083039250610a49565b6001836020036101000a03801982511681845116808217855250505050505090500191505060006040518083038185875af1925050503d8060008114610ace576040519150601f19603f3d011682016040523d82523d6000602084013e610ad3565b606091505b5050905080610ade57fe5b50505050610e34565b600087876020811015610af957600080fd5b810190808035906020019092919050505090507f000000000000000000000000000000000000000000000000000000000000000073ffffffffffffffffffffffffffffffffffffffff16632e1a7d4d856040518263ffffffff1660e01b815260040180828152602001915050600060405180830381600087803b158015610b7f57600080fd5b505af1158015610b93573d6000803e3d6000fd5b5050505060008273ffffffffffffffffffffffffffffffffffffffff1663f39b5b9b86847fffffffffffffffffffffffffffffffffffffffffffffffffffffffffffffffff6040518463ffffffff1660e01b815260040180838152602001828152602001925050506020604051808303818588803b158015610c1457600080fd5b505af1158015610c28573d6000803e3d6000fd5b50505050506040513d6020811015610c3f57600080fd5b810190808051906020019092919050505090506000610c7f7f0000000000000000000000000000000000000000000000000000000000000000878a610f9b565b600081518110610c8b57fe5b60200260200101519050808211610c9e57fe5b8473ffffffffffffffffffffffffffffffffffffffff1663a9059cbb33836040518363ffffffff1660e01b8152600401808373ffffffffffffffffffffffffffffffffffffffff1673ffffffffffffffffffffffffffffffffffffffff16815260200182815260200192505050602060405180830381600087803b158015610d2557600080fd5b505af1158015610d39573d6000803e3d6000fd5b505050506040513d6020811015610d4f57600080fd5b8101908080519060200190929190505050610d6657fe5b8473ffffffffffffffffffffffffffffffffffffffff1663a9059cbb8e8385036040518363ffffffff1660e01b8152600401808373ffffffffffffffffffffffffffffffffffffffff1673ffffffffffffffffffffffffffffffffffffffff16815260200182815260200192505050602060405180830381600087803b158015610def57600080fd5b505af1158015610e03573d6000803e3d6000fd5b505050506040513d6020811015610e1957600080fd5b8101908080519060200190929190505050610e3057fe5b5050505b50505050505050505050565b6000806000610e4f858561111b565b91509150858282604051602001808373ffffffffffffffffffffffffffffffffffffffff1673ffffffffffffffffffffffffffffffffffffffff1660601b81526014018273ffffffffffffffffffffffffffffffffffffffff1673ffffffffffffffffffffffffffffffffffffffff1660601b8152601401925050506040516020818303038152906040528051906020012060405160200180807fff000000000000000000000000000000000000000000000000000000000000008152506001018373ffffffffffffffffffffffffffffffffffffffff1673ffffffffffffffffffffffffffffffffffffffff1660601b8152601401828152602001807f7a258225ea5f60ea5007f427edc018ed9176fc900d6d15b23aebe809d95bbb36815250602001925050506040516020818303038152906040528051906020012060001c925050509392505050565b6060600282511015611015576040517f08c379a000000000000000000000000000000000000000000000000000000000815260040180806020018281038252601f8152602001807f466976657377617056324c6962726172793a20494e56414c49445f504154480081525060200191505060405180910390fd5b815167ffffffffffffffff8111801561102d57600080fd5b5060405190808252806020026020018201604052801561105c5781602001602082028036833780820191505090505b509050828160018351038151811061107057fe5b6020026020010181815250506000600183510390505b6000811115611113576000806110c6878660018603815181106110a557fe5b60200260200101518786815181106110b957fe5b6020026020010151611292565b915091506110e88484815181106110d957fe5b602002602001015183836113bb565b8460018503815181106110f757fe5b6020026020010181815250505050808060019003915050611086565b509392505050565b6000808273ffffffffffffffffffffffffffffffffffffffff168473ffffffffffffffffffffffffffffffffffffffff1614156111a3576040517f08c379a00000000000000000000000000000000000000000000000000000000081526004018080602001828103825260268152602001806116c16026913960400191505060405180910390fd5b8273ffffffffffffffffffffffffffffffffffffffff168473ffffffffffffffffffffffffffffffffffffffff16106111dd5782846111e0565b83835b8092508193505050600073ffffffffffffffffffffffffffffffffffffffff168273ffffffffffffffffffffffffffffffffffffffff16141561128b576040517f08c379a000000000000000000000000000000000000000000000000000000000815260040180806020018281038252601f8152602001807f466976657377617056324c6962726172793a205a45524f5f414444524553530081525060200191505060405180910390fd5b9250929050565b60008060006112a1858561111b565b5090506000806112b2888888610e40565b73ffffffffffffffffffffffffffffffffffffffff16630902f1ac6040518163ffffffff1660e01b815260040160606040518083038186803b1580156112f757600080fd5b505afa15801561130b573d6000803e3d6000fd5b505050506040513d606081101561132157600080fd5b81019080805190602001909291908051906020019092919080519060200190929190505050506dffffffffffffffffffffffffffff1691506dffffffffffffffffffffffffffff1691508273ffffffffffffffffffffffffffffffffffffffff168773ffffffffffffffffffffffffffffffffffffffff16146113a55780826113a8565b81815b8095508196505050505050935093915050565b6000808411611415576040517f08c379a000000000000000000000000000000000000000000000000000000000815260040180806020018281038252602d815260200180611694602d913960400191505060405180910390fd5b6000831180156114255750600082115b61147a576040517f08c379a00000000000000000000000000000000000000000000000000000000081526004018080602001828103825260298152602001806116e76029913960400191505060405180910390fd5b60006114a36103e861149587876114f890919063ffffffff16565b6114f890919063ffffffff16565b905060006114ce6103e56114c0888761158d90919063ffffffff16565b6114f890919063ffffffff16565b90506114ed60018284816114de57fe5b0461161090919063ffffffff16565b925050509392505050565b600080821480611515575082828385029250828161151257fe5b04145b611587576040517f08c379a00000000000000000000000000000000000000000000000000000000081526004018080602001828103825260148152602001807f64732d6d6174682d6d756c2d6f766572666c6f7700000000000000000000000081525060200191505060405180910390fd5b92915050565b600082828403915081111561160a576040517f08c379a00000000000000000000000000000000000000000000000000000000081526004018080602001828103825260158152602001807f64732d6d6174682d7375622d756e646572666c6f77000000000000000000000081525060200191505060405180910390fd5b92915050565b600082828401915081101561168d576040517f08c379a00000000000000000000000000000000000000000000000000000000081526004018080602001828103825260148152602001807f64732d6d6174682d6164642d6f766572666c6f7700000000000000000000000081525060200191505060405180910390fd5b9291505056fe466976657377617056324c6962726172793a20494e53554646494349454e545f4f55545055545f414d4f554e54466976657377617056324c6962726172793a204944454e544943414c5f414444524553534553466976657377617056324c6962726172793a20494e53554646494349454e545f4c4951554944495459a2646970667358221220c1b131cb376b348a9c4caf9ccfb03524764db7edce502b7fc261a3971e0f83fa64736f6c63430006060033",
					"opcodes": "PUSH1 0xE0 PUSH1 0x40 MSTORE CALLVALUE DUP1 ISZERO PUSH2 0x10 JUMPI PUSH1 0x0 DUP1 REVERT JUMPDEST POP PUSH1 0x40 MLOAD PUSH2 0x1927 CODESIZE SUB DUP1 PUSH2 0x1927 DUP4 CODECOPY DUP2 DUP2 ADD PUSH1 0x40 MSTORE PUSH1 0x60 DUP2 LT ISZERO PUSH2 0x33 JUMPI PUSH1 0x0 DUP1 REVERT JUMPDEST DUP2 ADD SWAP1 DUP1 DUP1 MLOAD SWAP1 PUSH1 0x20 ADD SWAP1 SWAP3 SWAP2 SWAP1 DUP1 MLOAD SWAP1 PUSH1 0x20 ADD SWAP1 SWAP3 SWAP2 SWAP1 DUP1 MLOAD SWAP1 PUSH1 0x20 ADD SWAP1 SWAP3 SWAP2 SWAP1 POP POP POP DUP2 PUSH20 0xFFFFFFFFFFFFFFFFFFFFFFFFFFFFFFFFFFFFFFFF AND PUSH1 0x80 DUP2 PUSH20 0xFFFFFFFFFFFFFFFFFFFFFFFFFFFFFFFFFFFFFFFF AND PUSH1 0x60 SHL DUP2 MSTORE POP POP DUP3 PUSH20 0xFFFFFFFFFFFFFFFFFFFFFFFFFFFFFFFFFFFFFFFF AND PUSH1 0xA0 DUP2 PUSH20 0xFFFFFFFFFFFFFFFFFFFFFFFFFFFFFFFFFFFFFFFF AND PUSH1 0x60 SHL DUP2 MSTORE POP POP DUP1 PUSH20 0xFFFFFFFFFFFFFFFFFFFFFFFFFFFFFFFFFFFFFFFF AND PUSH4 0xAD5C4648 PUSH1 0x40 MLOAD DUP2 PUSH4 0xFFFFFFFF AND PUSH1 0xE0 SHL DUP2 MSTORE PUSH1 0x4 ADD PUSH1 0x20 PUSH1 0x40 MLOAD DUP1 DUP4 SUB DUP2 DUP7 DUP1 EXTCODESIZE ISZERO DUP1 ISZERO PUSH2 0x10C JUMPI PUSH1 0x0 DUP1 REVERT JUMPDEST POP GAS STATICCALL ISZERO DUP1 ISZERO PUSH2 0x120 JUMPI RETURNDATASIZE PUSH1 0x0 DUP1 RETURNDATACOPY RETURNDATASIZE PUSH1 0x0 REVERT JUMPDEST POP POP POP POP PUSH1 0x40 MLOAD RETURNDATASIZE PUSH1 0x20 DUP2 LT ISZERO PUSH2 0x136 JUMPI PUSH1 0x0 DUP1 REVERT JUMPDEST DUP2 ADD SWAP1 DUP1 DUP1 MLOAD SWAP1 PUSH1 0x20 ADD SWAP1 SWAP3 SWAP2 SWAP1 POP POP POP PUSH20 0xFFFFFFFFFFFFFFFFFFFFFFFFFFFFFFFFFFFFFFFF AND PUSH1 0xC0 DUP2 PUSH20 0xFFFFFFFFFFFFFFFFFFFFFFFFFFFFFFFFFFFFFFFF AND PUSH1 0x60 SHL DUP2 MSTORE POP POP POP POP POP PUSH1 0x80 MLOAD PUSH1 0x60 SHR PUSH1 0xA0 MLOAD PUSH1 0x60 SHR PUSH1 0xC0 MLOAD PUSH1 0x60 SHR PUSH2 0x1745 PUSH2 0x1E2 PUSH1 0x0 CODECOPY DUP1 PUSH2 0x365 MSTORE DUP1 PUSH2 0x3C2 MSTORE DUP1 PUSH2 0x421 MSTORE DUP1 PUSH2 0x48A MSTORE DUP1 PUSH2 0x4F6 MSTORE DUP1 PUSH2 0x86A MSTORE DUP1 PUSH2 0x8EB MSTORE DUP1 PUSH2 0xB0E MSTORE POP DUP1 PUSH2 0x246 MSTORE DUP1 PUSH2 0x823 MSTORE DUP1 PUSH2 0xC59 MSTORE POP DUP1 PUSH2 0x591 MSTORE POP PUSH2 0x1745 PUSH1 0x0 RETURN INVALID PUSH1 0x80 PUSH1 0x40 MSTORE PUSH1 0x4 CALLDATASIZE LT PUSH2 0x22 JUMPI PUSH1 0x0 CALLDATALOAD PUSH1 0xE0 SHR DUP1 PUSH4 0xEE322C80 EQ PUSH2 0x2E JUMPI PUSH2 0x29 JUMP JUMPDEST CALLDATASIZE PUSH2 0x29 JUMPI STOP JUMPDEST PUSH1 0x0 DUP1 REVERT JUMPDEST CALLVALUE DUP1 ISZERO PUSH2 0x3A JUMPI PUSH1 0x0 DUP1 REVERT JUMPDEST POP PUSH2 0xE6 PUSH1 0x4 DUP1 CALLDATASIZE SUB PUSH1 0x80 DUP2 LT ISZERO PUSH2 0x51 JUMPI PUSH1 0x0 DUP1 REVERT JUMPDEST DUP2 ADD SWAP1 DUP1 DUP1 CALLDATALOAD PUSH20 0xFFFFFFFFFFFFFFFFFFFFFFFFFFFFFFFFFFFFFFFF AND SWAP1 PUSH1 0x20 ADD SWAP1 SWAP3 SWAP2 SWAP1 DUP1 CALLDATALOAD SWAP1 PUSH1 0x20 ADD SWAP1 SWAP3 SWAP2 SWAP1 DUP1 CALLDATALOAD SWAP1 PUSH1 0x20 ADD SWAP1 SWAP3 SWAP2 SWAP1 DUP1 CALLDATALOAD SWAP1 PUSH1 0x20 ADD SWAP1 PUSH5 0x100000000 DUP2 GT ISZERO PUSH2 0xA2 JUMPI PUSH1 0x0 DUP1 REVERT JUMPDEST DUP3 ADD DUP4 PUSH1 0x20 DUP3 ADD GT ISZERO PUSH2 0xB4 JUMPI PUSH1 0x0 DUP1 REVERT JUMPDEST DUP1 CALLDATALOAD SWAP1 PUSH1 0x20 ADD SWAP2 DUP5 PUSH1 0x1 DUP4 MUL DUP5 ADD GT PUSH5 0x100000000 DUP4 GT OR ISZERO PUSH2 0xD6 JUMPI PUSH1 0x0 DUP1 REVERT JUMPDEST SWAP1 SWAP2 SWAP3 SWAP4 SWAP2 SWAP3 SWAP4 SWAP1 POP POP POP PUSH2 0xE8 JUMP JUMPDEST STOP JUMPDEST PUSH1 0x60 PUSH1 0x2 PUSH8 0xFFFFFFFFFFFFFFFF DUP2 GT DUP1 ISZERO PUSH2 0x102 JUMPI PUSH1 0x0 DUP1 REVERT JUMPDEST POP PUSH1 0x40 MLOAD SWAP1 DUP1 DUP3 MSTORE DUP1 PUSH1 0x20 MUL PUSH1 0x20 ADD DUP3 ADD PUSH1 0x40 MSTORE DUP1 ISZERO PUSH2 0x131 JUMPI DUP2 PUSH1 0x20 ADD PUSH1 0x20 DUP3 MUL DUP1 CALLDATASIZE DUP4 CALLDATACOPY DUP1 DUP3 ADD SWAP2 POP POP SWAP1 POP JUMPDEST POP SWAP1 POP PUSH1 0x0 DUP1 PUSH1 0x0 CALLER PUSH20 0xFFFFFFFFFFFFFFFFFFFFFFFFFFFFFFFFFFFFFFFF AND PUSH4 0xDFE1681 PUSH1 0x40 MLOAD DUP2 PUSH4 0xFFFFFFFF AND PUSH1 0xE0 SHL DUP2 MSTORE PUSH1 0x4 ADD PUSH1 0x20 PUSH1 0x40 MLOAD DUP1 DUP4 SUB DUP2 DUP7 DUP1 EXTCODESIZE ISZERO DUP1 ISZERO PUSH2 0x17F JUMPI PUSH1 0x0 DUP1 REVERT JUMPDEST POP GAS STATICCALL ISZERO DUP1 ISZERO PUSH2 0x193 JUMPI RETURNDATASIZE PUSH1 0x0 DUP1 RETURNDATACOPY RETURNDATASIZE PUSH1 0x0 REVERT JUMPDEST POP POP POP POP PUSH1 0x40 MLOAD RETURNDATASIZE PUSH1 0x20 DUP2 LT ISZERO PUSH2 0x1A9 JUMPI PUSH1 0x0 DUP1 REVERT JUMPDEST DUP2 ADD SWAP1 DUP1 DUP1 MLOAD SWAP1 PUSH1 0x20 ADD SWAP1 SWAP3 SWAP2 SWAP1 POP POP POP SWAP1 POP PUSH1 0x0 CALLER PUSH20 0xFFFFFFFFFFFFFFFFFFFFFFFFFFFFFFFFFFFFFFFF AND PUSH4 0xD21220A7 PUSH1 0x40 MLOAD DUP2 PUSH4 0xFFFFFFFF AND PUSH1 0xE0 SHL DUP2 MSTORE PUSH1 0x4 ADD PUSH1 0x20 PUSH1 0x40 MLOAD DUP1 DUP4 SUB DUP2 DUP7 DUP1 EXTCODESIZE ISZERO DUP1 ISZERO PUSH2 0x204 JUMPI PUSH1 0x0 DUP1 REVERT JUMPDEST POP GAS STATICCALL ISZERO DUP1 ISZERO PUSH2 0x218 JUMPI RETURNDATASIZE PUSH1 0x0 DUP1 RETURNDATACOPY RETURNDATASIZE PUSH1 0x0 REVERT JUMPDEST POP POP POP POP PUSH1 0x40 MLOAD RETURNDATASIZE PUSH1 0x20 DUP2 LT ISZERO PUSH2 0x22E JUMPI PUSH1 0x0 DUP1 REVERT JUMPDEST DUP2 ADD SWAP1 DUP1 DUP1 MLOAD SWAP1 PUSH1 0x20 ADD SWAP1 SWAP3 SWAP2 SWAP1 POP POP POP SWAP1 POP PUSH2 0x26C PUSH32 0x0 DUP4 DUP4 PUSH2 0xE40 JUMP JUMPDEST PUSH20 0xFFFFFFFFFFFFFFFFFFFFFFFFFFFFFFFFFFFFFFFF AND CALLER PUSH20 0xFFFFFFFFFFFFFFFFFFFFFFFFFFFFFFFFFFFFFFFF AND EQ PUSH2 0x2A0 JUMPI INVALID JUMPDEST PUSH1 0x0 DUP10 EQ DUP1 PUSH2 0x2AF JUMPI POP PUSH1 0x0 DUP9 EQ JUMPDEST PUSH2 0x2B5 JUMPI INVALID JUMPDEST PUSH1 0x0 DUP10 EQ PUSH2 0x2C3 JUMPI DUP1 PUSH2 0x2C5 JUMP JUMPDEST DUP2 JUMPDEST DUP6 PUSH1 0x0 DUP2 MLOAD DUP2 LT PUSH2 0x2D2 JUMPI INVALID JUMPDEST PUSH1 0x20 MUL PUSH1 0x20 ADD ADD SWAP1 PUSH20 0xFFFFFFFFFFFFFFFFFFFFFFFFFFFFFFFFFFFFFFFF AND SWAP1 DUP2 PUSH20 0xFFFFFFFFFFFFFFFFFFFFFFFFFFFFFFFFFFFFFFFF AND DUP2 MSTORE POP POP PUSH1 0x0 DUP10 EQ PUSH2 0x31A JUMPI DUP2 PUSH2 0x31C JUMP JUMPDEST DUP1 JUMPDEST DUP6 PUSH1 0x1 DUP2 MLOAD DUP2 LT PUSH2 0x329 JUMPI INVALID JUMPDEST PUSH1 0x20 MUL PUSH1 0x20 ADD ADD SWAP1 PUSH20 0xFFFFFFFFFFFFFFFFFFFFFFFFFFFFFFFFFFFFFFFF AND SWAP1 DUP2 PUSH20 0xFFFFFFFFFFFFFFFFFFFFFFFFFFFFFFFFFFFFFFFF AND DUP2 MSTORE POP POP PUSH32 0x0 PUSH20 0xFFFFFFFFFFFFFFFFFFFFFFFFFFFFFFFFFFFFFFFF AND DUP3 PUSH20 0xFFFFFFFFFFFFFFFFFFFFFFFFFFFFFFFFFFFFFFFF AND EQ PUSH2 0x3BC JUMPI DUP9 PUSH2 0x3BE JUMP JUMPDEST DUP8 JUMPDEST SWAP4 POP PUSH32 0x0 PUSH20 0xFFFFFFFFFFFFFFFFFFFFFFFFFFFFFFFFFFFFFFFF AND DUP3 PUSH20 0xFFFFFFFFFFFFFFFFFFFFFFFFFFFFFFFFFFFFFFFF AND EQ PUSH2 0x419 JUMPI DUP8 PUSH2 0x41B JUMP JUMPDEST DUP9 JUMPDEST SWAP3 POP POP POP PUSH32 0x0 PUSH20 0xFFFFFFFFFFFFFFFFFFFFFFFFFFFFFFFFFFFFFFFF AND DUP4 PUSH1 0x0 DUP2 MLOAD DUP2 LT PUSH2 0x463 JUMPI INVALID JUMPDEST PUSH1 0x20 MUL PUSH1 0x20 ADD ADD MLOAD PUSH20 0xFFFFFFFFFFFFFFFFFFFFFFFFFFFFFFFFFFFFFFFF AND EQ DUP1 PUSH2 0x4EC JUMPI POP PUSH32 0x0 PUSH20 0xFFFFFFFFFFFFFFFFFFFFFFFFFFFFFFFFFFFFFFFF AND DUP4 PUSH1 0x1 DUP2 MLOAD DUP2 LT PUSH2 0x4CC JUMPI INVALID JUMPDEST PUSH1 0x20 MUL PUSH1 0x20 ADD ADD MLOAD PUSH20 0xFFFFFFFFFFFFFFFFFFFFFFFFFFFFFFFFFFFFFFFF AND EQ JUMPDEST PUSH2 0x4F2 JUMPI INVALID JUMPDEST PUSH1 0x0 PUSH32 0x0 PUSH20 0xFFFFFFFFFFFFFFFFFFFFFFFFFFFFFFFFFFFFFFFF AND DUP5 PUSH1 0x0 DUP2 MLOAD DUP2 LT PUSH2 0x538 JUMPI INVALID JUMPDEST PUSH1 0x20 MUL PUSH1 0x20 ADD ADD MLOAD PUSH20 0xFFFFFFFFFFFFFFFFFFFFFFFFFFFFFFFFFFFFFFFF AND EQ PUSH2 0x575 JUMPI DUP4 PUSH1 0x0 DUP2 MLOAD DUP2 LT PUSH2 0x568 JUMPI INVALID JUMPDEST PUSH1 0x20 MUL PUSH1 0x20 ADD ADD MLOAD PUSH2 0x58B JUMP JUMPDEST DUP4 PUSH1 0x1 DUP2 MLOAD DUP2 LT PUSH2 0x582 JUMPI INVALID JUMPDEST PUSH1 0x20 MUL PUSH1 0x20 ADD ADD MLOAD JUMPDEST SWAP1 POP PUSH1 0x0 PUSH32 0x0 PUSH20 0xFFFFFFFFFFFFFFFFFFFFFFFFFFFFFFFFFFFFFFFF AND PUSH4 0x6F2BF62 DUP4 PUSH1 0x40 MLOAD DUP3 PUSH4 0xFFFFFFFF AND PUSH1 0xE0 SHL DUP2 MSTORE PUSH1 0x4 ADD DUP1 DUP3 PUSH20 0xFFFFFFFFFFFFFFFFFFFFFFFFFFFFFFFFFFFFFFFF AND PUSH20 0xFFFFFFFFFFFFFFFFFFFFFFFFFFFFFFFFFFFFFFFF AND DUP2 MSTORE PUSH1 0x20 ADD SWAP2 POP POP PUSH1 0x20 PUSH1 0x40 MLOAD DUP1 DUP4 SUB DUP2 DUP7 DUP1 EXTCODESIZE ISZERO DUP1 ISZERO PUSH2 0x62C JUMPI PUSH1 0x0 DUP1 REVERT JUMPDEST POP GAS STATICCALL ISZERO DUP1 ISZERO PUSH2 0x640 JUMPI RETURNDATASIZE PUSH1 0x0 DUP1 RETURNDATACOPY RETURNDATASIZE PUSH1 0x0 REVERT JUMPDEST POP POP POP POP PUSH1 0x40 MLOAD RETURNDATASIZE PUSH1 0x20 DUP2 LT ISZERO PUSH2 0x656 JUMPI PUSH1 0x0 DUP1 REVERT JUMPDEST DUP2 ADD SWAP1 DUP1 DUP1 MLOAD SWAP1 PUSH1 0x20 ADD SWAP1 SWAP3 SWAP2 SWAP1 POP POP POP SWAP1 POP PUSH1 0x0 DUP5 GT ISZERO PUSH2 0xAE7 JUMPI PUSH1 0x0 DUP8 DUP8 PUSH1 0x20 DUP2 LT ISZERO PUSH2 0x684 JUMPI PUSH1 0x0 DUP1 REVERT JUMPDEST DUP2 ADD SWAP1 DUP1 DUP1 CALLDATALOAD SWAP1 PUSH1 0x20 ADD SWAP1 SWAP3 SWAP2 SWAP1 POP POP POP SWAP1 POP DUP3 PUSH20 0xFFFFFFFFFFFFFFFFFFFFFFFFFFFFFFFFFFFFFFFF AND PUSH4 0x95EA7B3 DUP4 DUP8 PUSH1 0x40 MLOAD DUP4 PUSH4 0xFFFFFFFF AND PUSH1 0xE0 SHL DUP2 MSTORE PUSH1 0x4 ADD DUP1 DUP4 PUSH20 0xFFFFFFFFFFFFFFFFFFFFFFFFFFFFFFFFFFFFFFFF AND PUSH20 0xFFFFFFFFFFFFFFFFFFFFFFFFFFFFFFFFFFFFFFFF AND DUP2 MSTORE PUSH1 0x20 ADD DUP3 DUP2 MSTORE PUSH1 0x20 ADD SWAP3 POP POP POP PUSH1 0x20 PUSH1 0x40 MLOAD DUP1 DUP4 SUB DUP2 PUSH1 0x0 DUP8 DUP1 EXTCODESIZE ISZERO DUP1 ISZERO PUSH2 0x71E JUMPI PUSH1 0x0 DUP1 REVERT JUMPDEST POP GAS CALL ISZERO DUP1 ISZERO PUSH2 0x732 JUMPI RETURNDATASIZE PUSH1 0x0 DUP1 RETURNDATACOPY RETURNDATASIZE PUSH1 0x0 REVERT JUMPDEST POP POP POP POP PUSH1 0x40 MLOAD RETURNDATASIZE PUSH1 0x20 DUP2 LT ISZERO PUSH2 0x748 JUMPI PUSH1 0x0 DUP1 REVERT JUMPDEST DUP2 ADD SWAP1 DUP1 DUP1 MLOAD SWAP1 PUSH1 0x20 ADD SWAP1 SWAP3 SWAP2 SWAP1 POP POP POP POP PUSH1 0x0 DUP3 PUSH20 0xFFFFFFFFFFFFFFFFFFFFFFFFFFFFFFFFFFFFFFFF AND PUSH4 0x95E3C50B DUP8 DUP5 PUSH32 0xFFFFFFFFFFFFFFFFFFFFFFFFFFFFFFFFFFFFFFFFFFFFFFFFFFFFFFFFFFFFFFFF PUSH1 0x40 MLOAD DUP5 PUSH4 0xFFFFFFFF AND PUSH1 0xE0 SHL DUP2 MSTORE PUSH1 0x4 ADD DUP1 DUP5 DUP2 MSTORE PUSH1 0x20 ADD DUP4 DUP2 MSTORE PUSH1 0x20 ADD DUP3 DUP2 MSTORE PUSH1 0x20 ADD SWAP4 POP POP POP POP PUSH1 0x20 PUSH1 0x40 MLOAD DUP1 DUP4 SUB DUP2 PUSH1 0x0 DUP8 DUP1 EXTCODESIZE ISZERO DUP1 ISZERO PUSH2 0x7DF JUMPI PUSH1 0x0 DUP1 REVERT JUMPDEST POP GAS CALL ISZERO DUP1 ISZERO PUSH2 0x7F3 JUMPI RETURNDATASIZE PUSH1 0x0 DUP1 RETURNDATACOPY RETURNDATASIZE PUSH1 0x0 REVERT JUMPDEST POP POP POP POP PUSH1 0x40 MLOAD RETURNDATASIZE PUSH1 0x20 DUP2 LT ISZERO PUSH2 0x809 JUMPI PUSH1 0x0 DUP1 REVERT JUMPDEST DUP2 ADD SWAP1 DUP1 DUP1 MLOAD SWAP1 PUSH1 0x20 ADD SWAP1 SWAP3 SWAP2 SWAP1 POP POP POP SWAP1 POP PUSH1 0x0 PUSH2 0x849 PUSH32 0x0 DUP9 DUP11 PUSH2 0xF9B JUMP JUMPDEST PUSH1 0x0 DUP2 MLOAD DUP2 LT PUSH2 0x855 JUMPI INVALID JUMPDEST PUSH1 0x20 MUL PUSH1 0x20 ADD ADD MLOAD SWAP1 POP DUP1 DUP3 GT PUSH2 0x868 JUMPI INVALID JUMPDEST PUSH32 0x0 PUSH20 0xFFFFFFFFFFFFFFFFFFFFFFFFFFFFFFFFFFFFFFFF AND PUSH4 0xD0E30DB0 DUP3 PUSH1 0x40 MLOAD DUP3 PUSH4 0xFFFFFFFF AND PUSH1 0xE0 SHL DUP2 MSTORE PUSH1 0x4 ADD PUSH1 0x0 PUSH1 0x40 MLOAD DUP1 DUP4 SUB DUP2 DUP6 DUP9 DUP1 EXTCODESIZE ISZERO DUP1 ISZERO PUSH2 0x8D0 JUMPI PUSH1 0x0 DUP1 REVERT JUMPDEST POP GAS CALL ISZERO DUP1 ISZERO PUSH2 0x8E4 JUMPI RETURNDATASIZE PUSH1 0x0 DUP1 RETURNDATACOPY RETURNDATASIZE PUSH1 0x0 REVERT JUMPDEST POP POP POP POP POP PUSH32 0x0 PUSH20 0xFFFFFFFFFFFFFFFFFFFFFFFFFFFFFFFFFFFFFFFF AND PUSH4 0xA9059CBB CALLER DUP4 PUSH1 0x40 MLOAD DUP4 PUSH4 0xFFFFFFFF AND PUSH1 0xE0 SHL DUP2 MSTORE PUSH1 0x4 ADD DUP1 DUP4 PUSH20 0xFFFFFFFFFFFFFFFFFFFFFFFFFFFFFFFFFFFFFFFF AND PUSH20 0xFFFFFFFFFFFFFFFFFFFFFFFFFFFFFFFFFFFFFFFF AND DUP2 MSTORE PUSH1 0x20 ADD DUP3 DUP2 MSTORE PUSH1 0x20 ADD SWAP3 POP POP POP PUSH1 0x20 PUSH1 0x40 MLOAD DUP1 DUP4 SUB DUP2 PUSH1 0x0 DUP8 DUP1 EXTCODESIZE ISZERO DUP1 ISZERO PUSH2 0x990 JUMPI PUSH1 0x0 DUP1 REVERT JUMPDEST POP GAS CALL ISZERO DUP1 ISZERO PUSH2 0x9A4 JUMPI RETURNDATASIZE PUSH1 0x0 DUP1 RETURNDATACOPY RETURNDATASIZE PUSH1 0x0 REVERT JUMPDEST POP POP POP POP PUSH1 0x40 MLOAD RETURNDATASIZE PUSH1 0x20 DUP2 LT ISZERO PUSH2 0x9BA JUMPI PUSH1 0x0 DUP1 REVERT JUMPDEST DUP2 ADD SWAP1 DUP1 DUP1 MLOAD SWAP1 PUSH1 0x20 ADD SWAP1 SWAP3 SWAP2 SWAP1 POP POP POP PUSH2 0x9D1 JUMPI INVALID JUMPDEST PUSH1 0x0 DUP14 PUSH20 0xFFFFFFFFFFFFFFFFFFFFFFFFFFFFFFFFFFFFFFFF AND DUP3 DUP5 SUB PUSH1 0x0 PUSH8 0xFFFFFFFFFFFFFFFF DUP2 GT DUP1 ISZERO PUSH2 0xA05 JUMPI PUSH1 0x0 DUP1 REVERT JUMPDEST POP PUSH1 0x40 MLOAD SWAP1 DUP1 DUP3 MSTORE DUP1 PUSH1 0x1F ADD PUSH1 0x1F NOT AND PUSH1 0x20 ADD DUP3 ADD PUSH1 0x40 MSTORE DUP1 ISZERO PUSH2 0xA38 JUMPI DUP2 PUSH1 0x20 ADD PUSH1 0x1 DUP3 MUL DUP1 CALLDATASIZE DUP4 CALLDATACOPY DUP1 DUP3 ADD SWAP2 POP POP SWAP1 POP JUMPDEST POP PUSH1 0x40 MLOAD DUP1 DUP3 DUP1 MLOAD SWAP1 PUSH1 0x20 ADD SWAP1 DUP1 DUP4 DUP4 JUMPDEST PUSH1 0x20 DUP4 LT PUSH2 0xA6C JUMPI DUP1 MLOAD DUP3 MSTORE PUSH1 0x20 DUP3 ADD SWAP2 POP PUSH1 0x20 DUP2 ADD SWAP1 POP PUSH1 0x20 DUP4 SUB SWAP3 POP PUSH2 0xA49 JUMP JUMPDEST PUSH1 0x1 DUP4 PUSH1 0x20 SUB PUSH2 0x100 EXP SUB DUP1 NOT DUP3 MLOAD AND DUP2 DUP5 MLOAD AND DUP1 DUP3 OR DUP6 MSTORE POP POP POP POP POP POP SWAP1 POP ADD SWAP2 POP POP PUSH1 0x0 PUSH1 0x40 MLOAD DUP1 DUP4 SUB DUP2 DUP6 DUP8 GAS CALL SWAP3 POP POP POP RETURNDATASIZE DUP1 PUSH1 0x0 DUP2 EQ PUSH2 0xACE JUMPI PUSH1 0x40 MLOAD SWAP2 POP PUSH1 0x1F NOT PUSH1 0x3F RETURNDATASIZE ADD AND DUP3 ADD PUSH1 0x40 MSTORE RETURNDATASIZE DUP3 MSTORE RETURNDATASIZE PUSH1 0x0 PUSH1 0x20 DUP5 ADD RETURNDATACOPY PUSH2 0xAD3 JUMP JUMPDEST PUSH1 0x60 SWAP2 POP JUMPDEST POP POP SWAP1 POP DUP1 PUSH2 0xADE JUMPI INVALID JUMPDEST POP POP POP POP PUSH2 0xE34 JUMP JUMPDEST PUSH1 0x0 DUP8 DUP8 PUSH1 0x20 DUP2 LT ISZERO PUSH2 0xAF9 JUMPI PUSH1 0x0 DUP1 REVERT JUMPDEST DUP2 ADD SWAP1 DUP1 DUP1 CALLDATALOAD SWAP1 PUSH1 0x20 ADD SWAP1 SWAP3 SWAP2 SWAP1 POP POP POP SWAP1 POP PUSH32 0x0 PUSH20 0xFFFFFFFFFFFFFFFFFFFFFFFFFFFFFFFFFFFFFFFF AND PUSH4 0x2E1A7D4D DUP6 PUSH1 0x40 MLOAD DUP3 PUSH4 0xFFFFFFFF AND PUSH1 0xE0 SHL DUP2 MSTORE PUSH1 0x4 ADD DUP1 DUP3 DUP2 MSTORE PUSH1 0x20 ADD SWAP2 POP POP PUSH1 0x0 PUSH1 0x40 MLOAD DUP1 DUP4 SUB DUP2 PUSH1 0x0 DUP8 DUP1 EXTCODESIZE ISZERO DUP1 ISZERO PUSH2 0xB7F JUMPI PUSH1 0x0 DUP1 REVERT JUMPDEST POP GAS CALL ISZERO DUP1 ISZERO PUSH2 0xB93 JUMPI RETURNDATASIZE PUSH1 0x0 DUP1 RETURNDATACOPY RETURNDATASIZE PUSH1 0x0 REVERT JUMPDEST POP POP POP POP PUSH1 0x0 DUP3 PUSH20 0xFFFFFFFFFFFFFFFFFFFFFFFFFFFFFFFFFFFFFFFF AND PUSH4 0xF39B5B9B DUP7 DUP5 PUSH32 0xFFFFFFFFFFFFFFFFFFFFFFFFFFFFFFFFFFFFFFFFFFFFFFFFFFFFFFFFFFFFFFFF PUSH1 0x40 MLOAD DUP5 PUSH4 0xFFFFFFFF AND PUSH1 0xE0 SHL DUP2 MSTORE PUSH1 0x4 ADD DUP1 DUP4 DUP2 MSTORE PUSH1 0x20 ADD DUP3 DUP2 MSTORE PUSH1 0x20 ADD SWAP3 POP POP POP PUSH1 0x20 PUSH1 0x40 MLOAD DUP1 DUP4 SUB DUP2 DUP6 DUP9 DUP1 EXTCODESIZE ISZERO DUP1 ISZERO PUSH2 0xC14 JUMPI PUSH1 0x0 DUP1 REVERT JUMPDEST POP GAS CALL ISZERO DUP1 ISZERO PUSH2 0xC28 JUMPI RETURNDATASIZE PUSH1 0x0 DUP1 RETURNDATACOPY RETURNDATASIZE PUSH1 0x0 REVERT JUMPDEST POP POP POP POP POP PUSH1 0x40 MLOAD RETURNDATASIZE PUSH1 0x20 DUP2 LT ISZERO PUSH2 0xC3F JUMPI PUSH1 0x0 DUP1 REVERT JUMPDEST DUP2 ADD SWAP1 DUP1 DUP1 MLOAD SWAP1 PUSH1 0x20 ADD SWAP1 SWAP3 SWAP2 SWAP1 POP POP POP SWAP1 POP PUSH1 0x0 PUSH2 0xC7F PUSH32 0x0 DUP8 DUP11 PUSH2 0xF9B JUMP JUMPDEST PUSH1 0x0 DUP2 MLOAD DUP2 LT PUSH2 0xC8B JUMPI INVALID JUMPDEST PUSH1 0x20 MUL PUSH1 0x20 ADD ADD MLOAD SWAP1 POP DUP1 DUP3 GT PUSH2 0xC9E JUMPI INVALID JUMPDEST DUP5 PUSH20 0xFFFFFFFFFFFFFFFFFFFFFFFFFFFFFFFFFFFFFFFF AND PUSH4 0xA9059CBB CALLER DUP4 PUSH1 0x40 MLOAD DUP4 PUSH4 0xFFFFFFFF AND PUSH1 0xE0 SHL DUP2 MSTORE PUSH1 0x4 ADD DUP1 DUP4 PUSH20 0xFFFFFFFFFFFFFFFFFFFFFFFFFFFFFFFFFFFFFFFF AND PUSH20 0xFFFFFFFFFFFFFFFFFFFFFFFFFFFFFFFFFFFFFFFF AND DUP2 MSTORE PUSH1 0x20 ADD DUP3 DUP2 MSTORE PUSH1 0x20 ADD SWAP3 POP POP POP PUSH1 0x20 PUSH1 0x40 MLOAD DUP1 DUP4 SUB DUP2 PUSH1 0x0 DUP8 DUP1 EXTCODESIZE ISZERO DUP1 ISZERO PUSH2 0xD25 JUMPI PUSH1 0x0 DUP1 REVERT JUMPDEST POP GAS CALL ISZERO DUP1 ISZERO PUSH2 0xD39 JUMPI RETURNDATASIZE PUSH1 0x0 DUP1 RETURNDATACOPY RETURNDATASIZE PUSH1 0x0 REVERT JUMPDEST POP POP POP POP PUSH1 0x40 MLOAD RETURNDATASIZE PUSH1 0x20 DUP2 LT ISZERO PUSH2 0xD4F JUMPI PUSH1 0x0 DUP1 REVERT JUMPDEST DUP2 ADD SWAP1 DUP1 DUP1 MLOAD SWAP1 PUSH1 0x20 ADD SWAP1 SWAP3 SWAP2 SWAP1 POP POP POP PUSH2 0xD66 JUMPI INVALID JUMPDEST DUP5 PUSH20 0xFFFFFFFFFFFFFFFFFFFFFFFFFFFFFFFFFFFFFFFF AND PUSH4 0xA9059CBB DUP15 DUP4 DUP6 SUB PUSH1 0x40 MLOAD DUP4 PUSH4 0xFFFFFFFF AND PUSH1 0xE0 SHL DUP2 MSTORE PUSH1 0x4 ADD DUP1 DUP4 PUSH20 0xFFFFFFFFFFFFFFFFFFFFFFFFFFFFFFFFFFFFFFFF AND PUSH20 0xFFFFFFFFFFFFFFFFFFFFFFFFFFFFFFFFFFFFFFFF AND DUP2 MSTORE PUSH1 0x20 ADD DUP3 DUP2 MSTORE PUSH1 0x20 ADD SWAP3 POP POP POP PUSH1 0x20 PUSH1 0x40 MLOAD DUP1 DUP4 SUB DUP2 PUSH1 0x0 DUP8 DUP1 EXTCODESIZE ISZERO DUP1 ISZERO PUSH2 0xDEF JUMPI PUSH1 0x0 DUP1 REVERT JUMPDEST POP GAS CALL ISZERO DUP1 ISZERO PUSH2 0xE03 JUMPI RETURNDATASIZE PUSH1 0x0 DUP1 RETURNDATACOPY RETURNDATASIZE PUSH1 0x0 REVERT JUMPDEST POP POP POP POP PUSH1 0x40 MLOAD RETURNDATASIZE PUSH1 0x20 DUP2 LT ISZERO PUSH2 0xE19 JUMPI PUSH1 0x0 DUP1 REVERT JUMPDEST DUP2 ADD SWAP1 DUP1 DUP1 MLOAD SWAP1 PUSH1 0x20 ADD SWAP1 SWAP3 SWAP2 SWAP1 POP POP POP PUSH2 0xE30 JUMPI INVALID JUMPDEST POP POP POP JUMPDEST POP POP POP POP POP POP POP POP POP POP JUMP JUMPDEST PUSH1 0x0 DUP1 PUSH1 0x0 PUSH2 0xE4F DUP6 DUP6 PUSH2 0x111B JUMP JUMPDEST SWAP2 POP SWAP2 POP DUP6 DUP3 DUP3 PUSH1 0x40 MLOAD PUSH1 0x20 ADD DUP1 DUP4 PUSH20 0xFFFFFFFFFFFFFFFFFFFFFFFFFFFFFFFFFFFFFFFF AND PUSH20 0xFFFFFFFFFFFFFFFFFFFFFFFFFFFFFFFFFFFFFFFF AND PUSH1 0x60 SHL DUP2 MSTORE PUSH1 0x14 ADD DUP3 PUSH20 0xFFFFFFFFFFFFFFFFFFFFFFFFFFFFFFFFFFFFFFFF AND PUSH20 0xFFFFFFFFFFFFFFFFFFFFFFFFFFFFFFFFFFFFFFFF AND PUSH1 0x60 SHL DUP2 MSTORE PUSH1 0x14 ADD SWAP3 POP POP POP PUSH1 0x40 MLOAD PUSH1 0x20 DUP2 DUP4 SUB SUB DUP2 MSTORE SWAP1 PUSH1 0x40 MSTORE DUP1 MLOAD SWAP1 PUSH1 0x20 ADD KECCAK256 PUSH1 0x40 MLOAD PUSH1 0x20 ADD DUP1 DUP1 PUSH32 0xFF00000000000000000000000000000000000000000000000000000000000000 DUP2 MSTORE POP PUSH1 0x1 ADD DUP4 PUSH20 0xFFFFFFFFFFFFFFFFFFFFFFFFFFFFFFFFFFFFFFFF AND PUSH20 0xFFFFFFFFFFFFFFFFFFFFFFFFFFFFFFFFFFFFFFFF AND PUSH1 0x60 SHL DUP2 MSTORE PUSH1 0x14 ADD DUP3 DUP2 MSTORE PUSH1 0x20 ADD DUP1 PUSH32 0x7A258225EA5F60EA5007F427EDC018ED9176FC900D6D15B23AEBE809D95BBB36 DUP2 MSTORE POP PUSH1 0x20 ADD SWAP3 POP POP POP PUSH1 0x40 MLOAD PUSH1 0x20 DUP2 DUP4 SUB SUB DUP2 MSTORE SWAP1 PUSH1 0x40 MSTORE DUP1 MLOAD SWAP1 PUSH1 0x20 ADD KECCAK256 PUSH1 0x0 SHR SWAP3 POP POP POP SWAP4 SWAP3 POP POP POP JUMP JUMPDEST PUSH1 0x60 PUSH1 0x2 DUP3 MLOAD LT ISZERO PUSH2 0x1015 JUMPI PUSH1 0x40 MLOAD PUSH32 0x8C379A000000000000000000000000000000000000000000000000000000000 DUP2 MSTORE PUSH1 0x4 ADD DUP1 DUP1 PUSH1 0x20 ADD DUP3 DUP2 SUB DUP3 MSTORE PUSH1 0x1F DUP2 MSTORE PUSH1 0x20 ADD DUP1 PUSH32 0x466976657377617056324C6962726172793A20494E56414C49445F5041544800 DUP2 MSTORE POP PUSH1 0x20 ADD SWAP2 POP POP PUSH1 0x40 MLOAD DUP1 SWAP2 SUB SWAP1 REVERT JUMPDEST DUP2 MLOAD PUSH8 0xFFFFFFFFFFFFFFFF DUP2 GT DUP1 ISZERO PUSH2 0x102D JUMPI PUSH1 0x0 DUP1 REVERT JUMPDEST POP PUSH1 0x40 MLOAD SWAP1 DUP1 DUP3 MSTORE DUP1 PUSH1 0x20 MUL PUSH1 0x20 ADD DUP3 ADD PUSH1 0x40 MSTORE DUP1 ISZERO PUSH2 0x105C JUMPI DUP2 PUSH1 0x20 ADD PUSH1 0x20 DUP3 MUL DUP1 CALLDATASIZE DUP4 CALLDATACOPY DUP1 DUP3 ADD SWAP2 POP POP SWAP1 POP JUMPDEST POP SWAP1 POP DUP3 DUP2 PUSH1 0x1 DUP4 MLOAD SUB DUP2 MLOAD DUP2 LT PUSH2 0x1070 JUMPI INVALID JUMPDEST PUSH1 0x20 MUL PUSH1 0x20 ADD ADD DUP2 DUP2 MSTORE POP POP PUSH1 0x0 PUSH1 0x1 DUP4 MLOAD SUB SWAP1 POP JUMPDEST PUSH1 0x0 DUP2 GT ISZERO PUSH2 0x1113 JUMPI PUSH1 0x0 DUP1 PUSH2 0x10C6 DUP8 DUP7 PUSH1 0x1 DUP7 SUB DUP2 MLOAD DUP2 LT PUSH2 0x10A5 JUMPI INVALID JUMPDEST PUSH1 0x20 MUL PUSH1 0x20 ADD ADD MLOAD DUP8 DUP7 DUP2 MLOAD DUP2 LT PUSH2 0x10B9 JUMPI INVALID JUMPDEST PUSH1 0x20 MUL PUSH1 0x20 ADD ADD MLOAD PUSH2 0x1292 JUMP JUMPDEST SWAP2 POP SWAP2 POP PUSH2 0x10E8 DUP5 DUP5 DUP2 MLOAD DUP2 LT PUSH2 0x10D9 JUMPI INVALID JUMPDEST PUSH1 0x20 MUL PUSH1 0x20 ADD ADD MLOAD DUP4 DUP4 PUSH2 0x13BB JUMP JUMPDEST DUP5 PUSH1 0x1 DUP6 SUB DUP2 MLOAD DUP2 LT PUSH2 0x10F7 JUMPI INVALID JUMPDEST PUSH1 0x20 MUL PUSH1 0x20 ADD ADD DUP2 DUP2 MSTORE POP POP POP POP DUP1 DUP1 PUSH1 0x1 SWAP1 SUB SWAP2 POP POP PUSH2 0x1086 JUMP JUMPDEST POP SWAP4 SWAP3 POP POP POP JUMP JUMPDEST PUSH1 0x0 DUP1 DUP3 PUSH20 0xFFFFFFFFFFFFFFFFFFFFFFFFFFFFFFFFFFFFFFFF AND DUP5 PUSH20 0xFFFFFFFFFFFFFFFFFFFFFFFFFFFFFFFFFFFFFFFF AND EQ ISZERO PUSH2 0x11A3 JUMPI PUSH1 0x40 MLOAD PUSH32 0x8C379A000000000000000000000000000000000000000000000000000000000 DUP2 MSTORE PUSH1 0x4 ADD DUP1 DUP1 PUSH1 0x20 ADD DUP3 DUP2 SUB DUP3 MSTORE PUSH1 0x26 DUP2 MSTORE PUSH1 0x20 ADD DUP1 PUSH2 0x16C1 PUSH1 0x26 SWAP2 CODECOPY PUSH1 0x40 ADD SWAP2 POP POP PUSH1 0x40 MLOAD DUP1 SWAP2 SUB SWAP1 REVERT JUMPDEST DUP3 PUSH20 0xFFFFFFFFFFFFFFFFFFFFFFFFFFFFFFFFFFFFFFFF AND DUP5 PUSH20 0xFFFFFFFFFFFFFFFFFFFFFFFFFFFFFFFFFFFFFFFF AND LT PUSH2 0x11DD JUMPI DUP3 DUP5 PUSH2 0x11E0 JUMP JUMPDEST DUP4 DUP4 JUMPDEST DUP1 SWAP3 POP DUP2 SWAP4 POP POP POP PUSH1 0x0 PUSH20 0xFFFFFFFFFFFFFFFFFFFFFFFFFFFFFFFFFFFFFFFF AND DUP3 PUSH20 0xFFFFFFFFFFFFFFFFFFFFFFFFFFFFFFFFFFFFFFFF AND EQ ISZERO PUSH2 0x128B JUMPI PUSH1 0x40 MLOAD PUSH32 0x8C379A000000000000000000000000000000000000000000000000000000000 DUP2 MSTORE PUSH1 0x4 ADD DUP1 DUP1 PUSH1 0x20 ADD DUP3 DUP2 SUB DUP3 MSTORE PUSH1 0x1F DUP2 MSTORE PUSH1 0x20 ADD DUP1 PUSH32 0x466976657377617056324C6962726172793A205A45524F5F4144445245535300 DUP2 MSTORE POP PUSH1 0x20 ADD SWAP2 POP POP PUSH1 0x40 MLOAD DUP1 SWAP2 SUB SWAP1 REVERT JUMPDEST SWAP3 POP SWAP3 SWAP1 POP JUMP JUMPDEST PUSH1 0x0 DUP1 PUSH1 0x0 PUSH2 0x12A1 DUP6 DUP6 PUSH2 0x111B JUMP JUMPDEST POP SWAP1 POP PUSH1 0x0 DUP1 PUSH2 0x12B2 DUP9 DUP9 DUP9 PUSH2 0xE40 JUMP JUMPDEST PUSH20 0xFFFFFFFFFFFFFFFFFFFFFFFFFFFFFFFFFFFFFFFF AND PUSH4 0x902F1AC PUSH1 0x40 MLOAD DUP2 PUSH4 0xFFFFFFFF AND PUSH1 0xE0 SHL DUP2 MSTORE PUSH1 0x4 ADD PUSH1 0x60 PUSH1 0x40 MLOAD DUP1 DUP4 SUB DUP2 DUP7 DUP1 EXTCODESIZE ISZERO DUP1 ISZERO PUSH2 0x12F7 JUMPI PUSH1 0x0 DUP1 REVERT JUMPDEST POP GAS STATICCALL ISZERO DUP1 ISZERO PUSH2 0x130B JUMPI RETURNDATASIZE PUSH1 0x0 DUP1 RETURNDATACOPY RETURNDATASIZE PUSH1 0x0 REVERT JUMPDEST POP POP POP POP PUSH1 0x40 MLOAD RETURNDATASIZE PUSH1 0x60 DUP2 LT ISZERO PUSH2 0x1321 JUMPI PUSH1 0x0 DUP1 REVERT JUMPDEST DUP2 ADD SWAP1 DUP1 DUP1 MLOAD SWAP1 PUSH1 0x20 ADD SWAP1 SWAP3 SWAP2 SWAP1 DUP1 MLOAD SWAP1 PUSH1 0x20 ADD SWAP1 SWAP3 SWAP2 SWAP1 DUP1 MLOAD SWAP1 PUSH1 0x20 ADD SWAP1 SWAP3 SWAP2 SWAP1 POP POP POP POP PUSH14 0xFFFFFFFFFFFFFFFFFFFFFFFFFFFF AND SWAP2 POP PUSH14 0xFFFFFFFFFFFFFFFFFFFFFFFFFFFF AND SWAP2 POP DUP3 PUSH20 0xFFFFFFFFFFFFFFFFFFFFFFFFFFFFFFFFFFFFFFFF AND DUP8 PUSH20 0xFFFFFFFFFFFFFFFFFFFFFFFFFFFFFFFFFFFFFFFF AND EQ PUSH2 0x13A5 JUMPI DUP1 DUP3 PUSH2 0x13A8 JUMP JUMPDEST DUP2 DUP2 JUMPDEST DUP1 SWAP6 POP DUP2 SWAP7 POP POP POP POP POP POP SWAP4 POP SWAP4 SWAP2 POP POP JUMP JUMPDEST PUSH1 0x0 DUP1 DUP5 GT PUSH2 0x1415 JUMPI PUSH1 0x40 MLOAD PUSH32 0x8C379A000000000000000000000000000000000000000000000000000000000 DUP2 MSTORE PUSH1 0x4 ADD DUP1 DUP1 PUSH1 0x20 ADD DUP3 DUP2 SUB DUP3 MSTORE PUSH1 0x2D DUP2 MSTORE PUSH1 0x20 ADD DUP1 PUSH2 0x1694 PUSH1 0x2D SWAP2 CODECOPY PUSH1 0x40 ADD SWAP2 POP POP PUSH1 0x40 MLOAD DUP1 SWAP2 SUB SWAP1 REVERT JUMPDEST PUSH1 0x0 DUP4 GT DUP1 ISZERO PUSH2 0x1425 JUMPI POP PUSH1 0x0 DUP3 GT JUMPDEST PUSH2 0x147A JUMPI PUSH1 0x40 MLOAD PUSH32 0x8C379A000000000000000000000000000000000000000000000000000000000 DUP2 MSTORE PUSH1 0x4 ADD DUP1 DUP1 PUSH1 0x20 ADD DUP3 DUP2 SUB DUP3 MSTORE PUSH1 0x29 DUP2 MSTORE PUSH1 0x20 ADD DUP1 PUSH2 0x16E7 PUSH1 0x29 SWAP2 CODECOPY PUSH1 0x40 ADD SWAP2 POP POP PUSH1 0x40 MLOAD DUP1 SWAP2 SUB SWAP1 REVERT JUMPDEST PUSH1 0x0 PUSH2 0x14A3 PUSH2 0x3E8 PUSH2 0x1495 DUP8 DUP8 PUSH2 0x14F8 SWAP1 SWAP2 SWAP1 PUSH4 0xFFFFFFFF AND JUMP JUMPDEST PUSH2 0x14F8 SWAP1 SWAP2 SWAP1 PUSH4 0xFFFFFFFF AND JUMP JUMPDEST SWAP1 POP PUSH1 0x0 PUSH2 0x14CE PUSH2 0x3E5 PUSH2 0x14C0 DUP9 DUP8 PUSH2 0x158D SWAP1 SWAP2 SWAP1 PUSH4 0xFFFFFFFF AND JUMP JUMPDEST PUSH2 0x14F8 SWAP1 SWAP2 SWAP1 PUSH4 0xFFFFFFFF AND JUMP JUMPDEST SWAP1 POP PUSH2 0x14ED PUSH1 0x1 DUP3 DUP5 DUP2 PUSH2 0x14DE JUMPI INVALID JUMPDEST DIV PUSH2 0x1610 SWAP1 SWAP2 SWAP1 PUSH4 0xFFFFFFFF AND JUMP JUMPDEST SWAP3 POP POP POP SWAP4 SWAP3 POP POP POP JUMP JUMPDEST PUSH1 0x0 DUP1 DUP3 EQ DUP1 PUSH2 0x1515 JUMPI POP DUP3 DUP3 DUP4 DUP6 MUL SWAP3 POP DUP3 DUP2 PUSH2 0x1512 JUMPI INVALID JUMPDEST DIV EQ JUMPDEST PUSH2 0x1587 JUMPI PUSH1 0x40 MLOAD PUSH32 0x8C379A000000000000000000000000000000000000000000000000000000000 DUP2 MSTORE PUSH1 0x4 ADD DUP1 DUP1 PUSH1 0x20 ADD DUP3 DUP2 SUB DUP3 MSTORE PUSH1 0x14 DUP2 MSTORE PUSH1 0x20 ADD DUP1 PUSH32 0x64732D6D6174682D6D756C2D6F766572666C6F77000000000000000000000000 DUP2 MSTORE POP PUSH1 0x20 ADD SWAP2 POP POP PUSH1 0x40 MLOAD DUP1 SWAP2 SUB SWAP1 REVERT JUMPDEST SWAP3 SWAP2 POP POP JUMP JUMPDEST PUSH1 0x0 DUP3 DUP3 DUP5 SUB SWAP2 POP DUP2 GT ISZERO PUSH2 0x160A JUMPI PUSH1 0x40 MLOAD PUSH32 0x8C379A000000000000000000000000000000000000000000000000000000000 DUP2 MSTORE PUSH1 0x4 ADD DUP1 DUP1 PUSH1 0x20 ADD DUP3 DUP2 SUB DUP3 MSTORE PUSH1 0x15 DUP2 MSTORE PUSH1 0x20 ADD DUP1 PUSH32 0x64732D6D6174682D7375622D756E646572666C6F770000000000000000000000 DUP2 MSTORE POP PUSH1 0x20 ADD SWAP2 POP POP PUSH1 0x40 MLOAD DUP1 SWAP2 SUB SWAP1 REVERT JUMPDEST SWAP3 SWAP2 POP POP JUMP JUMPDEST PUSH1 0x0 DUP3 DUP3 DUP5 ADD SWAP2 POP DUP2 LT ISZERO PUSH2 0x168D JUMPI PUSH1 0x40 MLOAD PUSH32 0x8C379A000000000000000000000000000000000000000000000000000000000 DUP2 MSTORE PUSH1 0x4 ADD DUP1 DUP1 PUSH1 0x20 ADD DUP3 DUP2 SUB DUP3 MSTORE PUSH1 0x14 DUP2 MSTORE PUSH1 0x20 ADD DUP1 PUSH32 0x64732D6D6174682D6164642D6F766572666C6F77000000000000000000000000 DUP2 MSTORE POP PUSH1 0x20 ADD SWAP2 POP POP PUSH1 0x40 MLOAD DUP1 SWAP2 SUB SWAP1 REVERT JUMPDEST SWAP3 SWAP2 POP POP JUMP INVALID CHAINID PUSH10 0x76657377617056324C69 PUSH3 0x726172 PUSH26 0x3A20494E53554646494349454E545F4F55545055545F414D4F55 0x4E SLOAD CHAINID PUSH10 0x76657377617056324C69 PUSH3 0x726172 PUSH26 0x3A204944454E544943414C5F4144445245535345534669766573 PUSH24 0x617056324C6962726172793A20494E53554646494349454E SLOAD 0x5F 0x4C 0x49 MLOAD SSTORE 0x49 DIFFICULTY 0x49 SLOAD MSIZE LOG2 PUSH5 0x6970667358 0x22 SLT KECCAK256 0xC1 0xB1 BALANCE 0xCB CALLDATACOPY PUSH12 0x348A9C4CAF9CCFB03524764D 0xB7 0xED 0xCE POP 0x2B PUSH32 0xC261A3971E0F83FA64736F6C6343000606003300000000000000000000000000 "
				},
				"gasEstimates": {
					"creation": {
						"codeDepositCost": "1191400",
						"executionCost": "infinite",
						"totalCost": "infinite"
					},
					"external": {
						"FiveswapV2Call(address,uint256,uint256,bytes)": "infinite"
					}
				},
				"methodIdentifiers": {
					"FiveswapV2Call(address,uint256,uint256,bytes)": "ee322c80"
				}
			},
			"storageLayout": {
				"storage": [],
				"types": null
			},
			"userdoc": {
				"methods": {}
			}
		}
	}
}